:020000040800F2
:1000000000C00020A5030008910B0008950B000814
:10001000990B00089D0B0008A10B000801150008B2
:100020000115000801150008011500080115000858
:100030000115000801150008011500081515000834
:100040000115000801150008011500080115000838
:100050000115000801150008590C00085F0C000884
:10006000650C00086B0C0008710C0008A50A00085C
:10007000B50A0008C50A0008D50A0008E50A000804
:10008000F50A0008050B0008AD0800080115000876
:100090007D1D00080115000801150008770C0008F7
:1000A000FD1800080D190008191900082519000885
:1000B000311900083D19000849190008E911000824
:1000C00001120008F51100080D12000801150008C2
:1000D00001150008412F0008A52F0008093000086D
:1000E0007F0C0008011500080115000879190008A7
:1000F0008919000895190008A119000805090008C8
:10010000011500080115000855190008011500081F
:10011000491C0008611C0008611900086D190008DD
:10012000150B0008250B0008350B0008450B0008CF
:1001300010B5054C237833B9044B13B10448AFF321
:1001400000800123237010BDA811002000000000D2
:10015000D0C2010808B5034B1BB103490348AFF3F4
:10016000008008BD00000000AC110020D0C20108D2
:1001700010B512490A2309220968114800F0C6F98E
:1001800010490323022209680F4800F0BFF90F4904
:100190001B231A2209680E4800F0B8F90D492B23D9
:1001A0002A2209680C4800F0B1F9BDE810400B495B
:1001B00032232C2209680A4800F0A8B9A8020020BE
:1001C000C4110020AC020020DC110020B00200208D
:1001D000F4110020A00200200C120020A402002034
:1001E0002412002010B5044600F0E2FB034B204629
:1001F000BDE81040197800F043BB00BF120000209A
:10020000F8B50446056801F063FA002223685B0133
:1002100003F184431A6080232B600123AB622A61BF
:10022000EA606B61637973B1012B0FD001222368FF
:100230005B0103F18443C3F8802223685B0103F16F
:1002400084431A60F8BD4FF400436B644FF6FF72AD
:1002500000252368DA626E1CF7B23946204601F0A9
:100260004CFAE8B148F6FF72236817F0010F03F16A
:10027000340343F8252014BF6FF0FF026FF47F4270
:1002800023684FEA650503F1180353F8251001EAC6
:10029000020114BF68224FF4D0420A4343F82520DC
:1002A000042E3546D7D1C1E77047000038B5002588
:1002B000264A274C1368022043F01003136000F015
:1002C000E3FC002001F00EF865602368182023F499
:1002D0000023236001F012F8102001F00FF800F065
:1002E00043F8A560102000F0FDFF102001F014F885
:1002F0000028FAD000F039F8164801F019F8182053
:1003000000F0F0FF182001F007F80028FAD00220D2
:1003100000F0D8FF00214FF0006000F0A9FF0E4868
:1003200001F0F0F800F038F80C4B188800F028FBCA
:100330000B4800F029FB0B4801F0A4F900F02EF85F
:1003400000F02DF8FFF7B0FF38BD00BF00200240DD
:1003500000100240080000203F190100100000209A
:10036000E5010008010200087047002108B50846B1
:1003700001F01EF84FF48061012001F019F800210E
:10038000022001F015F82D2001F022F8BDE8084008
:100390000021032001F00CB800F08ABC704700F087
:1003A000C6BC000001498D460149084700C0002035
:1003B000B503000808B5114B1A68114B9A4213D1C6
:1003C000104B114A934213D315F0EAFD0022114657
:1003D000104602F003FC0D4B7BB115F0D1FD52F835
:1003E000041B043343F8041C09498B42F7D3E7E7A5
:1003F0000022043343F8042CE3E7FEE7C0020208BE
:1004000000000020A811002000230020815F0108C7
:10041000A811002010B50D4B1A680AB90C4A1A60D1
:100420001A680C49891A814204DB09494442511A6D
:10043000A14207DA15F09EFD0C234FF0FF32036056
:10044000104610BD10441860FAE700BF3C120020AF
:1004500000230020E8940228FEE7C38882889B1AC4
:10046000C2888188914282BF028901329B1898B26A
:10047000704710B5036904465868FFF7EEFF88B16E
:1004800023695B689A88196892B2885C99881A898E
:10049000C0B292B28A420FBF00229A88013292B251
:1004A0009A8010BD4FF0FF30FBE708B5036958682C
:1004B000FFF7D3FF08BD03695B689988DA8892B2B9
:1004C0008A421FBF9A881B6892B2985C14BFC0B260
:1004D0004FF0FF307047026991688888CB889BB2E3
:1004E0008342FAD1126813685B06FCD5704713B5D6
:1004F00004698DF8071001220DF10701204601F073
:10050000A2FA0028F7D0012002B010BD30B54FF09C
:10051000000C4FF47A75C0E901C5034D0161056017
:100520000275437530BD00BF20D801082DE9F7439F
:1005300003690446DB6888468B42914625D3067DD5
:10054000134D3601AB19477D586818B10022597B0D
:1005500001F08AF9206901F029FA39016A18127B41
:10056000AB19CDF804901B7B695800932069AB59F7
:1005700001F009FB20694246002101F02AFB2069B5
:1005800003B0BDE8F04301F039BA03B0BDE8F08331
:10059000E8D40108044B02791B789A4202BF034B4E
:1005A0001B681860704700BF6012002064120020B2
:1005B000002310B50446036072B6054B193119705B
:1005C000044B1860044801F05DF862B6204610BD87
:1005D00060120020641200209505000800220368C4
:1005E0001B685B0103F184431A60704701220368B2
:1005F0001B685B0103F184431A607047036801398B
:100600001B6889B29962704703681A68D36A9BB203
:10061000994228BF19465162704738B561B9012225
:1006200003681B68996203681B68DA6203681B68C9
:10063000DC6AA4B2204638BD48224A434FF6FF7117
:10064000B2FBF1F1013189B202EB5102B2FBF1F2DE
:1006500094B2FFF7D3FF036892B21B68DA62E9E74E
:10066000012203681B685B0103F18443C3F8802205
:100670007047000008B501211048FFF799FF0221DB
:100680000F48FFF795FF03210E48FFF791FF042164
:100690000D48FFF78DFF05210C48FFF789FF062164
:1006A0000B48FFF785FF07210A48FFF781FFBDE8E8
:1006B000084008210848FFF77BBF00BF4012002018
:1006C00044120020481200204C120020501200203A
:1006D00054120020581200205C120020F8B5064683
:1006E0000C4615468F18A74206D0336814F8011B34
:1006F0001B6830469847F6E72846F8BD70B50546B2
:100700000C46084649B116F0B5FB2B680246214657
:100710002846BDE870409B68184770BD0368C9B2A1
:100720001B6818472DE9F04F1446A5B01F4600225C
:100730000023814688462E9D13F006FC00286AD0CF
:10074000012608F100484FF0000A00203D495745B6
:1007500063DC02460B464846414612F0CDFF89460F
:10076000804613F041FC824613F002F902460B4624
:100770004046494612F0BEFF4FF0000B8046002075
:10078000894631495F454FDC42464B4613F06AF9D2
:1007900013F002FC3B4600905246002E4BD02B49F2
:1007A0000026284616F052FA31467D2204A8039608
:1007B00016F02AF8B4422846BCBF6442012616F05F
:1007C00059FBA04223D28022202103A816F01CF856
:1007D000284616F04FFB24AB241A1C44002304F8CF
:1007E000843C56BB284616F045FB013015F004FC4E
:1007F0000446294616F0E0FA03A9284616F0DCFA6A
:100800002146284616F044FA204615F0FDFB2846FE
:1008100025B0BDE8F08F064695E700220C4B13F09B
:100820004BFA0AF1010A92E70022094B13F01AF978
:100830000BF1010BA6E70749B2E703A9284616F01A
:1008400027FAE4E70000E03F0000F03F3CD8010851
:10085000000024403DD80108704710B504460079D7
:1008600000F074FD2079BDE8104000F087BD0268FB
:1008700041F48011936823F4602319439160704719
:10088000002330B51C461D4603EB4302072B01FA3B
:1008900002F203F10103D8BF15430A2B44EA020414
:1008A000F2D10368DD6003681C6130BD70B5144C83
:1008B00023681B681D68A90707D51A6822F0020281
:1008C0001A6023689B6803B198476A0709D52368B3
:1008D0001A68136823F00403136023681B6903B1CB
:1008E0009847EB070BD523681A68136823F00103B8
:1008F00013602368DB6813B1BDE87040184770BD12
:100900001800002070B5144C23681B681D68A907E7
:1009100007D51A6822F002021A6023689B6803B1A7
:1009200098476A0709D523681A68136823F00403F7
:10093000136023681B6903B19847EB070BD5236845
:100940001A68136823F0010313602368DB6813B18E
:10095000BDE87040184770BD2000002001220368E8
:100960005B0103F1844303F58673191F1A6018684D
:100970000028FCD143F8042C0B68002BFCD17047F5
:100980000146042000F014BD10B50446054B18685C
:10099000A047054B1868A047044B18682346BDE8DC
:1009A00010401847180000201C00002020000020E4
:1009B00010B50446FFF751FF20464FF46021FFF7C2
:1009C00056FF0122236820465B0103F18443C3F8EC
:1009D000502123685B0103F18443C3F80021BDE883
:1009E0001040FFF7BBBF007900F0B0BC38B550F83D
:1009F000313005464C1E2BB1984701232A68A400CC
:100A0000A340536038BD036814200833013900FB4C
:100A100001314A607047000000EBC10340F831200B
:100A200093F90430002B08DB0122591103F01F0356
:100A300002FA03F3014A42F82130704700E100E076
:100A400014220368013902FB01310123490101F13C
:100A50008441C1F80031704714220368013902FB58
:100A600001310023490101F18441C1F8003170478F
:100A70002DE9F04114251C4690464B1E5D43066847
:100A8000FFF7EAFF9DF81C30240244EA8324089B08
:100A900008361C43069B77197451FB60C7F8088021
:100AA000BDE8F081024B01211868FFF79FBF00BF2E
:100AB0005C000020024B02211868FFF797BF00BFBF
:100AC0005C000020024B03211868FFF78FBF00BFB6
:100AD0005C000020024B04211868FFF787BF00BFAD
:100AE0005C000020024B05211868FFF77FBF00BFA4
:100AF0005C000020024B06211868FFF777BF00BF9B
:100B00005C000020024B07211868FFF76FBF00BF91
:100B10005C000020024B01211868FFF767BF00BF8F
:100B200060000020024B02211868FFF75FBF00BF82
:100B300060000020024B03211868FFF757BF00BF79
:100B40006000002010B50D4C636CD80707D52368F2
:100B5000D90404D50A4B04211868FFF747FFA36D99
:100B6000DA0709D52368DB0306D5BDE81040044B3E
:100B700005211868FFF73ABF10BD00BF000402400E
:100B800060000020000000000000000000000000E5
:100B9000012007E0022005E0032003E0042001E03B
:100BA0000520FFE70D4A0121116072B60C4A0021B1
:100BB0001160074902B4084902B486B005498E465F
:100BC000704700BFAFF30080AFF30080AFF3008049
:100BD00000000061F9FFFFFFC52B000814ED00E0E5
:100BE00010E000E010B5084B044653F830204AB13D
:100BF00003EBC003586890470120044BA0405861A4
:100C000000BF00BF10BD00BF6812002000040140FB
:100C10002DE9F8430446884600270D4DD5F8149079
:100C2000444504D96F6100BF00BFBDE8F8830126C9
:100C3000A64019EA060F08D0064BE10053F834200D
:100C40001AB10B445868904737430134E8E700BFB6
:100C500000040140681200200020FFF7C3BF0120FC
:100C6000FFF7C0BF0220FFF7BDBF0320FFF7BABFE9
:100C70000420FFF7B7BF09210520FFF7C9BF0F21E7
:100C80000A20FFF7C5BF0000034A136823F00703DB
:100C900018431060704700BF0020024010B50446A2
:100CA000007900F053FB2079BDE8104000F066BBEE
:100CB00008B50748FFF7F2FF0648FFF7EFFF0648C1
:100CC000FFF7ECFFBDE808400448FFF7E7BF00BFAF
:100CD000D4000020DC000020E4000020EC00002014
:100CE00070B50F250368CE0801F00700840053F8A3
:100CF0002600092A05FA04F520EA050514BF104666
:100D00000820A0402843082A43F8260007D10120E4
:100D1000DA6800FA01F122EA0101D96070BD092AFE
:100D2000FCD10122D86802FA01F10143F5E708B5C8
:100D3000032000F00BFBBDE80840032000F01EBBC1
:100D40000268536823EA0101516070477FB50025AE
:100D5000036804461A6801925A690292914A0395FF
:100D60001268C260426A920600F1D080426862B1A5
:100D700050889588C607029940F19D80C90706D51D
:100D80001288520042F001021A6104B070BD02994B
:100D90008E072DD5012D019A13DC22F48062019279
:100DA0001A60226893690393019B43F400730193D3
:100DB0001360002D33D02268536843F4806353607E
:100DC000E3E7022D0CD142F4006201921A6022681E
:100DD00093690393019B23F4806301931360EAE713
:100DE00042F4806201921A6023689B690393E2E7F0
:100DF00002980299400601F0040133D5002933D14D
:100E0000032D01DC012D24D11869D38891685E1C63
:100E1000D680C8549388013B9380012DB5DCA38B09
:100E2000013B9BB2A383002B6BD04FF48061204623
:100E3000FFF786FF636803F10C026260DB8913F041
:100E4000010F14BF40F2015240F2011223681A60F0
:100E50009BE7AB1E012BE0D84FF480612046FFF7E3
:100E60006FFFDAE7002990D0032D1ED1019921F4FC
:100E7000806101911960236891681869D388022DF7
:100E800003F10106D680C854938803F1FF339380A1
:100E90007FF47BAF236891681869D3885D1CD58087
:100EA000C8549388013B9380B9E7022DE3D101999F
:100EB00041F40071DDE7CE0709D51DB1596841F451
:100EC00080615960138822685B0013615DE70299B5
:100ED000890744BF996903910299029E01F080013C
:100EE000760700F11981002940F02B81002D7FF455
:100EF0004CAF41075FBF019A42F4007201921A6041
:100F00008DE76360022384F823303EE7029A92075C
:100F10004AD59A6985600392039AD6060FD4039A3C
:100F200012F0800F9A6830D010042AD59D68DB68D3
:100F300025F0FE05AD05AD0D03F0FE031D43039B3B
:100F4000606B13F0040326D038B1C3882BB1E36A79
:100F500003B198470022636BDA80236B53B11D8085
:100F60000023226B1D469380A26A0AB1206B904732
:100F7000236BDD802268536843F48063536003234E
:100F8000C1E7DD68C5F34605D9E711049D68F9D5C9
:100F9000C5F30905D3E70028ECD00580626BD38048
:100FA000E8E700BF98220020029AD20615D59B6977
:100FB000406B039338B1C3882BB1E36A03B1984700
:100FC0000022636BDA80019B226843F48063019303
:100FD00011680B431360012395E70298029A00F011
:100FE000040012F0800218BF5A68996918BFC2F352
:100FF00080220391039911F004010DD0216B002987
:101000006DD08B88CD885B1B002A6DD100283FF402
:10101000BCAE8DF802206AE08DF80310029A12F03F
:10102000400214BF59681146626B18BFC1F380219A
:10103000EAB19688D588751BD9B1E8B9002D0EDDC7
:101040001B699168DBB28DF80330D388032D03F15F
:101050000100D0809DF80320CA543FF796AE4FF4AC
:101060008061204604B0BDE87040FFF769BE1546B8
:10107000E2E700283FF489AE032D26D1019A22F43D
:10108000806201921A602368002D1B69DBB28DF823
:10109000033007DD636BDA889868561CDE809DF8A4
:1010A0000330835400293FF470AE2368012D1B697F
:1010B000DBB28DF80330D2DD636BDA889968501C9F
:1010C000D8809DF803308B54C9E7022DDBD1019AFB
:1010D00042F40072D5E7002A3FF457AEBFE74AB3A7
:1010E0008DF802100B4609E000208DF802002BB1AC
:1010F00088686E1CCE80415D8DF802109DF802104C
:101100002068C9B20161002BE5D0002A3FF43DAE52
:10111000012B7FF43AAEA2E799B9002D3FF4E9AE76
:10112000D3889068591CD1802168C35C013D0B6154
:1011300095802AE600283FF428AE8DF80220134659
:10114000DCE7002D3FF4D5AED3889068591CD180E0
:10115000C35C2168012D0B6105F1FF339380D8E753
:1011600013B5036804465A6900929A6901921D4AB0
:101170001268C260009A02F470628260426A92064B
:101180001ED54FF48061FFF7DBFD0268136843F45E
:1011900080631360009B590519D56FF48062036862
:1011A0005A61406B38B1C3882BB1E36A03B19847E9
:1011B0000022636BDA80012384F8233002B010BD73
:1011C000009A520542BF1A6842F400721A60002366
:1011D0002268536122689361FF2384F82330019BC6
:1011E000ECE700BF982200200148FFF7AFBD00BF29
:1011F000F40000200148FFF7A9BD00BF2C0100202A
:101200000148FFF7ADBF00BFF40000200148FFF721
:10121000A7BF00BF2C01002045F25552054B1A60B4
:101220004CF6CC42586099601A604AF6AA221A60BD
:10123000704700BF003000404AF6AA22014B1A60F6
:10124000704700BF003000400028A8BF00F1604098
:101250004FEA0111B8BF054BC9B2B5BF00F00F008E
:1012600000F56140195480F80013704714ED00E058
:1012700010B5002421F0604121F07F01064A0143AE
:10128000916060B20F210134FFF7DEFF3C2CF8D1F2
:10129000F02382F8233010BD00ED00E00449054B37
:1012A000CA6802F4E0621343CB60BFF34F8FFEE7DE
:1012B00000ED00E00400FA05014B13F81000704740
:1012C00060D80108064B5A6822F0030202435A60B4
:1012D00080005A6802F00C028242FAD1704700BFC7
:1012E00000100240030AC2B2012003F1804303F55B
:1012F0000433196890400843186070470121030ABD
:1013000003F1804303F504331A68C0B201FA00F018
:1013100022EA000018607047030A03F1804303F5D6
:1013200004331A680223C0B203FA00F01040704779
:10133000054A0168536823F474130B434168096834
:101340000B435360704700BF0010024010B50446C5
:10135000FFF7B2FF074B53F82020074800EB44008B
:10136000437803EBC20301229B0003F184431A601C
:1013700010BD00BF6401002060D8010810B504460C
:10138000FFF79AFF084B53F82020084800EB440071
:10139000437803EBC20301229B0003F184431A60EC
:1013A00000221A6010BD00BF7C01002060D8010837
:1013B00010B5054A054C536854F8200023EA000391
:1013C0000B43536010BD00BF001002404CD8010811
:1013D00010B50446FFF770FF074B53F8202007486D
:1013E00000EB4400437803EBC20300229B0003F1AF
:1013F00084431A6010BD00BF7001002060D801084E
:1014000001EBC000800000F184400260704710B51D
:1014100004460079FFF79AFF2079BDE81040FFF7F6
:10142000ADBF10B503681868000515D4881881424F
:1014300001D1104610BD9C68A407FCD511F8014BE2
:10144000DC60F4E79C68A407FCD531F8024BDC6053
:1014500010F1FF30F6D2ECE71046F9E70122062141
:101460000068FFF7CDBF002206210068FFF7C8BF64
:1014700010B50C46016803464A6822F0E0024A6053
:1014800002681268624012F4205F01D0FFF7EBFFA0
:101490001A6818461460BDE81040FFF7DFBF134319
:1014A00043F004031943FFF7E3BFF8B51046069C69
:1014B0009DF81C709DF820609DF8245081B10B228E
:1014C00039462046FFF70CFC042231462046FFF740
:1014D00007FC0B2229462046BDE8F840FFF700BC78
:1014E00019460422FFF7FCFB042239462046FFF789
:1014F000F7FB0B2231462046FFF7F2FB0422E9E717
:10150000FEE700000722024B58601A60704700BFD8
:1015100010E000E0044A136801331360034B1B68BA
:1015200003B11847704700BF98220020E81200203E
:1015300011F0010F70B501F1FF340DBF0825002532
:101540006FF0FF016FF47F410068C4F3400418306E
:1015500050F8246013433140AB400B4340F8243033
:1015600070BD38B514460568EB682A6913402342FC
:1015700006D0023150F8213013B1E44398472C6172
:1015800038BD01220021FFF7ECBFF8B50668074619
:10159000F56833691D4015F0400403D0046A0CB1AE
:1015A000A0474024AB0604D5FB6913B1984744F02B
:1015B0002004E4433461F8BDF8B507680646FD68C9
:1015C0003B691D4015F0100403D084690CB1A0479D
:1015D0001024290704D5736913B1984744F008040F
:1015E0006A0704D5336913B1984744F00404AB0784
:1015F00004D5F36813B1984744F00204E4433C6116
:10160000F8BDF8B507680646FD683B691D4015F052
:10161000400403D0046A0CB1A0474024EB0604D573
:10162000B36913B1984744F01004280704D57369CF
:1016300013B1984744F00804690704D5336913B11E
:10164000984744F00404AA0704D5F36813B19847F7
:1016500044F00204EB0704D5B36813B1984744F093
:101660000104E4433C61F8BD02684B1E02F14042B4
:1016700020329B0003EBC20301229B0003F1844351
:101680001A60704710B504460948A0470948A047AA
:101690000948A0470948A0470948A0470948A0476A
:1016A0000948A0472346BDE810400848184700BF36
:1016B000A8010020D0010020F40100201802002021
:1016C0003C020020600200206C0200207802002012
:1016D00010B504460079FFF739FE2079BDE81040C7
:1016E000FFF74CBE0023026813600268D3604279A2
:1016F000012A9CBF02681362704703791E2B10D920
:10170000212B0ED0202B0ED9222B01D0252B04D13A
:1017100002298CBF0020012070474B1E58425841BF
:101720007047012070470020704700008B1C40F874
:101730002320012342798B4010B5DB43EAB1012A13
:1017400041F65F6218BF0122134001220468236141
:10175000036803F140430C3301EBC3039B0003F127
:1017600084431A60427903793ABB072915D8DFE828
:1017700001F007151515151A1A1F41F6FF62E3E768
:101780001A2B0CBF19232C230122590903F01F0324
:1017900002FA03F3254A42F8213010BD1A2B0CBF80
:1017A0001B232E23F0E71A2B0CBF1A232D23EBE764
:1017B0001A2B0CBF18232B23E6E71B3B0C2BECD872
:1017C00001A252F823F000BF29180008FD170008F5
:1017D0000118000805180008091800080D1800086D
:1017E0009B170008111800081518000819180008A0
:1017F0001D18000821180008251800081D23C3E73C
:101800001E23C1E73223BFE73623BDE73723BBE7FB
:101810001823B9E71923B7E71A23B5E72B23B3E752
:101820002C23B1E72D23AFE71C23ADE700E100E057
:101830000022036803F140430C3301EBC3039B0018
:1018400003F1844302311A6040F82120704738B513
:1018500004460D4613460022FFF76AFE294620463D
:10186000BDE83840FFF700BF38B543790546022B85
:101870000C4615D0042A13D8DFE802F003132A2DF2
:101880003A00FFF7D5FF0268631E02F140422032A2
:101890009B0003EBC20300229B0003F184431A6008
:1018A00038BD0022036803F140430C3301EBC3034E
:1018B0009B0003F184431A600823602221462846D6
:1018C000FFF736FE21462846BDE83840FFF7CCBE7C
:1018D00000231022F2E74FF2F11203689A6103220B
:1018E00003689A60036801225B0103F18443D6E731
:1018F0000122BDE83840FFF7AABF0000802207217F
:101900000148FFF72EBE00BFA80100200148FFF7E5
:1019100038BE00BFA80100200148FFF736BE00BF57
:10192000A80100200148FFF747BE00BFA801002022
:101930000148FFF766BE00BFD00100200148FFF755
:1019400060BE00BFF40100200148FFF75ABE00BF8F
:10195000180200200148FFF754BE00BF3C020020DF
:101960000148FFF70EBE00BF600200200148FFF7EC
:1019700008BE00BF6C020020802207210148FFF74B
:10198000F0BD00BF780200200148FFF7FABD00BF9C
:10199000780200200148FFF7F8BD00BF7802002060
:1019A0000148FFF709BE00BF7802002000227F2116
:1019B00010B5436804469A80DA80198100F110015D
:1019C000196083689A80DA803F221A8100F19002C0
:1019D0001A6090F8D000FFF7B9FC94F9D130002BD1
:1019E00008DB0122591103F01F0302FA03F3024A34
:1019F00042F8213010BD00BF00E100E00368DA6862
:101A000042F02C02DA60DA6842F40052DA60704781
:101A100010B5036881688C88CA8892B2A242FAD154
:101A2000DA68910402D51A685206F9D5DA6822F408
:101A30000052DA60426893889BB2D38082689388B0
:101A40009BB2D38010BDF0B50B4606460468B5685E
:101A5000581AAF88ED88ADB2BD4204D125682D0675
:101A600001D5824210D8E36823F08003E3609042FE
:101A7000B3680DD39A88DB889BB293421EBFE3689C
:101A800043F08003E360F0BD13F8010B6060DEE714
:101A9000DD889F880135BD42ECD0DF881D89ADB25D
:101AA000BD4203D19D88ADB2002DE3D0DD8811F891
:101AB00000C01F68ADB207F805C0DF881D8901307E
:101AC000ADB2BD420FBF0025DD880135ADB2DD806E
:101AD000CDE7D36870B59B0609D513689E0606D579
:101AE00013689D0702D41368DC071CD55368D368BC
:101AF000180617D513681B0614D58888CB889BB2A7
:101B000083423BD08B8808689BB2C05C8C880B8971
:101B1000C0B29BB2A3420FBF00238B8801339BB29C
:101B20008B80506070BD5468C38885880133AB4298
:101B3000E4B2056807D0C68803899BB2B3420FD1CF
:101B400083889BB263B983889BB2EB5C86880389E8
:101B50009BB2B3420FBF0023838801339BB28380C3
:101B6000C3889BB2EC54C48803899BB2A3420FBFC5
:101B70000023C38801339BB2C380B8E7D36823F046
:101B80008003D360CEE770B51E4605460846114671
:101B90000422059CFFF7A4F80B229DF81010304694
:101BA000FFF79EF829686302CA6803F4F05322F431
:101BB000F0521204120C1343CB602A6824021369FA
:101BC00004F4405423F440531B041B0C1C431461C5
:101BD00070BD38B50546144611B900F04DF8014600
:101BE00019235943A200B1FBF2F26421B2FBF1F0D8
:101BF00001FB10231B013233B3FBF1F303F00F039E
:101C00002C6843EA00139BB2A36038BD10B50446AC
:101C1000084B1868A047084B1868A047074B18687E
:101C2000A047074B1868A047064B18682346BDE835
:101C300010401847A8020020AC020020B00200208B
:101C4000A0020020A4020020024A03490348FFF733
:101C500040BF00BF004C0040F8120020EC120020F2
:101C6000024A03490348FFF734BF00BF0050004059
:101C7000101300200413002008B590F8D000FFF7DF
:101C80001BFB20B10128034818BF002008BD0248F3
:101C9000FCE700BF00A24A040051250230B548F21B
:101CA0008005094C226822F4804222F070022A4307
:101CB00042402260236823F4E04323F040032B4397
:101CC0004B40236030BD00BF005C0040284B07281C
:101CD00018BF18701A78052A48D8DFE802F00313F5
:101CE0001E232B364FF6FB71224A106C0140116403
:101CF0004FF43F41116406221A701F4B1B685A7B38
:101D00001A7370474FF6FB711A4A106C0140116448
:101D10004FF43F411164042202E002225A70032270
:101D20001A7006E05A78013AD2B25A705A78002AEC
:101D3000F1D070470F490A6C92B242F010020A6467
:101D400005221A700A225A7070475A78013AD2B2A4
:101D50005A705A78002AECD14FF6EF720549086C98
:101D600002400A64044A1268517B11730622D7E7C5
:101D7000A0220020005C0040D80600202DE9F041A0
:101D80005F4D604A2B68546C1B68A4B223405E050B
:101D900006D56FF4806353645B4B1B685B689847A0
:101DA0002A6813682340980442BF6FF40051554BD2
:101DB000596413682340D90406D56FF4C052514BBF
:101DC00000205A64FFF782FF2B681A682240120530
:101DD0000FD54C490A6C92B242F0080042F00C0256
:101DE00008640A641A7B5A7303221A736FF4C05290
:101DF0004A641A682240970542BF6FF40071414A55
:101E000051641B682340DE0506D56FF480723D4B9C
:101E100007205A64FFF75AFF2B681B681C402404F4
:101E200003D5384C676C3B0401D4BDE8F0816FF4F6
:101E3000004317F00F06636438D148F68003D4F8E6
:101E4000008018EA030FECD01FFA88F32F4D304EB4
:101E500003F440524FF4005003F03003202133804C
:101E60002A80FFF71BFFF80623680ED423F4E14312
:101E700023F070031B041B0C236000F09DFD3188D0
:101E80002888BDE8F041FFF709BF18F0800FEDD1B9
:101E900023F070031B051B0D18F4006F236002D0A4
:101EA00000F0A8FBEBE700F005FDE8E7B40004F163
:101EB000804404F5B844276839040DD5236823F01D
:101EC00070031B051B0D23602A6806F1804392688E
:101ED000013B52F8233098473A06A2D5236806F111
:101EE000804623F4E14323F070031B041B0C2360A2
:101EF0002B68013E5B6853F82630984791E700BF96
:101F0000D8060020005C0040A82200209C2200206F
:101F10009E220020800000F1804000F5B840036858
:101F200023F4804323F0700343F4004343F0800321
:101F3000594001607047000018B90722024B1B6826
:101F40001A820248704700BFD022002048070020B4
:101F50000022012110B5104B1B689A720F4B1964B7
:101F60000F4908680260086804681C644FF4E05474
:101F70005A640460086804681C644FF43F445A645F
:101F800004600868006818644FF48010054B1860FE
:101F90000B681A7310BD00BFD0220020005C004007
:101FA000D806002000E100E013B5104B1A68137842
:101FB00003F07F03212B16D1022808D0222801D05C
:101FC000022405E093780A4A03F003031370002407
:101FD000084B1B6823B102A901F8010D02209847A4
:101FE000204602B010BD0224FAE700BFD022002034
:101FF000681300206413002021B901288CBF02203F
:102000000020704702207047054B1B689B78032B0C
:1020100004D8044901EBC30100F0BEBA00207047A8
:10202000D022002030070020014900F0B5BA00BFDF
:10203000EC060020014900F0AFBA00BFF406002012
:1020400037B5114C2268127802F07F02212A02D0A3
:10205000022003B030BDA0F12003012B0B4B0C4D2F
:102060001B6888BF002523B102A901F8010D0220D9
:102070009847002DECD0236800249D615C822046A7
:10208000A8472046E5E700BFD022002064130020C7
:10209000391F00082DE9F04700254FF0C00948F628
:1020A0008F1648F280074FF0400A434B434C1B68A1
:1020B000DFF838819D7283F80990256523682846EA
:1020C000334043F400732360236803EA08033B436F
:1020D00083F010032360226D394B520043F802A0B5
:1020E0008022236D5B0003F1804303F5C0431A6037
:1020F000236823F4E24323F070031B041B0C2360CA
:10210000304B1B6893F82C1000F072F84FF44051DC
:102110002846FFF7FFFEA3682946334043F4C06317
:10212000A360226D284B520013444FF480721A6052
:10213000A268022002EA08023A4382F02002A2606A
:10214000FFF7E8FEE36851463340E360226D1F4B22
:10215000520013444FF4887203201A6000F048F8CC
:102160004FF440510320FFF7D5FE636829461E4017
:102170006660226D164B520043F80290636801209E
:1021800003EA08033B4383F020036360FFF7C2FECA
:102190000122104B28461B681A7300F0EDFBFF224A
:1021A0000D4B1D600D4B1D600D4B1D600D4B1D60DB
:1021B0000D4B1A70BDE8F087D0220020005C004073
:1021C00008600040A82200202060004038600040E5
:1021D00010600040D80600206C130020701300200F
:1021E000781300207C13002074130020BF8FFFFFA2
:1021F0000E4B0F4A1B6D3E2903EBC0004FEA400017
:1022000002440ED94B09C80608BF03F1FF33C1F3DE
:10221000090108BF9BB241F4004141EA83211160EA
:1022200070474B08C80748BF0133F6E7005C004021
:102230000C60004010B5064C18B9012223681A82C0
:1022400010BD044B1B681B68984720680A30F7E7ED
:10225000D0220020CC22002010B5064C18B9012253
:1022600023681A8210BD044B1B689B68984720683E
:102270000C30F7E7D0220020CC22002010B51E4BF6
:102280001C68002310B90223238210BD1B48038061
:102290002178024611F07F0112D1617A8C0644BF89
:1022A00002230370037848064CBF23F0010343F078
:1022B00001031370124B1B681B6998470F48E4E732
:1022C0000129E2D0022915D1217901F00F039B00E9
:1022D00003F1804303F5B84309061B6805D503F0F5
:1022E0003003102BE6D10123E3E703F44053B3F5A9
:1022F000805FF7E71846C8E7D0220020A22200201E
:10230000CC2200202DE9F843234FDFF8A0803D6860
:102310002C8AD4B92E7A042E17D120490B78012BA0
:102320000ED11F4B1A681F4B92B213445B001C6006
:1023300030230C70A8F800303B681E72BDE8F883AB
:1023400010230726A8F80030F6E7AB8A9C4294BF1A
:10235000042602269C4228BF1C46AB6920469847AB
:102360008146002000F0BAFB22460146484600F0B4
:1023700052FB2146002000F0CDFB2B8A4FF4405247
:102380001B1B2B826B8A1C443023A8F80030064BA1
:102390006C821A80D0E700BFD0220020801300207A
:1023A000505C0040023000209C2200209E22002031
:1023B00010B50A4B0A491B6849789A7891420AD3AA
:1023C000D97841B99C8834B99A72064B1B685B680E
:1023D0009847204610BD0220FCE700BFD022002015
:1023E0002C070020CC22002038B50F4A0F4D126870
:1023F0002B6892699978187990472B6804469A7AE5
:102400007AB170B95A7962B9DB7853B9084B1B6855
:10241000DB6898472B681A79DA729A781A73204623
:1024200038BD0224FBE700BFA8220020D0220020F4
:10243000CC22002038B52B4B1B68187810F07F0099
:1024400004D15A7A22F020025A7238BD022847D1AC
:102450005A88002AF9D15A79002AF6D11979224DE1
:1024600021F08000840004F1804404F5B84422681F
:1024700049B22D780029B4BF02F0300202F4405274
:1024800085422DD962B39B7A53B30029236811DAB0
:1024900003F03003102B07D1C4B2204600F00BFB31
:1024A0003021204600F0DFFA104B1B685B6998472B
:1024B0000020CAE703F44053B3F5805FF4D10C4D1C
:1024C00058B90C4B93F82C1000F032FB23682B40CA
:1024D0009BB283F440532360E6E700F0D9FAF5E7B6
:1024E0000220B2E7D02200202C070020CC220020BE
:1024F0008FBFFFFFFC06002038B51B4B1B4D186833
:102500002D78017921F08004A30003F1804303F5C5
:10251000B8431A6849B20029B4BF02F0300202F48D
:102520004052A5421DD94488DCB9D2B1827AC2B1E9
:102530001A680029B5BF22F4E04222F4804222F05A
:10254000400222F07002B5BF92B292B282F0100245
:1025500082F480521A60064B1B689B6998470020E2
:1025600038BD0220FCE700BFD02200202C0700204D
:10257000CC22002008B5064B1A68537A43F020039A
:102580005372044B1B68DB699847002008BD00BFED
:10259000D0220020CC22002010B5054B1C68628A96
:1025A00018B98B889B1A238210BD08681044FBE77A
:1025B000D022002008B50B4B002093F82C1000F01F
:1025C000B7FA094B1B68187A082806D14FF48052D5
:1025D000064B1A801022064B1A80A0F109035842BC
:1025E000584108BDFC060020D02200209C2200207B
:1025F0009E22002073B5964C964E216832680B7A65
:10260000092B16D0944B92B213445B001B885B00DD
:1026100003F1804303F5C0431A780A7059782268A1
:1026200051709988226851801989226891809B890C
:10263000D380012223681A72DA885D78002A64D177
:102640001A7812F07F024DD1092D03D1FFF7B0FEA9
:1026500040BB16E0052D20D193F90220002A07DAAD
:1026600008232268137202B0BDE87040FFF7A2BFD2
:10267000DA78002AF4D19A88002AF1D19B7A002BCB
:10268000EED13268754B92B2134400225B001A609F
:102690003022734B1A800623E3E7032D14D19A7876
:1026A000012A08D06F4B28461B685B6998470328AE
:1026B00028D10923D5E79A88002AF3D15B7A9A06B4
:1026C000F0D5FFF757FFC3E7012DEBD19A78012A28
:1026D000E8D19A88002AE5D15B7A9B06E2D5FFF71C
:1026E000A9FEB5E7012A04D10B2DDBD1FFF77CFE53
:1026F000AEE7022AD6D1012DF1D0032DD2D1FFF7BA
:10270000FBFEA5E70028ABD1BBE7062D12D11A7856
:1027100055065AD1DB78534A012B126802D1D3698E
:10272000DBB952E0022B01D1136AF9E7032B4CD13C
:10273000536AF5E7002D54D15988002945D15A68CC
:1027400022F0FF02B2F5003F3FD11A7812F07F026B
:1027500016D19B88002B38D1434B00252268284690
:1027600055829361984728464FF6FF7123681A8A6D
:102770008A4233D0022801D0002A55D108222EE007
:10278000012A0AD1374A1879126892699047E0B94C
:1027900023689B7A002BDFD117E0022A15D11A7922
:1027A00002F00F018B00100603F180432F4803F560
:1027B000B8431B6800784CBF03F0300303F4405368
:1027C000884202D912F0700FE4D0264B22681B68B1
:1027D00050781B6998470328C6D1236809221A72CA
:1027E00041E7082D04D11B785B06EED1204BB4E7FE
:1027F0000A2DEAD11A7802F07F02012AE5D19A7AED
:10280000002AE2D059880029DFD15A6822F0FF025D
:10281000B2F5803FD9D1134A18791268926990476E
:102820000028D2D1134B98E793F90010002936DA2B
:10283000D9880C4C01910198246882421CD9019AD4
:102840001A8294F82C209A82FFF75CFD0BE700BFF8
:10285000D0220020505C00400430002002300020D4
:102860009E220020A82200207D2200082C070020A4
:1028700035220008592200088A42E2D294F82C003E
:10288000824203D20021094A1170DAE792FBF0F18B
:1028900000FB1122002AD4D1044A0121F4E70322CB
:1028A0001A724FF44052024B1A80DCE6801300206B
:1028B0009C220020F8B52A4E3468237A032B01D0DD
:1028C000052B44D1A369B3B1258AA5B1A28A95424B
:1028D00028BF154628469847238A07465B1B238254
:1028E000638A00202B44638200F006F92A460146E1
:1028F000384600F09FF8238A53B100214FF440522C
:10290000184B08461A8000F005F93022164B1A8041
:10291000228AA18A3368914209D803221A72336845
:102920001B7A32681372BDE8F840FFF743BE0AB164
:102930000522F3E7062119720C4B19680C4B89B27A
:102940000B445B001A603022074B1A80E7E7072B25
:1029500003D1084B1B68DB6898470823E1E700BFF9
:10296000D02200209C2200209E220020505C0040AB
:1029700002300020A8220020002210B50C4B1C7849
:10298000A24204D30B4B40F08000186010BD02F14E
:10299000805303F5B8539B00196821F4E04121F0FE
:1029A00070010904090C114319600132E8E700BF06
:1029B0002C0700204C5C004010B5134C23681A7A99
:1029C000022A01D0042A09D1FFF79CFC23681B7A54
:1029D00022681372BDE81040FFF7ECBD062A10D143
:1029E0005A78052A09D11A78520606D19878FFF745
:1029F000C3FF064B1B681B6A9847054B1B689B6807
:102A000098470823E4E700BFD0220020CC22002012
:102A1000A8220020704701F10051013201F5405118
:102A20005210490002B9704730F8023B013A21F8D0
:102A3000043BF7E701F1005101F54051F0B54900C1
:102A4000540823460D46861E33B9D30744BF11F8F8
:102A5000243000F81430F0BD2F68013B26F8027FC7
:102A60009BB20435F0E7800000F1804000F5B840EB
:102A70000368CA0623F4E04323F040039BB248BF37
:102A800083F010038A0648BF83F020030360704779
:102A9000800000F1804000F5B84003685B0409D570
:102AA000036823F4E04323F070031B041B0C43F47E
:102AB000804303607047800000F1804000F5B8401B
:102AC00003685B0609D5036823F4E04323F0700331
:102AD0001B041B0C43F0400303607047054B1B684D
:102AE0009BB203EBC00000F1005000F540504000E5
:102AF00000887047505C0040044B1B689BB203EB9E
:102B0000C000034B03445B0018887047505C0040D2
:102B100004300020044B1B689BB203EBC000034B46
:102B200003445B0019607047505C00400230002095
:102B30000D4B0E4A1B683E299BB203EBC0000244BA
:102B40004FEA42020AD94B09C80604BF03F1FF331A
:102B50009BB29B0243F40043136070474B08C907C4
:102B600048BF01339B02F7E7505C0040063000206D
:102B700008B5134B03221C6801212046FEF7B0F86C
:102B8000002301211A46B2F5007F0CD072B1B3F5D3
:102B9000007F01D100230A449A420CD90225206803
:102BA00005610133EFE74FF0FF31F0E7B3F5007F48
:102BB0004FF00101EED020684FF40035F0E700BF80
:102BC00048D8010808B5034B0BB100F037F862B6DE
:102BD000FFF7CEFF3D2C0008FDF768BB08B500F0FD
:102BE000FFFD00F0B1FFFCE713F006BA32280BD866
:102BF000064B03EB001043681A68437B343203F141
:102C00008043013B42F82310704700BFE8D401081D
:102C100038B50C460546072104EB042400F02EF8D5
:102C2000A1B22846BDE83840FFF7E0BF00220368A4
:102C30005B0103F18443C3F8002170474FF0FF3379
:102C400010B50A4C0A48C4F88030C4F88430FEF746
:102C500019FD0848FDF798FE0748FEF7D7FF4FF427
:102C6000002323604FF48013236010BD00E100E0D7
:102C7000E51600082D2C0008111A0008322838B576
:102C80003BD8082939D8DFE801F00529171A1D209B
:102C90001723260000240322184B00011D18297B4E
:102CA0001858FEF71DF8686838B3697BCCB1BDE8E9
:102CB00038400122FEF7D8BD00240422ECE70024AE
:102CC0002246E9E700240922E6E700240822E3E798
:102CD00001240B22E0E701240F22DDE70024072274
:102CE000DAE702684B1E02F1404220329B0003EB00
:102CF000C2039B0003F184431C6038BDE8D4010883
:102D000008B501211048FDF753FC02210F48FDF7DB
:102D10004FFC03210E48FDF74BFC04210D48FDF745
:102D200047FC05210C48FDF743FC06210B48FDF745
:102D30003FFC07210A48FDF73BFCBDE8084008219D
:102D40000848FDF735BC00BF84130020881300201D
:102D50008C1300209013002094130020981300205F
:102D60009C130020A0130020322810B50ED8084B69
:102D700000011C181B58B1FA81F11A680123207B4D
:102D800049098340090103FA01F1116110BD00BF37
:102D9000E8D401080A4A0B4B11689B6800BF00BFCA
:102DA00012688A42F6D14820C3F58C3303F5A0732C
:102DB000B3FBF0F34FF47A7000FB0230704700BFB2
:102DC0009822002010E000E038B50446FFF7E2FF4B
:102DD00005465CB1FDF740FDFFF7DCFF401BB0F599
:102DE0007A7FF6D3013C05F57A75F5D138BD28B167
:102DF0000C234343013B18460138FDD870470000BF
:102E00000449054BCA6822F4E0621204120C134311
:102E1000CB60704700ED00E00003FA057047704793
:102E200001207047FFF7D0BF10B5144C2068FDF7A4
:102E300095FD04212068FDF723FD0122104920465D
:102E400010F0C2FB0023A0220E49204610F00AFC1D
:102E50000121204610F02EFC236819684A6842F4CC
:102E600080724A6019688A6842F002028A601A68B1
:102E7000936843F48003936010BD00BFA813002043
:102E800033D90108A6130020242805D1034B044A96
:102E90001B88C3F389031380704700BFA61300206B
:102EA000A4130020044B03EB00135B6813B1C0B202
:102EB000FFF7AEBE704700BFE8D40108FEF7EEB9D9
:102EC000024B1A68024B1A60704700BF18000020BE
:102ED000A813002003468288016892B2885C998812
:102EE0001A89C0B292B28A420FBF00229A88013278
:102EF00092B29A80704738B5C38882880133934272
:102F000004460D4607D0C28803899BB2934214D170
:102F100083889BB28BB92046FFF7DCFFE3882268E9
:102F20009BB2D554E28823899BB293420FBF002302
:102F3000E38801339BB2E38038BD4FF0FF30EDE70B
:102F400070B5164B1A68164B95681C68DE681946F2
:102F500016F0200F19D0A00617D5A1070FD05B6877
:102F600032060BD5230609D5AA88EB880C4C9BB2F8
:102F700093420ED02846FFF7ADFF606070BD5968E0
:102F80005068C9B2FFF7B7FFEAE7200748BF4B68B0
:102F9000E6E7E36823F08003E360EFE7A8020020A0
:102FA0000038014070B5164B1A68164B95681C68BE
:102FB000DE68194616F0200F19D0A00617D5A10714
:102FC0000FD05B6832060BD5230609D5AA88EB889B
:102FD0000C4C9BB293420ED02846FFF77BFF6060FB
:102FE00070BD59685068C9B2FFF785FFEAE720074E
:102FF00048BF4B68E6E7E36823F08003E360EFE750
:10300000AC0200200044004070B5164B1A68164B05
:1030100095681C68DE68194616F0200F19D0A006C6
:1030200017D5A1070FD05B6832060BD5230609D54B
:10303000AA88EB880C4C9BB293420ED02846FFF72F
:1030400049FF606070BD59685068C9B2FFF753FF0F
:10305000EAE7200748BF4B68E6E7E36823F0800310
:10306000E360EFE7B00200200048004038B51749A0
:10307000174D184C0A23092209682846FDF746FA1D
:103080002C601549154D0323022209682846FDF7D7
:103090003DFA2C601249134D1B231A220968284659
:1030A000FDF734FA2C601049104D2B232A220968B1
:1030B0002846FDF72BFA2C600D490E4D32232C22A9
:1030C00009682846FDF722FA2C6038BDA8020020C6
:1030D000AC1300203CD90108AC020020C41300202E
:1030E000B0020020DC130020A0020020F413002016
:1030F000A40200200C14002003689A689107FCD5F4
:103100009A681206FCD47047436823B1417B0022C1
:103110001846FEF7A9BB7047172806D0182806D016
:103120001628044818BF002070470348704703481A
:10313000704700BFAC020208B0020208B4020208E5
:103140002DE9F04F814687B000798A46FFF7E4FF0A
:1031500060B30578174C46782D012B198778360116
:1031600090F8038006EB040B1846059304EB071751
:10317000FFF7CAFF5846FFF7C7FF04EB08183846A9
:10318000FFF7C2FF4046FFF7BFFF98F80C20059BF2
:1031900051461B7B03923A7B484602929BF80C20D7
:1031A0000192325900922A59FEF77FF907B0BDE823
:1031B000F08F00BFE8D4010810B50C46FEF77CF88C
:1031C00090B10228094B88BF002300225B089C4273
:1031D000D0B205D20132072A4FEA5303F7D1104685
:1031E000034B0344187B10BD024BEEE700A24A04D8
:1031F000AC020208005125022DE9F04103460446C5
:103200006C302C4D00221D6001255A731D735A60CD
:10321000C3E9072224339842F3D124224B1E02FB38
:1032200003430229E366DFF8AC80234E39D003293B
:103230003CD0A94201D1214B1C60214B214F1B687E
:10324000216823611879FFF7B7FF3B680225A36166
:1032500003236375D8F80030A06063632575616A45
:103260001879FFF7A9FF3B68E062E363052384F860
:103270003930042384F838303368A16CA365187999
:10328000FFF79AFF104B00221B682065236601237D
:1032900084F85C30E36E84F85D50DA732046BDE854
:1032A000F081D8F800306363084BC5E73368A36545
:1032B000074BC1E700093D008C0100209414002059
:1032C000840100205C000020600000209814002091
:1032D0009C14002088010020C06E037B4268012BF3
:1032E0000CBF0023802342F440721343017A427BD7
:1032F0000069FEF7D4B810B50446C36E1869FEF72E
:1033000086F8E36E01211869FFF71AFF2046FFF7E0
:10331000E3FF0122E36EDA7310BDC36E9960C36EE2
:1033200001F038011B691A68136823F03803194348
:1033300011607047C36E1973C36E1B691A681368F6
:1033400023F0800309B943F0800313607047F8B598
:1033500007460C46C36E04F400645960C36E1869D6
:1033600003681E681D68FEF77EF8FB6E26F4006693
:103370001B6934431B6805F006052C431C60F8BD2F
:10338000C36E5973C36E01F003011B691A68136899
:1033900023F0030319431160704738B515460446FE
:1033A000117BFFF7C7FF697BFFF7EAFF6968FFF74B
:1033B000CEFFE36E29681B691879FFF7FDFE014611
:1033C0002046FFF7AAFFBDE83840FFF794BF7047DB
:1033D000C36E1B691B68D960C36E1869FFF78CBE8A
:1033E00010B5C36E1C692046FEF71BF82046BDE8E9
:1033F0001040FFF781BE08B5FFF7EAFF012008BDC6
:1034000010B51446FFF7ECFFE0B210BD01210148F2
:10341000FFF7F2BE24140020022870B502460D46C4
:1034200039D0052836D100262C4C022223680121F0
:103430005B0103F184431E602046FEF715FA28491C
:103440004FF6FF70B1FBF5F11122814228BF014612
:1034500023685E629A62D8629A69204622F0FF026F
:103460009A6159635B0103F184430121DE611D4AC6
:10347000FEF75CF902213220FDF7E6FE0122236807
:103480005B0103F18443C3F8802223685B0103F1ED
:1034900084431A6070BD0026134C01212368204626
:1034A0005B0103F184431E60FEF7DEF940F2E73270
:1034B00023680E495E62B1FBF5F19A624FF6FF7226
:1034C000914228BF1146DA6220465963084A012119
:1034D000FEF72CF903211C20CEE700BF3C020020A0
:1034E00000093D00050E0108D0010020401901002F
:1034F000F915010802280CD005280CD1074B1B68D0
:103500005B0103F18443D3F88401003018BF01202C
:103510007047034BF3E70020704700BF3C020020D8
:10352000D0010020013807289ABF024B53F8200031
:103530000020704758D90108FDF77EBE40F2712186
:103540000620FDF769BE00000A4A0B4B11689B6814
:1035500000BF00BF12688A42F6D14820C3F58C3301
:1035600003F5A073B3FBF0F34FF47A7000FB023065
:10357000704700BF9822002010E000E0044B1B6859
:10358000B0FBF3F0012838BF01200138FDD17047AE
:1035900054070020044B054A19681268891A1A68F2
:1035A000521A8242FBD37047041000E054070020F7
:1035B0002DE9F0411B4B1C4D1A681C4EC2B901236A
:1035C0002B6072B6FFF7C0FF04464FF47A70FFF726
:1035D000D5FFFFF7B9FF62B6031B482058434FF4ED
:1035E0007A73B0FBF3F0124B28603360BDE8F081D2
:1035F00000201049104F0A6842F080720A6038605B
:103600001A6842F001021A6028603C68D7F800800E
:10361000FFF7C0FF3B681C44A4EB48042C60074B39
:10362000E3E700BF001000E054070020500700202F
:103630007D350008FCED00E0041000E09535000841
:103640007047012070470000054BD3F8D02293F853
:10365000DC124FF4803312688B401361704700BF57
:10366000E8D401080E4AD2F8803092F88C1018681D
:10367000012303FA01F109040161D2F8101108686D
:1036800092F81C1103FA01F109040161D2F8201229
:1036900092F82C22096893401B040B61FFF7D4BFFA
:1036A000E8D40108044BD3F8D02293F8DC120123AC
:1036B00012688B4013617047E8D40108012130B4CF
:1036C000124BD3F88020106893F88C2001FA02F294
:1036D00002610F48027822F001040470D3F810410F
:1036E000256893F81C4101FA04F42C6122F00304CC
:1036F0000470D3F8204293F82C322468994022F0C9
:1037000007022161027030BCFFF7CCBFE8D401088A
:10371000D3190020034B93F90000431E584258412F
:10372000704700BFC4190020034B93F90000831EAB
:1037300058425841704700BFC41900200AF0D6BA59
:1037400038B5054640F2E934013C05D00D4B4AF648
:10375000C0001B689847F7E772B640F2E934013CB5
:1037600005D0084B44F250601B689847F7E70DF00E
:1037700071FE25B1FFF7A2FFFFF7DEFEFCE7FFF7C2
:1037800091FFF9E750070020C1B20148FCF7AFBE36
:10379000AC130020044608B50D4616460DF05AFE3F
:1037A000B4B100F0C7FA204600F0BBFA0A20FFF7D8
:1037B000EBFF08492046002D18BF294605F00AFBFB
:1037C00000F0BEFA044800F0ACFA3046FFF7B8FF4C
:1037D000024CEEE7C8DA0108C3D90108B8DA0108DB
:1037E0002DE9F341674D00224FF4E1312846FCF703
:1037F0009DFE2B69644C93F9D1000121FDF724FD56
:103800002268284602F57A72FFF71BFF18B9236871
:103810009B1A002BFBDB5D4800F083FA5C4A1368BF
:1038200023F0E06343F000731360FFF7E9FA0DF053
:103830007BFBFFF705FFFFF7F3FAC607054602D546
:10384000544800F06EFAA80702D5534800F069FA10
:10385000690702D5514800F064FA2A0702D550489A
:1038600000F05FFAAB0602D54E4800F05AFAFFF7B7
:10387000D6FA4D4800F055FA2020FFF785FF4B4857
:1038800000F04FFA0A20FFF77FFF00F053FA484894
:1038900000F047FA00F04EFA464800F042FA00F015
:1038A00049FA0020FCF7B6FD01260DF10701091ABF
:1038B000414800F057FA414D4FF4A861404800F0EC
:1038C00087FA0A20FFF760FFFFF772FE95F89C1257
:1038D000D5F890020322FDF703FAD5F8903295F857
:1038E0009C221B6806FA02F212041A61D5F8903283
:1038F00095F89C2200251B6806FA02F212041A6150
:10390000304B314F5D6000F015FB05F03FF803F0E0
:1039100022FE2846D4F8008005F01CFA0CF050FB7B
:1039200028462A4D0CF0E6FB2968386810F0D2FBD7
:1039300079682860686810F0CDFBB9686860A8688D
:1039400010F0C8FBA8600AF0BDFB21480DF0E8FEAE
:103950000AF09CF90AF018FA0CF060FFFFF7EEFD90
:10396000334632463146304600F05EFB2068A0EB1D
:10397000080003F0F2FD0322164B1A7002B0BDE8F6
:10398000F08100BFAC1300209822002039F9010813
:1039900004000140E3D90108ECD90108FDD9010870
:1039A0000FDA010820DA0108C1DA010831DA01086A
:1039B0003FDA01087BDA010892DA0108E8D401084D
:1039C000A1DA010894190020001A0020E019002053
:1039D00010220020A514002070B5054603F05AFA05
:1039E00034490C680DB1344B1C60344B1B68ABB1CF
:1039F000314A12681344E31A002B0FDB00F0A0F9E0
:103A00002F4B3048196800F0EFF90A212E48FCF7D7
:103A10006EFD002211461046FFF7BCFE2B4B1B68C3
:103A20003BB12B4A10782B4A127890420BD0224B94
:103A30001C60294D2B68E31A002B03DB64340BF068
:103A40006DFA2C6070BD254A35B91B4809680068BD
:103A50000344CB1A002B02DA00231370E9E7137832
:103A6000002BE6D1012313701D4AD2F8801008689C
:103A700092F88C1003FA01F101611A48017821F0E3
:103A800001050570D2F810512E6892F81C5103FA06
:103A900005F5356121F003050570D2F8205292F842
:103AA0002C222D68934021F007012B610170FFF754
:103AB000F9FDBEE798220020B4140020BC140020B9
:103AC000C814002086D90108AC1300205C07002030
:103AD000891F00208A1F0020A0140020A4140020A9
:103AE000E8D40108D319002008B50020FFF774FFBF
:103AF0000DF086FF104B1B78E3B1FFF78FF901F053
:103B00008BFE09F0A3FB04F065FF0C4B1B788BB90F
:103B10000B4A137973B10B4908681168411A0029DF
:103B200008DB4FF47A7101FB03031360BDE8084022
:103B30000EF072BA08BD00BFA5140020B814002012
:103B4000DC2100209822002008B5FFF7CDFF03F00C
:103B50001DF8BDE808400AF0B1B900000322F8B52D
:103B60000D4C0E4D94F900702270012206462A7009
:103B700010B10B4B1B681E442B7843B126B1084B88
:103B80001B689B1B002B02DAFFF7AEFFF4E7002354
:103B900027702B70F8BD00BFAF140020A6140020C2
:103BA0009822002003681B68184730B5054689B085
:103BB00022B301B3002308A85C1C0344B1FBF2F05C
:103BC00002FB101164B203F8201C234601460028B2
:103BD000F1D1013C64B2631C10D008AB234413F84C
:103BE000201C28460A2934BF302337231944C9B280
:103BF000FFF7D8FFEDE73021FFF7D4FF09B030BD64
:103C00002DE9F84317461E46054600220023384694
:103C100031469DF8204010F097F928B12D21284613
:103C2000FFF7C0FF06F100464FF0000800202A49C8
:103C30005FFA88F39C4207D925A3D3E900230FF04C
:103C400011FF08F10108F3E702460B4638463146FA
:103C50000FF052FD8946804610F0C6F90A2206464A
:103C600001462846FFF7A1FF74B330460FF080FEEF
:103C700002460B46404649460FF03CFD06460F46BD
:103C800028462E21FFF78EFF013CE4B2FF2C1BD00B
:103C9000124B0022304639460FF0E4FE894680463A
:103CA00010F0A2F906460A2201462846FFF77DFFDA
:103CB00030460FF05DFE02460B46404649460FF087
:103CC00019FD06460F46DFE7BDE8F883AFF3008035
:103CD000000000A09999B93F0000E03F0000244097
:103CE00008B5D2B2FFF761FF08BD08B5D2B2FFF741
:103CF0005CFF08BD0A2A70B506460C46154605D17C
:103D0000002903DA4C422D21FFF74CFF2A462146B9
:103D10003046FFF74AFF70BD08B5D2B2FFF7EAFFA1
:103D200008BD10B5044614F9010B10B1FFF72CFDC6
:103D3000F9E710BD0148FFF7F4BF00BFE7DA01085B
:103D40000148FFF7EEBF00BFEDDA0108034A044B5C
:103D5000002814BF10461846FFF7E3BF6BDF0108C9
:103D600027DE010810B50C46FFF7DBFF0A222146CB
:103D70000148FFF7D1FF10BDAC13002010B50C4671
:103D8000FFF7CFFF0A2221460148FFF7B3FF10BD1E
:103D9000AC13002013B50C46FFF7C3FF20460FF00D
:103DA00009FE02230246009302480B46FFF728FF54
:103DB00002B010BDAC13002010B50C46FFF7B1FFE8
:103DC0000A2221460148FFF78BFF10BDAC130020EB
:103DD00010B50C46FFF7A5FF0A2221460148FFF760
:103DE00084FF10BDAC13002010B50C46FFF799FFFF
:103DF000013C14F9011F21B1C9B20248FFF7D2FEFC
:103E0000F7E710BDAC130020F8B5069C07460E4638
:103E1000154613B11846FFF784FF39460A48FFF7E5
:103E2000B9FF31460948FFF7B5FF29460848FFF7B3
:103E3000B1FF24B12046BDE8F840FFF772BF0A2069
:103E4000FFF7A2FCF8BD00BFD3DA0108DADA0108F7
:103E5000E1DA010810B50446322C06D93220323C92
:103E6000FEF7B2FF0DF0CCFDF6E72046FEF7ACFF03
:103E7000BDE810400DF0C4BD38B52B4C0546D4F854
:103E80000431017833B31020FFF70CF8D4F8643113
:103E90006978002B2CD01620FFF704F8D4F8743181
:103EA000A978002B32D01720FEF7FCFF2B786A7818
:103EB0001344AA781344022BCCBF012200221B4BCF
:103EC0001A7006DD1A4B9D421FBF2A881A80AA78F5
:103ED0009A7038BD012300290CBF1021002194F8ED
:103EE0000C219340D4F800218B4012681361CDE778
:103EF000012300290CBF1021002194F86C2193406C
:103F0000D4F860218B4012681361C7E701230029B0
:103F10000CBF1021002194F87C219340D4F870212B
:103F20008B4012681361C1E7E8D40108AE14002089
:103F3000AB14002010B5274CD4F80431B3B10721DD
:103F40001020FEF79BFED4F8643103B3072116203E
:103F5000FEF794FED4F8743153B307211720FEF70F
:103F60008DFEBDE810401C48FFF786BF032294F881
:103F70000C11D4F80001FCF7B3FED4F8003194F82A
:103F80000C111A684FF480338B401361DBE7032276
:103F900094F86C11D4F86001FCF7A2FED4F86031FB
:103FA00094F86C111A684FF480338B401361D1E799
:103FB000032294F87C11D4F87001FCF791FED4F838
:103FC000703194F87C111A684FF480338B40136180
:103FD000C7E700BFE8D40108A814002007B5084BC4
:103FE0001B7853B1002301A8ADF804308DF80630DA
:103FF000FFF742FF03B05DF804FB0248F8E700BF9B
:10400000AE140020AB1400208021054AFF2351701C
:10401000002113709170034A1370537093707047AE
:10402000A8140020AB140020F8B50D4617461E4614
:10403000002800F095805248FFF773FE5820FFF7E4
:10404000A3FB5048FFF76DFE4F480EF052FC0446AC
:10405000002800F083804D48FFF763FE012C7BD0E1
:104060004B484C4B022C18BF1846FFF75AFE0A204B
:10407000FFF78AFB003418BF01240DB34048FFF757
:1040800050FE5920FFF780FB3E48FFF74AFE4248AA
:104090000EF02FFC0546002866D03C48FFF741FE95
:1040A000012D5FD03A483B4B022D18BF1846FFF751
:1040B00038FE002D18BF01340A20FFF765FBE4B27B
:1040C0000FB32F48FFF72DFE5A20FFF75DFB2D4859
:1040D000FFF727FE31480EF00CFC0546002847D0BC
:1040E0002A48FFF71EFE012D40D02948294B022DFA
:1040F00018BF1846FFF715FE002D18BF01340A201F
:10410000FFF742FBE4B206B31D48FFF70AFE452065
:10411000FFF73AFB1B48FFF704FE21480EF0E9FBCE
:10412000054648B31948FFF7FCFD012D22D0184879
:10413000184B022D18BF1846FFF7F3FD002D18BFCE
:1041400001340A20FFF720FBE4B2BCB1BDE8F8401F
:104150000021144804F0D4BD134886E70D4884E7D5
:1041600004468AE71048A2E70A48A0E70E48C1E7DC
:104170000848BFE70C48DFE70648DDE7F8BD00BFA9
:1041800000DB010809DB0108E420002019DB01083D
:10419000FCDA0108F4DA01082C2100207421002047
:1041A0009C20002025DB0108F7DA01084138C3B262
:1041B000192B2FD8184A1068D84010F001002AD0C7
:1041C000164A1748D25C1AB3164B19688B188A56D0
:1041D000A2F13001C9B2092906D92E2A07D15A788D
:1041E000303A092A88BF00230360012070472D2A36
:1041F00001D02B2A0AD193F90110A1F13002D2B2D9
:10420000092AF1D92E2901D19A78E9E70023EBE7B1
:104210000260EAE700207047EC140020CE14002072
:10422000F0140020C814002008B5FFF7BFFF20B12C
:10423000024B1868003018BF012008BDF0140020A0
:10424000034B186818B10A22002114F0B7B970475F
:10425000F01400202DE9F84307200AF009F900289E
:104260005DD00AF021FF0022404B5A70404B1A6883
:10427000404B1A600AF006F8012009F09FFD3E4B02
:104280001B68C3F30066C3F3C055F2B2AA42C3F37E
:10429000406301D19A425ED0EDB2F6B2DCB2522058
:1042A000FFF7C2FF00285ED0344B1868F0B1024619
:1042B000914612F9017B37F0200150D0452F01D0F3
:1042C000652FF5D1002189F80010186814F096F8D0
:1042D000804689F800700021404610F097F928B90F
:1042E00005B95EB10021404609F09EFF15B10020DE
:1042F0000AF08CF916B101200AF088F914B10220F5
:104300000AF084F909F0DEFE09F010FD09F0C4FF9F
:1043100003221B4B1A70BDE8F84309F0BBBE4F20C7
:10432000FFF782FF88B1154B1B6863B1FFF788FF69
:10433000002896DBFFF784FFFF2804DCFFF780FFEF
:1043400010F0FF0F8DD0BDE8F8834F20FFF72EFF50
:10435000002886D0F7E701252E462C469FE714F06B
:104360004DF88046B7E7DFF81C80B9E78C070020DE
:1043700098220020B4140020EC140020F014002037
:10438000810700200000A04038B50D4B1868A8B187
:104390000246154612F9014B34F020010AD0452C93
:1043A00001D0652CF5D100212970186814F026F889
:1043B0002C7038BDBDE8384014F020B80020F8E774
:1043C000F0140020F8B501F091FA071E47DB244EE7
:1043D00044203478FFF728FF054610B3FFF7D4FFD9
:1043E0000021044610F012F928B100243470BDE811
:1043F000F8400AF0B7BD1B4B002143F82740204688
:1044000010F02CF960B14FF07C5120460FF06AFF9C
:1044100001460FF067FF14490FF064FF134B18605B
:104420002C465320FFF700FF98B1114B1B680BB9C6
:104430000124DBE7FFF704FF0028D6DBFFF700FFCE
:10444000FF28F5DCFFF7FCFEC0B2041C18BF0124F6
:10445000CCE75320FFF7AAFE0028C7D0E8E7F8BD55
:10446000CD140020741F0020DB0F4940B40700204A
:10447000F014002038B501F039FA00280FDB0024D1
:10448000074BE5B21857FFF7CFFE28B1FFF77CFFC7
:10449000014628460BF02EFD0134042CF0D138BD26
:1044A0003ADB010838B501F021FA00280FDB0024BF
:1044B000074BE5B21857FFF7B7FE28B1FFF764FFC7
:1044C000014628460BF024FD0134042CF0D138BD00
:1044D0003ADB010810B51E4B1E4A1B681A422ED04B
:1044E0004220FFF7A1FE40B11B4B186818B10A2209
:1044F000002114F01FF9194B18615320FFF794FEA7
:1045000018B1FFF741FF154B18645420FFF78CFEDC
:1045100018B1FFF739FF114B58644A20FFF784FEAA
:1045200068B1FFF731FF0E49044610F08DF838B13D
:104530000C49204610F07EF810B10B4B1C6010BDEA
:10454000FFF7FEFBBDE810400848FFF7EABB00BFDD
:10455000EC14002002020C00F0140020C81F002000
:104560000AD7233C9A99993E901F002051DB0108FD
:1045700010B51D4B1B6813F4682F12D11B4C1C483F
:10458000616BFFF707FCA16B1A48FFF703FCE16BB7
:104590001948FFF7FFFBBDE810400A211748FBF759
:1045A000A6BF5320FFF740FE20B1FFF7EDFE0F4BF3
:1045B0005863D8635020FFF737FE18B1FFF7E4FEC9
:1045C0000A4B58635220FFF72FFE18B1FFF7DCFEAD
:1045D000064B98635420FFF727FE18B1FFF7D4FE6F
:1045E000024BD86310BD00BFEC140020C81F002090
:1045F0003EDB01084EDB0108D0DA0108AC130020D5
:1046000008B54220FFF7D2FD18B1144B1A88144B9D
:104610001A805220FFF7CAFD18B1114B1A880F4BB0
:104620001A805320FFF7C2FD40B10E4B186828B125
:104630000A22002113F0C2FF084B18800A4B1B68A6
:104640005BB9064B0948B3F90010FFF78BFB252037
:10465000FFF79AF80A20FFF797F808BD88070020AF
:104660005A070020F0140020EC14002070DB010831
:1046700038B501F03BF9041E5CDB2F4B2F4D1B6856
:1046800013F4802F17D02E4B2E499A7C002A3BD052
:104690002D4B186883188256A2F13000C0B2092849
:1046A00006D92E2A1FD15A78303A092A88BF00230A
:1046B0000B60086850BBFFF73DFB45212348FBF723
:1046C00016FF04F13001C9B22048FBF710FF35F99D
:1046D00014101F48FFF746FB2520FFF755F80A2066
:1046E000FFF752F826E02D2A01D02B2A0AD193F9A0
:1046F0000100A0F13002D2B2092AD9D92E2801D165
:104700009A78D1E70023D3E70A60D2E70A22002192
:1047100013F054FF00B225F814000FF08FFD0D497F
:104720000FF0E0FD0C4B53F824100FF0DBFD0B4BAA
:1047300043F8240038BD00BFEC140020B00700206F
:10474000CE140020F0140020C8140020AC13002068
:1047500074DB01080AD7233C941F0020B80700200F
:1047600010B54520FFF722FD002837D15020FFF774
:104770001DFD264C10B1FFF707FEE0604920FFF752
:1047800015FD28B1FFF700FE21490FF0ABFD2061B8
:104790004420FFF70BFD28B1FFF7F6FD1C490FF091
:1047A00055FE6061FFF7C6FAE1681A48FFF7F2FAB2
:1047B000206917490FF04AFE01461748FFF7EAFA49
:1047C000606913490FF08EFD01461448FFF7E2FAC5
:1047D000BDE810400A211248FBF789BE114B1B6847
:1047E000002BC3D0FFF72CFD0028BFDBFFF728FD0F
:1047F000FF2804DCFFF724FD10F0FF0FB6D0FFF711
:104800009FFABDE810400848FFF78BBABC21002092
:104810000AD7233E7CDB010880DB010884DB01082A
:10482000AC130020F014002088DB010838B55320B9
:10483000FFF7BCFC054648B1FFF702FD214B00B273
:104840001880B0FA80F0204B400918705020FFF714
:10485000ADFC0446C8B11B4BB3F9003083B11B4B10
:104860001B686BB1FFF7ECFC00280CDBFFF7E8FCE2
:10487000FF2805DCFFF7E4FCC0B2041C18BF0124CC
:10488000114B1C7038BD0024FAE7002DFAD1FFF758
:1048900051FA0F48FFF745FA0B4B0E4A18780E4BAA
:1048A000002814BF10461846FFF73BFA054B0B488B
:1048B000B3F90010FFF756FABDE838400848FFF793
:1048C00030BA00BFC8070020F4210020F0140020F7
:1048D0009EDB010821F201089ADB0108B1DB010827
:1048E000C2DB010810B5B0B1FFF724FA0C4C0D483B
:1048F0006169FFF74FFAA1690B48FFF74BFAE169CD
:104900000A48FFF747FA216A0948FFF743FA0A20E5
:10491000FEF73AFF10BD2020FEF736FFE6E700BFA6
:10492000C81F0020C6DB0108DADA0108E1DA010855
:10493000CDDA01082DE9F04100F0D8FF011E3EDB81
:10494000204B214A1B681A4204D1BDE8F0410120E6
:10495000FFF7C8BF00251D4B5857FFF727FC50B184
:104960001B4B1B683BB1032D1A4C0BD0FFF70CFD02
:1049700004EB850460610135042DECD1BDE8F04104
:104980000BF098BAFFF700FD134906460FF048FEFA
:1049900098B13146206A0FF059FD01468046206BE0
:1049A0000FF0A0FC0D4F2063F8680FF043FC414668
:1049B0000FF098FC0FF082FEF8602662DBE7BDE89E
:1049C000F08100BFEC14002010008003CDDB010853
:1049D000F0140020C81F00200000A041A81F0020E4
:1049E0000023024A1370024A13707047A614002075
:1049F00058070020012200210148FEF7CBBE00BF6E
:104A000078D9010809F0A6BB70B55320FFF7CEFB9B
:104A10001E4D28B15320FFF7C9FB08BB00202870AA
:104A2000FFF788F91A48FFF77CF92B7853B3002475
:104A300023462A78E240D2070BD55E1CF6B213B1AA
:104A40002C20FEF7A1FE134B53F82400FFF769F961
:104A500033460134052CECD10A20FEF795FE70BDDB
:104A60000D4B1B68002BD9D0FFF7EAFB0028D5DBE4
:104A7000FFF7E6FBFF2803DCFFF7E2FBC0B2CEE75F
:104A8000FF20CCE70548FFF74CF9E5E7A714002025
:104A9000D1DB010804DC0108F0140020D8DB010898
:104AA000012009F067B9002009F064B908B51B4B73
:104AB0001B491B68194029D0180209D5194AD2F898
:104AC000801092F88C004FF48032096882400A61AD
:104AD000D90109D5134AD2F8101192F81C014FF4EC
:104AE0008032096882400A619A0109D50D4AD2F8DC
:104AF000201292F82C024FF48032096882400A6139
:104B0000DB060AD5BDE80840FEF79EBD064804F066
:104B1000F7F8BDE80840FEF7A5BD08BDEC1400207D
:104B200010008003E8D4010818DC010838B5484CAF
:104B300025686B0318D5474B474A997C002960D0FC
:104B4000464B186843184156A1F13000C0B20928FD
:104B500006D92E2944D159783039092988BF002334
:104B60001360106800284ED13D4B1D426BD00AF0F7
:104B70009BFA236818020DD53A4AD2F8801092F8B1
:104B80008C000122096882400A6137490A7822F0C4
:104B900001020A70D9010DD5324AD2F8101192F8EB
:104BA0001C010122096882400A612F490A7822F01B
:104BB00002020A709A010DD52A4AD2F8201292F800
:104BC0002C020122096882400A6127490A7822F0F2
:104BD00004020A70DB0632D5BDE83840FEF762BD3C
:104BE0002D2901D02B290AD193F90100A0F1300120
:104BF000C9B20929B4D92E2801D19978ACE700238C
:104C0000AEE71160ADE7194B1968194B19600346FF
:104C10001D4613F9014B34F0200111D0452C01D071
:104C2000652CF5D100212970106813F0E7FB2C707A
:104C300010490FF057FB0FF041FD0F4B186038BDC6
:104C400013F0DCFBF4E7BDE838400AF007BA00BF18
:104C5000EC140020CE140020F0140020C814002012
:104C600010008003E8D40108D31900209822002006
:104C7000B414002000007A445C0700202DE9F74FAF
:104C8000404D414CD5F800B0616858460FF022FA0B
:104C90006E68A168804630460FF01CFAAF68E16884
:104CA000814638460FF016FA2169824658460FF0C1
:104CB00011FA6169054630460FF00CFAA169064603
:104CC00038460FF007FA0746FFF734F82F48FFF78A
:104CD00028F82F4B1B685B0321D52E4B2E499A7C5D
:104CE000002A43D02D4B186883188256A2F1300059
:104CF000C0B2092806D92E2A27D15A78303A092A73
:104D000088BF00230B600B683BB1FFF799FA0028BE
:104D100035DBFFF795FAFF282ADD01202070207887
:104D2000FFF714F81E4B52460093494640461D4B70
:104D3000FFF76AF800233A46009331461A4B28469B
:104D4000FFF762F803B0BDE8F08F2D2A01D02B2ABF
:104D50000AD193F90100A0F13002D2B2092AD1D9C7
:104D60002E2801D19A78C9E70023CBE70A60CAE769
:104D7000FFF766FAC0B2003018BF0120CEE700206E
:104D8000CCE700BF181A00208C07002021DC0108A6
:104D9000EC140020CE140020F0140020C8140020D1
:104DA00088ED010831DC010839DC01080AF07CB922
:104DB00008B50CF04FFB0AF051F908F03FFF002155
:104DC00008460CF0A3FA4FF47A70FFF743F8BDE8F9
:104DD00008400021014803F093BF00BF41DC0108F7
:104DE00038B5284B1B685B0333D5274B274A997C82
:104DF000002940D0264B186843184156A1F13000D5
:104E0000C0B2092806D92E2924D159783039092968
:104E100088BF002313601F4B106819681E4B196070
:104E200070B303461D4613F9014B34F0200124D022
:104E3000452C01D0652CF5D100212970106813F0A4
:104E4000DDFA2C7015490FF04DFA0FF037FC144BBA
:104E5000186038BD2D2901D02B290AD193F9010002
:104E6000A0F13001C9B20929D4D92E2801D19978ED
:104E7000CCE70023CEE71160CDE713F0BFFAE1E7FE
:104E80000020DFE7EC140020CE140020F0140020F6
:104E9000C814002098220020B414002000007A4496
:104EA000BC14002008B51D4B1B685B0304D4002014
:104EB000BDE80840FEF702B8194B1A499A7C52B374
:104EC000194B186883188256A2F13000C0B2092825
:104ED00006D92E2A0ED15A78303A092A88BF0023E3
:104EE0000B6008680028E2D00A22002113F066FB5C
:104EF00000B2DDE72D2A01D02B2A0AD193F9010057
:104F0000A0F13002D2B2092AEAD92E2801D19A782A
:104F1000E2E70023E4E70A60E3E700BFEC140020C7
:104F2000CE140020F0140020C8140020032208B57D
:104F3000124B53201A700022114B1A70FFF736F9EA
:104F4000B0B1104B1B689BB1FFF77AF9002805DA66
:104F5000BDE808404FF0000001F046BEFFF770F9D1
:104F6000FF2804DCFFF76CF910F0FF0FF0D008BD4C
:104F70005320FFF71BF90028EAD0F8E7A51400201A
:104F8000AD180020F0140020034B00211A68034BD9
:104F9000C0B21A600DF010B998220020B41400209D
:104FA0000BF004B808B50BF00BF8BDE80840002082
:104FB0000BF0A0B80BF004B810B55320FFF7F6F8CB
:104FC0000446B8B10F4B1B68A3B1FFF739F90028AD
:104FD00015DBFFF735F9FF2805DCFFF731F9C0B223
:104FE000041C18BF012484F00100C0B2BDE81040C9
:104FF0000BF080B85320FFF7D9F80124F3E7002421
:10500000F1E700BFF014002008B5FFF719F90028F8
:1050100007DBFFF715F9FF2805DCFFF711F9C0B230
:1050200008BD0020FCE7FF20FAE7000037B552205A
:10503000FFF7BCF820B1154B1B6803B3FFF7E4FF83
:1050400005465520FFF7B2F820B1104B1B68C3B1DD
:10505000FFF7DAFF04464220FFF7A8F820B10B4B18
:105060001B6883B1FFF7D0FF8DF8060001A88DF80B
:1050700004508DF80540FEF7FFFE03B030BDFF255C
:10508000DFE7FF24E7E7FF20EEE700BFF014002092
:1050900037B50024012501941F4B1857FFF786F8F8
:1050A00018B10122002501ABE2540134042CF3D1E4
:1050B00045B101238DF804308DF805308DF80630A8
:1050C0008DF807304920FFF771F8F8B1134B1B68D2
:1050D000E3B1FFF7B5F8002805DBFFF7B1F8FF28CB
:1050E0000EDD0BF00FFF9DF807309DF806209DF8B0
:1050F00005109DF8040003B0BDE83040FEF794BFF2
:10510000FFF79EF810F0FF0FEBD1ECE74920FFF717
:105110004DF80028E7D0E4E751DC0108F014002046
:105120002DE9F0415320FFF741F8054600283CD017
:10513000434E326822B1FFF767FF051C18BF0125F7
:1051400000F0D4FB80464920FFF730F818B13468EE
:1051500014B1FFF759FF044600263A4BF7B29857AF
:10516000FFF724F870B1022F15D0032F17D0012FAD
:105170000DD03CB9344885F0010180F84450C9B2E3
:105180000DF0E0F80136042EE7D1BDE8F081002CE7
:10519000F8D12E48EFE7002CF4D12D48EBE7B8F119
:1051A000000FF2DBEED12B48E5E75820FEF7ECFAD2
:1051B0002948FEF7B6FD24480DF0CFF8274D284CBE
:1051C00000280CBF28462046FEF7ABFD0A20FEF75C
:1051D000DBFA5920FEF7D8FA1F48FEF7A2FD1B485C
:1051E0000DF0BBF800280CBF28462046FEF799FDBD
:1051F0000A20FEF7C9FA5A20FEF7C6FA1648FEF74B
:1052000090FD13480DF0A9F800280CBF2846204651
:10521000FEF787FD0A20FEF7B7FA4520FEF7B4FA3D
:105220000D48FEF77EFD0B480DF097F800280CBFE7
:1052300028462046FEF775FD0A20FEF7A5FAA4E7EA
:10524000F014002055DC0108E42000202C2100206F
:10525000742100209C20002071DC010859DC010829
:1052600065DC01082DE9F0414920FEF7DDFF00BBB8
:105270000026002701253A4B5FFA87F8D857FEF73A
:10528000D3FF10B1FEF7DCFF00B284B294B3B8F1E3
:10529000020F20D0B8F1030F21D0B8F1010F16D0C2
:1052A0002EB93048A0F8424021460DF0C7FA00253B
:1052B00020E0FEF7C5FF0028DADBFEF7C1FFFF287C
:1052C00003DCFEF7BDFFC6B2D3E7FF26D1E7002E11
:1052D000EDD12548E6E7002EE9D12448E2E700F0C9
:1052E00005FB051E3ADBE2D121482146A0F84240E9
:1052F0000DF0A4FA0137042FBDD17DB35820FEF77D
:1053000043FA184B1B48B3F84210FEF72BFD0A2056
:10531000FEF73AFA5920FEF737FA134B1548B3F85F
:105320004210FEF71FFD0A20FEF72EFA5A20FEF764
:105330002BFA0E4B0F48B3F84210FEF713FD0A206C
:10534000FEF722FA4520FEF71FFA094B0948B3F889
:105350004210FEF707FD0A20FEF716FABDE8F081BD
:1053600080DC0108E42000202C2100207421002092
:105370009C20002084DC0108084B03281B7804D102
:1053800013F0200205D1D90605D4C34003F0010073
:105390007047012070471046704700BFB0140020CE
:1053A0002DE9F04100245FFA84F808F1580040B27A
:1053B000FEF73AFFA600244D00283AD0FEF7E4FF9E
:1053C00007464046FFF7D8FF68B3204B3846995947
:1053D0000EF080FEA8510134032CE4D14520FEF7E5
:1053E00023FF60B3FEF7D0FF06462046FFF7C4FF59
:1053F00028B1164B3046D9680EF06CFE0646EE60BA
:105400004620FEF711FF60B1FEF7BEFF00210FF04E
:1054100025F930B1FEF7B8FF0D490FF017F80D4B25
:105420001860BDE8F0810C4B384699590EF050FEDB
:10543000D0E7064B53F8243045F82430CBE7034B34
:10544000DB68EB60DCE700BFF0190020E01900200A
:105450000000704284070020181A002038B5054C5F
:105460002568054423685B1B002B02DAFEF73CFB32
:10547000F8E738BD98220020012370B5CB4C0646D2
:1054800094F900502370CA4B93F900304D2B39D05A
:10549000542B00F0B881472B16D1C64B188804282E
:1054A00023D00AD801281AD800F07EFE002E40F042
:1054B0003281C14801F086FB2DE15A281BD007D864
:1054C0001528F3D01C2813D0BC4801F0C5FAEDE72D
:1054D0005B2814D05C28F7D100F03EFAE6E7831E83
:1054E0005842584101F090F8E0E701F05DF9DDE73E
:1054F000FEF7B0FEDAE70022B14B1A70D6E7B04BE8
:105500000F22FAE7AB4B1B88782B00F0308161D873
:10551000682B00F0F8802ED84C2B00F0F18013D8C7
:10552000112B00F0E48004D8012BCDD800F022FD2F
:10553000BCE71F2B00F0DE804B2B00F0DE80122B2F
:10554000C2D1FFF7F3FAB1E7532B00F0018109D87C
:10555000512B00F0F78000F2F8804D2BB4D101F010
:105560001FFDA3E7552B00F0F680EAD35C2BABD1EF
:10557000FFF7E0F99AE76F2B00F0D28013D86B2B7E
:1055800000F0CB8007D8692B00F0C3806A2B9BD139
:1055900001F0A6FD8AE76D2B00F0B98040F2C380D0
:1055A00000F010FB82E7732B00F0D88007D8712B36
:1055B00000F0C28040F2BA8000F0A4FB76E7762BC0
:1055C00000F0CF8000F2D080752B7FF47DAF00F02B
:1055D0001FFD6BE7FA2B00F0F88037D8C92B00F0DD
:1055E000D28018D8912B00F0C88008D8792B00F011
:1055F000C1807A2B7FF468AFFFF74AFD56E79B2BFB
:1056000000F09D80C82B00F0BB80962B7FF45CAF30
:10561000FFF70CFD4AE7CE2B00F0BE800AD8CC2B5A
:1056200000F0B48000F2B580CB2B7FF44DAFFEF7D5
:1056300039FF3BE7DC2B00F0B280DD2B00F0B280BD
:10564000D32B7FF441AFFFF719FB2FE7B3F5FA7FB8
:1056500000F0C78025D840F22F12934200F0BB80A3
:10566000B3F5987F0FD240F22D12934200F0AA803A
:10567000B3F5977F80F0AC80B3F5967F7FF424AFCD
:1056800000F072FD12E7B3F5CD7F52D0B3F5D67FAF
:1056900000F0A480B3F5C87F7FF416AFFFF786FB58
:1056A00004E740F23922934200F0A4800DD8B3F50C
:1056B000FB7F00F09C80C0F0978040F2F71293428D
:1056C0007FF402AFFFF778FCF0E640F2E532934258
:1056D00000F0938040F2E732934200F0918040F274
:1056E0008A3293427FF4F0AEFFF7BCFDDEE6FFF7AF
:1056F000DDF9DBE601F032FCD8E601F04DFCD5E641
:1057000001F04CFCD2E6002001F04CFCCEE601207A
:10571000FAE701F0CFFC257070BD01F015FDC5E67C
:10572000FFF772F9C2E6FFF75BF9BFE6FFF762F930
:10573000BCE6FFF767F9B9E600F084FAB6E601F0D7
:1057400013FDB3E6FFF734FBB0E601F0C1FDADE6B3
:1057500001F0C8FDAAE6FFF743FBA7E600F0F4FA64
:10576000A4E600F0BBFBA1E600F002FC9EE6FFF71A
:1057700097F99BE6FFF797F998E600F057FC95E656
:10578000FEF720FE92E6FEF775FE8FE6FEF7F0FECE
:105790008CE6FEF79FFE89E600F0DAF986E6FEF772
:1057A0002FFF83E6FEF764FF80E600BFAF14002002
:1057B000CC140020E8140020F5140020F41400207C
:1057C000B0140020FEF7CCFF70E600F07BFC6DE625
:1057D000FFF72CF86AE601F027FD67E600F028F9EC
:1057E00064E6FFF7DDFB61E6FFF7DCFB5EE6FFF753
:1057F000E1FB5BE6FFF794FC58E6FFF753FB55E649
:10580000FFF794FB52E6034B93F90000FFF7BCFB54
:105810004CE600BFE814002070B5164B164E1D680C
:10582000164B174C1B78ABB933789BB1154B93F9DA
:1058300000307BB12268AA1A002A11DB013B032B3E
:1058400008D8DFE803F002020E12FEF773FA0E48E2
:10585000FEF767FA4FF47A72337802FB0353236042
:1058600070BDFEF767FA0948F2E7FEF763FA0848E9
:10587000EEE700BF9822002060070020B814002047
:10588000C0140020AF14002096DC0108A8DC010839
:10589000BFDC0108612238B5114B5C7802FB04348F
:1058A000104B03341B78DB0712D5FEF743FA651E55
:1058B00015F9011F21B1C9B20B48FEF773F9F7E7DB
:1058C0000D210948FEF76EF90A210748FEF76AF92B
:1058D000204600F0C1FFBDE838400020FFF7CCBDF6
:1058E000F5140020A7140020AC13002010B554209C
:1058F000FEF79AFC38B3FEF7A3FC00281FDBFEF787
:105900009FFCFF281DDCFEF79BFCC0B244B2002CBC
:1059100013DDFEF70FFA4D20FDF736FF0B4B0A2281
:1059200019880B48FEF7F8F921460A48FEF71AFADB
:105930000A20FDF729FF4FF0FF34204610BD00205C
:10594000E4E7FF20E2E70446F7E700BFE8140020A1
:10595000AC130020D7DC01082DE9F84F00242746BE
:105960002C4B5FFA84F91857FEF720FC804600287C
:105970003ED0294A106800283AD003469A4613F9C7
:10598000016B36F020013DD0452E01D0652EF5D1BA
:1059900000218AF80010106812F030FD05468AF8E0
:1059A0000060032C4FEA840606D01C4B284653F8AF
:1059B00024100EF08DFB0546DFF870A028465AF83B
:1059C00006100EF085FB164983460EF03DFE20B111
:1059D000144958460EF02EFE50B9032C16D0124D25
:1059E0005946A8590EF076FBA851484608F0D6FD56
:1059F0000134042CB4D10FB108F06EFBBDE8F84FB0
:105A000008F048BB12F0FAFC0546CAE7CAF80C5089
:105A10004746EDE7EADC0108F0140020181A0020E0
:105A2000BD3786B5BD3786350C1A0020E019002039
:105A3000F0B5072085B008F041FE002857D1044694
:105A40002C4B01AE53F824502B4B294653F824001D
:105A50000EF03EFB2949074646F824000EF0F4FDFF
:105A600020B1274938460EF0E5FD38B9254BE356FD
:105A7000002BC4BF05F1004546F8245056F82450C9
:105A80001E4928460EF0E0FD10B31D4928460EF0D1
:105A9000D1FDE8B10134032CD2D10199002008F0E6
:105AA00005FE0299012008F001FE0399022008F08A
:105AB000FDFD08F0EFFA0021134803F021F940F250
:105AC0009321642007F002FC40F2BA21642009E02F
:105AD000FEF736F90D48FEF724F90D4803F05AF9A0
