:020000040800F2
:1000000000C00020A5030008910D0008950D000810
:10001000990D00089D0D0008A10D00081915000894
:1000200019150008191500081915000819150008F8
:100030001915000819150008191500082D150008D4
:1000400019150008191500081915000819150008D8
:100050001915000819150008E50D0008050E00081F
:10006000250E0008450E0008650E00083D0C00082E
:10007000550C00086D0C0008890C0008A50C000840
:10008000C10C0008DD0C0008010A00081915000861
:10009000512100081915000819150008850E0008DF
:1000A0006118000885180008A9180008E118000860
:1000B00035190008A5190008151A0008B111000823
:1000C000C9110008BD110008D51100081915000854
:1000D00019150008BD1E00080D1F00085D1F00084F
:1000E000C90E000819150008191500083D1B000865
:1000F000611B0008851B0008BD1B0008590A000889
:100100001915000819150008851A000819150008A6
:10011000AD1F0008FD1F0008F51A0008191B000894
:10012000F90C0008110D0008290D0008450D000804
:1001300010B5054C237833B9044B13B10448AFF321
:1001400000800123237010BD181000200000000063
:10015000A081020808B5034B1BB103490348AFF364
:10016000008008BD000000001C100020A0810208D3
:1001700010B512490A2309220968114800F0EAF96A
:1001800010490323022209680F4800F0E3F90F49E0
:100190001B231A2209680E4800F0DCF90D492B23B5
:1001A0002A2209680C4800F0D5F9BDE810400B4937
:1001B00032232C2209680A4800F0CCB984020020BE
:1001C00034100020880200204C1000208C020020F7
:1001D000641000207C0200207C100020800200209F
:1001E0009410002010B5044600F08CFC034B204610
:1001F000BDE81040197800F0ECBB00BF16000020ED
:10020000F8B50446056801F0EDF9002223685B01AA
:1002100003F184431A6080232B600123AB622A61BF
:10022000EA606B61637973B1012B0FD001222368FF
:100230005B0103F18443C3F8802223685B0103F16F
:1002400084431A60F8BD4FF400436B644FF6FF72AD
:1002500000252368DA626E1CF7B23946204601F0A9
:10026000D7F9E8B148F6FF72236817F0010F03F1E0
:10027000340343F8252014BF6FF0FF026FF47F4270
:1002800023684FEA650503F1180353F8251001EAC6
:10029000020114BF68224FF4D0420A4343F82520DC
:1002A000042E3546D7D1C1E77047000038B5002588
:1002B000264A274C1368022043F01003136000F015
:1002C00025FE002000F0E2FF65602368182023F47B
:1002D0000023236000F0E6FF102000F0E3FF00F0B1
:1002E00043F8A560102000F0D1FF102000F0F7FFC8
:1002F0000028FAD000F039F8164800F0FDFF182069
:1003000000F0C4FF182000F0EAFF0028FAD0022015
:1003100000F0ACFF00214FF0006000F08BFF0E48B2
:1003200001F0FCF800F038F80C4B188800F0D2FB14
:100330000B4800F0D3FB0B4801F02EF900F02EF82B
:1003400000F02DF8FFF7B0FF38BD00BF00200240DD
:10035000001002400C0000203F1901001400002092
:10036000E5010008010200087047002108B50846B1
:1003700001F010F84FF48061012001F00BF800212A
:10038000022001F007F82D2001F014F8BDE8084024
:100390000021032000F0FEBF00F0CCBD704700F04C
:1003A00008BE000001498D460149084700C00020F1
:1003B000B503000808B5114B1A68114B9A4213D1C6
:1003C000104B114A934213D320F0ACFF0022114688
:1003D000104602F057FE0D4B7BB120F03FFD52F866
:1003E000041B043343F8041C09498B42F7D3E7E7A5
:1003F0000022043343F8042CE3E7FEE740DB020865
:100400000000002018100020602B00205D0E020864
:100410001810002010B50D4B1A680AB90C4A1A6062
:100420001A680C49891A814204DB09494442511A6D
:10043000A14207DA20F00CFD0C234FF0FF320360DD
:10044000104610BD10441860FAE700BFAC10002041
:10045000602B0020B0530328002070474FF4005356
:1004600000204B607047012070474FF0FF3070470D
:100470000020704710B50C46FFF7FAFF20700120EE
:1004800010BD704770B515460C468E18B44201D1A8
:10049000284670BD14F8010BFFF7F3FFF6E7FEE7FF
:1004A000C38882889B1AC2888188914282BF028950
:1004B00001329B1898B2704710B50369044658681A
:1004C000FFF7EEFF88B123695B689A88196892B2DA
:1004D000885C99881A89C0B292B28A420FBF002202
:1004E0009A88013292B29A8010BD4FF0FF30FBE73C
:1004F00008B503695868FFF7D3FF08BD03695B6857
:100500009988DA8892B28A421FBF9A881B6892B291
:10051000985C14BFC0B24FF0FF3070470269916819
:100520008888CB889BB28342FAD1126813685B0635
:10053000FCD5704713B504698DF8071001220DF141
:100540000701204601F0AFFB0028F7D0012002B0E0
:1005500010BD000030B54FF0000C4FF47A75C0E9C3
:1005600001C5034D016105600275437530BD00BFD3
:10057000E89602082DE9F74303690446DB688846DC
:100580008B42914625D3067D134D3601AB19477D2D
:10059000586818B10022597B01F0FCF8206901F07D
:1005A00037FB39016A18127BAB19CDF804901B7B1D
:1005B000695800932069AB5901F013FC2069424649
:1005C000002101F035FC206903B0BDE8F04301F0E3
:1005D00045BB03B0BDE8F083B09302080022FFF7EB
:1005E000C9BF0000044B02791B789A4202BF034B3B
:1005F0001B681860704700BFD0100020D410002086
:10060000002310B50446036072B6094B1931197006
:10061000084B1860084800F0BFFF62B6236823B992
:10062000064A4421064802F0EBFC204610BD00BFFC
:10063000D0100020D4100020E5050008049702081F
:100640001697020808B501211048FFF7D9FF0221CB
:100650000F48FFF7D5FF03210E48FFF7D1FF042114
:100660000D48FFF7CDFF05210C48FFF7C9FF062114
:100670000B48FFF7C5FF07210A48FFF7C1FFBDE898
:10068000084008210848FFF7BBBF00BFB01000209A
:10069000B4100020B8100020BC100020C0100020B2
:1006A000C4100020C8100020CC100020F8B5064669
:1006B0000C4615468F18A74206D0336814F8011B64
:1006C0001B6830469847F6E72846F8BD70B50546E2
:1006D0000C4659B1036808469E6821F0DFFE2146AA
:1006E000024633462846BDE870401847084670BDAC
:1006F0000368C9B21B68184703685B68184738B5B8
:100700000D210546FFF7F4FF0A2104462846FFF7AE
:10071000EFFF204438BD38B50546FFF7EDFF04462E
:100720002846FFF7ECFF204438BD2DE97043904682
:10073000994690B058EA090306469DF8585007D1EB
:100740003021FFF7D5FF0125284610B0BDE87083A2
:100750000024404649462A46002316F053FA8046B4
:10076000894601340DEB040303F8012C58EA090310
:10077000EFD10025013C1DF804103046092994BF33
:100780003031373149B2FFF7B3FF0544002CF1D1C6
:10079000DAE72DE9F0411D46002A75F1000307460E
:1007A0001446069E05DA2D21FFF7A2FF644265EB91
:1007B0004505F6B2069622462B463846BDE8F0417E
:1007C000FFF7B3BF07B5CB1700920A46FFF7E1FF6B
:1007D00003B05DF804FB38B50546FFF7F3FF0446A8
:1007E0002846FFF78CFF204438BD07B5CB17009291
:1007F0000A46FFF7CEFF03B05DF804FB37B5CB1711
:1008000000920A460546FFF7C4FF04462846FFF754
:1008100076FF204403B030BD07B5D2B2009200236A
:100820000A46FFF782FF03B05DF804FB37B5D2B28A
:10083000009200230A460546FFF777FF0446284644
:10084000FFF75DFF204403B030BD00000000000052
:100850002DE9F34717461E468246002200233846FC
:10086000314615F0C3FD9DF828504FF00104F8B152
:1008700043A3D3E900233846314615F0ADFD00B956
:100880000446E4B20022002338463146C4B115F0D4
:100890008FFD18B12D215046FFF72AFF04463C4931
:1008A0005046FFF729FF0444204602B0BDE8F08718
:1008B00035A3D3E900233846314615F083FDDEE742
:1008C00015F076FD30B12D215046FFF711FF04469B
:1008D00006F100464FF0000800202E495FFA88F329
:1008E0009D4206D900222C4B15F01AFC08F1010894
:1008F000F4E73A46334615F033F906460F4616F04C
:1009000099F90A230246009380460B4650468946D1
:10091000FFF73FFF0444002DC6D04046494615F07E
:10092000A7FA02460B463046394615F017F9064637
:100930000F4650461949FFF7DFFE0444013DEDB272
:10094000FF2DB1D0144B00223046394615F0BEFAC7
:100950000F46064615F054FD0A22014680465046D1
:10096000FFF730FF0444404615F046FA02460B46B6
:100970003046394615F0F2F806460F46DEE700BF6E
:10098000800350726C92DF43800350726C92DFC31D
:10099000809702080000E03F0000244057B602089C
:1009A0009DF800100091FFF753BF704710B5044643
:1009B000007900F0BDFC2079BDE8104000F0D0BC0B
:1009C000026841F48011936823F460231943916015
:1009D0007047002330B51C461D4603EB4302072B2E
:1009E00001FA02F203F10103D8BF15430A2B44EACE
:1009F0000204F2D10368DD6003681C6130BD0000B1
:100A000070B5144C23681B681D68A90707D51A68C0
:100A100022F002021A6023689B6803B198476A07B4
:100A200009D523681A68136823F004031360236848
:100A30001B6903B19847EB070BD523681A68136845
:100A400023F0010313602368DB6813B1BDE8704035
:100A5000184770BD1C00002070B5144C23681B683B
:100A60001D68A90707D51A6822F002021A602368D8
:100A70009B6803B198476A0709D523681A68136809
:100A800023F00403136023681B6903B19847EB0745
:100A90000BD523681A68136823F0010313602368D9
:100AA000DB6813B1BDE87040184770BD240000201A
:100AB000012203685B0103F1844303F58673191F68
:100AC0001A6018680028FCD143F8042C0B68002B2E
:100AD000FCD170470146042000F05CBC10B5044610
:100AE000054B1868A047054B1868A047044B1868C9
:100AF0002346BDE8104018471C00002020000020BD
:100B00002400002010B50446FFF750FF20464FF4A4
:100B10006021FFF755FF0122236820465B0103F1A6
:100B20008443C3F8502123685B0103F18443C3F875
:100B30000021BDE81040FFF7BBBF007900F0F8BB13
:100B400070B5142401394C430368054608331B591A
:100B50001646DB0704D5074ADC21074802F050FAA5
:100B60002B6808331A5922F4405242EA06321A51CD
:100B700070BD00BF8F970208B597020870B51424A6
:100B800001394C430368054608331B591646DB07F9
:100B900004D5054AEA21054802F032FA29680831ED
:100BA00021444E6070BD00BF8F970208B5970208C0
:100BB00000EBC10340F8312093F90430002B08DB2F
:100BC0000122591103F01F0302FA03F3014A42F80C
:100BD0002130704700E100E014220368013902FB74
:100BE00001310123490101F18441C1F8003170470D
:100BF00014220368013902FB01310023490101F18C
:100C00008441C1F8003170472DE9F04114251C469C
:100C100090464B1E5D430668FFF7EAFF9DF81C30C7
:100C2000240244EA8324089B08361C43069B771958
:100C30007451FB60C7F80880BDE8F08110B5044B23
:100C40001C68A3681BB19847012223685A6010BD35
:100C50006000002010B5044B1C6823691BB1984745
:100C6000102223685A6010BD6000002010B5054BAB
:100C70001C68A36923B198474FF4807223685A60B7
:100C800010BD00BF6000002010B5054B1C68236A32
:100C900023B198474FF4805223685A6010BD00BFBB
:100CA0006000002010B5054B1C68A36A23B198476B
:100CB0004FF4803223685A6010BD00BF60000020EE
:100CC00010B5054B1C68236B23B198474FF4801275
:100CD00023685A6010BD00BF6000002010B5054BAE
:100CE0001C68A36B23B198474FF0807223685A6049
:100CF00010BD00BF6000002010B5044B1C68A36845
:100D00001BB19847012223685A6010BD640000207F
:100D100010B5044B1C6823691BB198471022236847
:100D20005A6010BD6400002010B5054B1C68A36913
:100D300023B198474FF4807223685A6010BD00BFFA
:100D40006400002038B5104C636CD8070BD52368BD
:100D5000D90408D50D4B1D682B6A23B198474FF471
:100D600080522B685A60A36DDA070BD52368DB032A
:100D700008D5064B1C68A36A23B198474FF480320C
:100D800023685A6038BD00BF0004024064000020A0
:100D9000012007E0022005E0032003E0042001E039
:100DA0000520FFE70D4A0121116072B60C4A0021AF
:100DB0001160074902B4084902B486B005498E465D
:100DC000704700BFAFF30080AFF30080AFF3008047
:100DD00000000061F9FFFFFFED2F000814ED00E0B7
:100DE00010E000E008B5054A136833B15068984731
:100DF0000122034B5A6100BF00BF08BDD81000207C
:100E00000004014008B5054A936833B1D06898479B
:100E10000222034B5A6100BF00BF08BDD81000205A
:100E20000004014008B5054A136933B15069984779
:100E30000422034B5A6100BF00BF08BDD810002038
:100E40000004014008B5054A936933B1D069984759
:100E50000822034B5A6100BF00BF08BDD810002014
:100E60000004014008B5054A136A33B1506A984737
:100E70001022034B5A6100BF00BF08BDD8100020EC
:100E8000000401402DE9F041002705240C4DD5F860
:100E900014800126A64018EA060F08D0094BE1008D
:100EA00053F834201AB10B44586890473743013443
:100EB0000A2CEED16F6100BF00BFBDE8F08100BF1A
:100EC00000040140D81000202DE9F04100270A2439
:100ED0000C4DD5F814800126A64018EA060F08D05C
:100EE000094BE10053F834201AB10B44586890477D
:100EF00037430134102CEED16F6100BF00BFBDE855
:100F0000F08100BF00040140D8100020034A13689C
:100F100023F0070318431060704700BF0020024011
:100F200010B50446007900F003FA2079BDE81040BE
:100F300000F016BA08B50748FFF7F2FF0648FFF7BA
:100F4000EFFF0648FFF7ECFFBDE808400448FFF755
:100F5000E7BF00BFD8000020E0000020E80000202C
:100F6000F000002070B50F250368CE0801F00700DF
:100F7000840053F82600092A05FA04F520EA05053D
:100F800014BF10460820A0402843082A43F8260032
:100F900007D10120DA6800FA01F122EA0101D960E3
:100FA00070BD092AFCD10122D86802FA01F101437F
:100FB000F5E708B5032000F0BBF9BDE808400320C1
:100FC00000F0CEB903681A6812F4985FFBD11A6872
:100FD00042F480721A60704703681A6812F4985FCE
:100FE000FBD11A6842F400721A600268136813F4A5
:100FF000985FFBD17047000070B502684668516980
:1010000092695D4AB5781268CB07044605F0010580
:10101000C26014D50023F38000F0E2F82268536820
:1010200043F48063536025B12268136843F48063FE
:10103000136000213388226845EA4303136111F0ED
:101040000A0F10D0B388002D58D0012B0AD1226886
:101050002046136823F480631360A38B012B4AD9C5
:10106000FFF7B0FF002101F08402802A16D1A58B82
:10107000002D5CD0F388B1685A1CF2802268CB5CEA
:101080001361F288B3889A4207D12268536823F427
:1010900080635360A38B013BA383002101F0840292
:1010A000842A0DD1A18B2046002947D0FFF78AFF63
:1010B00022685369D907FCD5002163680C3363604B
:1010C0004B0654D52368B2681969F388581CF08020
:1010D000D154B388F288591E8A423ED122682046F4
:1010E000136823F480631360A38B022B31D9BDE80E
:1010F0007040FFF767BFFFF76FFFB3E7012B08D919
:10110000F388B1685A1CF2802268CB5C13612946CF
:10111000A9E7002BFBD12046FFF75EFF226853684A
:1011200023F400735360022384F823309AE7134AB0
:1011300040F28511124801F063FFAEE7FFF74CFF64
:101140002268536823F400735360022384F8233029
:10115000B6E7BDE87040FFF73FBF9A4207D1A38BC7
:10116000013B9BB2A3831BB9022384F8233070BDDB
:1011700063680C336360FAE7F82A0020029F0208D4
:101180004598020808B50268536903F470638360E8
:101190000023536102689361FFF71EFF02685368E2
:1011A00023F4E0635360FF2380F8233008BD000080
:1011B0000148FFF721BF00BFF80000200148FFF7FA
:1011C0001BBF00BF1C0100200148FFF7DBBF00BFB1
:1011D000F80000200148FFF7D5BF00BF1C01002028
:1011E00010B50446002190F9210000F00FF894F9A1
:1011F00022000021BDE8104000F008B84AF6AA22FB
:10120000014B1A60704700BF003000400028A8BFA3
:1012100000F160404FEA0111B8BF054BC9B2B5BF3C
:1012200000F00F0000F56140195480F8001370477A
:1012300014ED00E010B5002421F0604121F07F01A1
:10124000064A0143916060B20F210134FFF7DEFFCF
:101250003C2CF8D1F02382F8233010BD00ED00E0E3
:10126000014B13F81000704780990208064B5A682A
:1012700022F0030202435A6080005A6802F00C0216
:101280008242FAD1704700BF00100240030AC2B286
:10129000012003F1804303F50433196890400843AB
:1012A000186070470121030A03F1804303F50433FA
:1012B0001A68C0B201FA00F022EA00001860704714
:1012C000030A03F1804303F504331A680123C0B213
:1012D00003FA00F0104214BF184600207047030ABA
:1012E00003F1804303F504331A680223C0B203FA02
:1012F00000F010407047000038B5436805461820DC
:101300001C68FFF7DDFF20B1064A8321064801F083
:1013100077FE064A2968536823F474130B4323436A
:10132000536038BD64990208FA9802080010024020
:1013300010B50446FFF794FF074B53F820200748E9
:1013400000EB4400437803EBC20301229B0003F14E
:1013500084431A6010BD00BF40010020809902083C
:1013600010B50446FFF77CFF084B53F820200848CF
:1013700000EB4400437803EBC20301229B0003F11E
:1013800084431A6000221A6010BD00BF580100207B
:101390008099020810B5054A054C536854F820009E
:1013A00023EA00030B43536010BD00BF001002404E
:1013B000AC98020810B50446FFF752FF074B53F8EC
:1013C0002020074800EB4400437803EBC2030022CF
:1013D0009B0003F184431A6010BD00BF4C01002044
:1013E0008099020801EBC000800000F18440026097
:1013F000704710B504460079FFF79AFF2079BDE8E1
:101400001040FFF7ADBF10B503681868000515D48C
:101410008818814201D1104610BD9C68A407FCD5F4
:1014200011F8014BDC60F4E79C68A407FCD531F8A7
:10143000024BDC6010F1FF30F6D2ECE71046F9E722
:10144000012206210068FFF7CDBF002206210068B7
:10145000FFF7C8BF10B50C46016803464A6822F082
:10146000E0024A6002681268624012F4205F01D014
:10147000FFF7EBFF1A6818461460BDE81040FFF74D
:10148000DFBF134343F004031943FFF7E3BF012217
:10149000006811460430FFF7A5BF00680022012153
:1014A0000430FFF79FBF0068012200210430FFF7DE
:1014B00099BF002203685B0103F18443C3F88020D5
:1014C0007047F8B51046069C9DF81C709DF820608A
:1014D0009DF8245081B10B2239462046FFF742FD8A
:1014E000042231462046FFF73DFD0B2229462046C7
:1014F000BDE8F840FFF736BD19460422FFF732FD7C
:10150000042239462046FFF72DFD0B2231462046A6
:10151000FFF728FD0422E9E7FEE700000722024B5F
:1015200058601A60704700BF10E000E0044A13687A
:1015300001331360034B1B6803B11847704700BFAA
:10154000F82A00205811002011F0010F70B501F1A8
:10155000FF340DBF082500256FF0FF016FF47F41B8
:101560000068C4F34004183050F82460134331403D
:10157000AB400B4340F8243070BD02684B1E02F1B3
:10158000404220329B0003EBC20301229B0003F187
:1015900084431A607047000010B504460948A0470C
:1015A0000948A0470948A0470948A0470948A0475B
:1015B0000948A0470948A0472346BDE8104008480D
:1015C000184700BF84010020AC010020D00100209A
:1015D000F4010020180200203C02002048020020F4
:1015E0005402002010B504460079FFF7A1FE2079CF
:1015F000BDE81040FFF7B4BE002302681360026824
:10160000D3604279012A9CBF0268136270470000D0
:1016100038B54B1E032B0C46057905D90E4A40F20E
:1016200005110E4801F0ECFC1E2D10D9212D0ED015
:10163000202D0ED9222D01D0252D04D1022C8CBFB6
:101640000020012038BD631E58425841FAE70120AE
:10165000F8E70020F6E700BFDC990208FD990208D0
:101660008B1C10B440F82320012342798B40DB43CC
:10167000F2B1012A41F65F6218BF01221340012234
:1016800004682361036803F140430C3301EBC30397
:101690009B0003F184431A6042790379002A2FD119
:1016A000072926D8DFE801F007161616161B1B209F
:1016B00041F6FF62E2E71A2B0CBF19232C2301220B
:1016C000590903F01F0302FA03F3214A42F82130BB
:1016D00010BC70471A2B0CBF1B232E23EFE71A2BCD
:1016E0000CBF1A232D23EAE71A2B0CBF18232B2338
:1016F000E5E74FF4CA71174A174810BC01F080BCE7
:101700001B3B0C2B1CD8DFE803F01F0721090B0D36
:101710001B0F1113151719001D23D0E73223CEE735
:101720003623CCE73723CAE71823C8E71923C6E7CF
:101730001A23C4E72B23C2E72C23C0E72D23BEE7DF
:10174000044A4FF4E271D7E71C23B8E71E23B6E73B
:1017500000E100E0029F0208FD99020800220368F0
:1017600003F140430C3301EBC3039B0003F18443BB
:1017700002311A6040F82120704738B504460D4602
:1017800013460022FFF7E0FE29462046BDE8384018
:10179000FFF7F3BEF8B54D1EEBB2032B04460E4621
:1017A000174604D92B4AD9212B4801F029FC63792B
:1017B000022B04D1294ADC21274801F021FC63795E
:1017C000022B16D0042F14D8DFE807F003142B2EB9
:1017D0003C0031462046FFF7C1FF2368AD0003F10E
:1017E0004043203305EBC3050023AD0005F18445DC
:1017F0002B60F8BD0022236803F140430C3306EB55
:10180000C3039B0003F184431A600823602231461E
:101810002046FFF799FE31462046BDE8F840FFF725
:10182000ACBE00231022F2E74FF2F11223689A6156
:10183000032223689A60012223685B0103F1844339
:101840001A60D6E731462046BDE8F8400122FFF78E
:1018500094BF00BF669A0208FD990208829A0208A6
:1018600010B5074A1468E36821690B401B0606D5CA
:10187000536A23B19847236923F08003236110BD85
:101880008401002010B5074A1468E36821690B4001
:10189000DB0706D5936823B19847236923F001033A
:1018A000236110BD84010020F8B50C4D2F68FE683F
:1018B0003B691E4016F0400403D02C6A0CB1A047CF
:1018C0004024B30604D5EB6913B1984744F02004D3
:1018D0003B6923EA04043C61F8BD00BF8401002099
:1018E000F8B5134D2F68FE683B691E4016F01004D2
:1018F00003D0AC690CB1A0471024310704D56B6943
:1019000013B1984744F00804720704D52B6913B14A
:10191000984744F00404B30704D5EB6813B1984723
:1019200044F002043B6923EA04043C61F8BD00BFB3
:1019300084010020F8B51A4D2F68FE683B691E40EF
:1019400016F0400403D02C6A0CB1A0474024F306E3
:1019500004D5AB6913B1984744F01004300704D59F
:101960006B6913B1984744F00804710704D52B69DB
:1019700013B1984744F00404B20704D5EB6813B1DF
:10198000984744F00204F30704D5AB6813B19847B5
:1019900044F001043B6923EA04043C61F8BD00BF44
:1019A000AC010020F8B51A4D2F68FE683B691E4057
:1019B00016F0400403D02C6A0CB1A0474024F30673
:1019C00004D5AB6913B1984744F01004300704D52F
:1019D0006B6913B1984744F00804710704D52B696B
:1019E00013B1984744F00404B20704D5EB6813B16F
:1019F000984744F00204F30704D5AB6813B1984745
:101A000044F001043B6923EA04043C61F8BD00BFD3
:101A1000D0010020F8B51A4D2F68FE683B691E40C2
:101A200016F0400403D02C6A0CB1A0474024F30602
:101A300004D5AB6913B1984744F01004300704D5BE
:101A40006B6913B1984744F00804710704D52B69FA
:101A500013B1984744F00404B20704D5EB6813B1FE
:101A6000984744F00204F30704D5AB6813B19847D4
:101A700044F001043B6923EA04043C61F8BD00BF63
:101A8000F4010020F8B51A4D2F68FE683B691E402E
:101A900016F0400403D02C6A0CB1A0474024F30692
:101AA00004D5AB6913B1984744F01004300704D54E
:101AB0006B6913B1984744F00804710704D52B698A
:101AC00013B1984744F00404B20704D5EB6813B18E
:101AD000984744F00204F30704D5AB6813B1984764
:101AE00044F001043B6923EA04043C61F8BD00BFF3
:101AF0001802002010B5074A1468E36821690B40FA
:101B0000DB0706D5936823B19847236923F00103C7
:101B1000236110BD3C02002010B5074A1468E36839
:101B200021690B40DB0706D5936823B198472369E9
:101B300023F00103236110BD4802002010B5074ABD
:101B40001468E36821690B401B0606D5536A23B16C
:101B50009847236923F08003236110BD54020020BD
:101B600010B5074A1468E36821690B40DB0706D506
:101B7000936823B19847236923F00103236110BDC3
:101B800054020020F8B50C4D2F68FE683B691E40DA
:101B900016F0400403D02C6A0CB1A0474024B306D1
:101BA00004D5EB6913B1984744F020043B6923EA5C
:101BB00004043C61F8BD00BF54020020F8B5134D89
:101BC0002F68FE683B691E4016F0100403D0AC6914
:101BD0000CB1A0471024310704D56B6913B19847A5
:101BE00044F00804720704D52B6913B1984744F0F8
:101BF0000404B30704D5EB6813B1984744F002041A
:101C00003B6923EA04043C61F8BD00BF5402002094
:101C100000223F2110B50446436810309A801860B6
:101C2000DA801981A3689A80DA8004F15002198160
:101C30001A6094F89000FFF77BFB94F99130002B29
:101C400008DB0122591103F01F0302FA03F3024AD1
:101C500042F8213010BD00BF00E100E00368DA68FF
:101C600042F02C02DA60DA6842F40052DA6070471F
:101C700010B5036881688C88CA8892B2A242FAD1F2
:101C8000DA68910402D51A685206F9D5DA6822F4A6
:101C90000052DA60426893889BB2D380826893884E
:101CA0009BB2D38010BDF0B50B4606460468B568FC
:101CB000581AAF88ED88ADB2BD4204D125682D0613
:101CC00001D5824210D8E36823F08003E36090429C
:101CD000B3680DD39A88DB889BB293421EBFE3683A
:101CE00043F08003E360F0BD13F8010B6060DEE7B2
:101CF000DD889F880135BD42ECD0DF881D89ADB2FB
:101D0000BD4203D19D88ADB2002DE3D0DD8811F82E
:101D100000C01F68ADB207F805C0DF881D8901301B
:101D2000ADB2BD420FBF0025DD880135ADB2DD800B
:101D3000CDE77FB5064600240A23B1FBF3F203FB8F
:101D40001213013401AD2819303300F8013C11465B
:101D5000002AF1D114F1FF3401D204B070BD2B5D23
:101D60008DF8033001220DF103013046FFF79BFF90
:101D70000028F7D0EEE703468288016892B2885CBB
:101D800099881A89C0B292B28A420FBF00229A88FB
:101D9000013292B29A80704738B5C3888288013385
:101DA000934204460D4607D0C28803899BB29342F2
:101DB00014D183889BB28BB92046FFF7DCFFE38800
:101DC00022689BB2D554E28823899BB293420FBF0D
:101DD0000023E38801339BB2E38038BD4FF0FF302E
:101DE000EDE770B51E460546084611460422059CDF
:101DF000FFF7B8F80B229DF810103046FFF7B2F845
:101E000029686302CA6803F4F05322F4F052120402
:101E1000120C1343CB602A682402136904F4405463
:101E200023F440531B041B0C1C43146170BD0000C1
:101E300070B5064615460C4641B900F007F9044650
:101E400020B90D4AAE210D4801F0DAF8192262439B
:101E5000AD006421B2FBF5F2B2FBF1F001FB1023FF
:101E60001B013233B3FBF1F303F00F03346843EA91
:101E700000139BB2A36070BD9B9A0208A79A020848
:101E800010B50446084B1868A047084B1868A047CF
:101E9000074B1868A047074B1868A047064B1868FF
:101EA0002346BDE810401847840200208802002025
:101EB0008C0200207C0200208002002010B5104C13
:101EC000E368980607D52368990604D561680D482C
:101ED000C9B2FFF761FFE3681A060BD523681B063A
:101EE00008D509488288C3889BB2934203D0FFF784
:101EF00042FF606010BDE36823F08003E360F9E710
:101F0000003801408C1100209811002010B5104CB1
:101F1000E368980607D52368990604D561680D48DB
:101F2000C9B2FFF739FFE3681A060BD523681B0611
:101F300008D509488288C3889BB2934203D0FFF733
:101F40001AFF606010BDE36823F08003E360F9E7E7
:101F500000440040A4110020B011002010B5104C26
:101F6000E368980607D52368990604D561680D488B
:101F7000C9B2FFF711FFE3681A060BD523681B06E9
:101F800008D509488288C3889BB2934203D0FFF7E3
:101F9000F2FE606010BDE36823F08003E360F9E7C0
:101FA00000480040BC110020C811002010B5104CA2
:101FB000E368980607D52368990604D561680D483B
:101FC000C9B2FFF7E9FEE3681A060BD523681B06C2
:101FD00008D509488288C3889BB2934203D0FFF793
:101FE000CAFE606010BDE36823F08003E360F9E798
:101FF000004C00405C1100206811002010B5104C0E
:10200000E368980607D52368990604D561680D48EA
:10201000C9B2FFF7C1FEE3681A060BD523681B0699
:1020200008D509488288C3889BB2934203D0FFF742
:10203000A2FE606010BDE36823F08003E360F9E76F
:1020400000500040741100208011002008B590F865
:102050009000FFF705F920B10128034818BF0020C0
:1020600008BD0248FCE700BF00A24A040051250257
:1020700030B548F28005094C226822F4804222F0F3
:1020800070022A4342402260236823F4E04323F095
:1020900040032B434B40236030BD00BF005C004039
:1020A000284B072818BF18701A78052A48D8DFE887
:1020B00002F003131E232B364FF6FB71224A106CDD
:1020C000014011644FF43F41116406221A701F4B06
:1020D0001B685A7B1A7370474FF6FB711A4A106CD3
:1020E000014011644FF43F411164042202E00222D6
:1020F0005A7003221A7006E05A78013AD2B25A7026
:102100005A78002AF1D070470F490A6C92B242F017
:1021100010020A6405221A700A225A7070475A780F
:10212000013AD2B25A705A78002AECD14FF6EF72C7
:102130000549086C02400A64044A1268517B117315
:102140000622D7E7002B0020005C00407405002029
:102150002DE9F041694D6A4A2B68546C1B68A4B2A2
:1021600023405E0506D56FF480635364654B1B689E
:102170005B6898472A6813682340980442BF6FF44D
:1021800000515F4B596413682340D90406D56FF49E
:10219000C0525B4B00205A64FFF782FF2B681A681D
:1021A000224012050FD556490A6C92B242F008003F
:1021B00042F00C0208640A641A7B5A7303221A73F1
:1021C0006FF4C0524A641A682240970542BF6FF408
:1021D00000714B4A51641B682340DE0506D56FF43D
:1021E0008072474B07205A64FFF75AFF2B681B6821
:1021F0001C40240403D5424C676C3B0401D4BDE869
:10220000F0816FF4004317F00F0663644CD148F679
:102210008003D4F8008018EA030FECD01FFA88F38B
:10222000394D3A4E03F440524FF4005003F030035E
:10223000202133802A80FFF71BFFF80608F0800377
:1022400017D42BB9324A4FF4A271324800F0D8FEAD
:102250002B4A136823F4E14323F070031B041B0C87
:10226000136000F0A9FD31882888BDE8F041FFF730
:10227000FFBE43B1236823F4E14323F070031B0442
:102280001B0C2360EDE7236818F4006F23F0700344
:102290004FEA03534FEA1353236002D000F0AAFB26
:1022A000E1E700F007FDDEE7B40004F1804404F547
:1022B000B844276839040DD5236823F070031B0543
:1022C0001B0D23602A6806F180439268013B52F897
:1022D000233098473A068ED5236806F1804623F4CA
:1022E000E14323F070031B041B0C23602B68013EA9
:1022F0005B6853F8263098477DE700BF74050020DF
:10230000005C0040082B0020FC2A0020FE2A002050
:10231000139B0208279B0208800000F1804000F513
:10232000B840036823F4804323F0700343F4004370
:1023300043F08003594001607047000018B907223C
:10234000024B1B681A820248704700BF302B0020E6
:10235000E40500200022012110B5104B1B689A7281
:102360000F4B19640F4908680260086804681C6410
:102370004FF4E0545A640460086804681C644FF425
:102380003F445A6404600868006818644FF4801081
:10239000054B18600B681A7310BD00BF302B00206E
:1023A000005C00407405002000E100E013B5104B14
:1023B0001A68137803F07F03212B16D1022808D066
:1023C000222801D0022405E093780A4A03F003038F
:1023D00013700024084B1B6823B102A901F8010DFA
:1023E00002209847204602B010BD0224FAE700BF41
:1023F000302B0020D8110020D411002021B9012851
:102400008CBF02200020704702207047054B1B68DC
:102410009B78032B04D8044901EBC30100F0BCBA3C
:1024200000207047302B0020CC050020014900F02F
:10243000B3BA00BF88050020014900F0ADBA00BF63
:102440009005002037B5114C2268127802F07F0207
:10245000212A02D0022003B030BDA0F12003012BBD
:102460000B4B0C4D1B6888BF002523B102A901F856
:10247000010D02209847002DECD0236800249D61B7
:102480005C822046A8472046E5E700BF302B0020AD
:10249000D41100203D2300082DE9F04700254FF01E
:1024A000C00948F68F1648F280074FF0400A434BA8
:1024B000434C1B68DFF838819D7283F809902565CD
:1024C00023682846334043F400732360236803EAFB
:1024D00008033B4383F010032360226D394B520005
:1024E00043F802A08022236D5B0003F1804303F5D3
:1024F000C0431A60236823F4E24323F070031B04F3
:102500001B0C2360304B1B6893F82C1000F072F802
:102510004FF440512846FFF7FFFEA3682946334099
:1025200043F4C063A360226D284B520013444FF460
:1025300080721A60A268022002EA08023A4382F01E
:102540002002A260FFF7E8FEE36851463340E360F3
:10255000226D1F4B520013444FF4887203201A60FF
:1025600000F048F84FF440510320FFF7D5FE6368B0
:1025700029461E406660226D164B520043F80290B9
:102580006368012003EA08033B4383F02003636090
:10259000FFF7C2FE0122104B28461B681A7300F099
:1025A000EBFBFF220D4B1D600D4B1D600D4B1D60A5
:1025B0000D4B1D600D4B1A70BDE8F087302B0020CD
:1025C000005C004008600040082B002020600040B4
:1025D000386000401060004074050020DC110020CD
:1025E000E0110020E8110020EC110020E41100208F
:1025F000BF8FFFFF0D4B0E4A1B6D3E2903EBC00042
:102600004FEA400002440AD94B09C80604BF03F14F
:10261000FF339BB29B0243F40043136070474B08A7
:10262000C90748BF01339B02F7E700BF005C0040C9
:102630000C60004010B5064C18B9012223681A82BC
:1026400010BD044B1B681B68984720680A30F7E7E9
:10265000302B00202C2B002010B5064C18B901227D
:1026600023681A8210BD044B1B689B68984720683A
:102670000C30F7E7302B00202C2B002010B51E4B20
:102680001C68002310B90223238210BD1B4803805D
:102690002178024611F07F0112D1617A8C0644BF85
:1026A00002230370037848064CBF23F0010343F074
:1026B00001031370124B1B681B6998470F48E4E72E
:1026C0000129E2D0022915D1217901F00F039B00E5
:1026D00003F1804303F5B84309061B6805D503F0F1
:1026E0003003102BE6D10123E3E703F44053B3F5A5
:1026F000805FF7E71846C8E7302B0020022B002048
:102700002C2B00202DE9F843234FDFF8A0803D68F3
:102710002C8AD4B92E7A042E17D120490B78012B9C
:102720000ED11F4B1A681F4B92B213445B001C6002
:1027300030230C70A8F800303B681E72BDE8F883A7
:1027400010230726A8F80030F6E7AB8A9C4294BF16
:10275000042602269C4228BF1C46AB6920469847A7
:102760008146002000F0B4FB22460146484600F0B6
:1027700052FB2146002000F0C7FB2B8A4FF4405249
:102780001B1B2B826B8A1C443023A8F80030064B9D
:102790006C821A80D0E700BF302B0020F01100209F
:1027A000505C004002300020FC2A0020FE2A00205D
:1027B00010B50A4B0A491B6849789A7891420AD3A6
:1027C000D97841B99C8834B99A72064B1B685B680A
:1027D0009847204610BD0220FCE700BF302B0020A8
:1027E000C80500202C2B002038B50F4A0F4D126869
:1027F0002B6892699978187990472B6804469A7AE1
:102800007AB170B95A7962B9DB7853B9084B1B6851
:10281000DB6898472B681A79DA729A781A7320461F
:1028200038BD0224FBE700BF082B0020302B00201E
:102830002C2B002038B52B4B1B68187810F07F002C
:1028400004D15A7A22F020025A7238BD022847D1A8
:102850005A88002AF9D15A79002AF6D11979224DDD
:1028600021F08000840004F1804404F5B84422681B
:1028700049B22D780029B4BF02F0300202F4405270
:1028800085422DD962B39B7A53B30029236811DAAC
:1028900003F03003102B07D1C4B2204600F004FB34
:1028A0003021204600F0D8FA104B1B685B6998472E
:1028B0000020CAE703F44053B3F5805FF4D10C4D18
:1028C00058B90C4B93F82C1000F02CFB23682B40CC
:1028D0009BB283F440532360E6E700F0D2FAF5E7B9
:1028E0000220B2E7302B0020C80500202C2B00204E
:1028F0008FBFFFFF9805002038B51B4B1B4D186894
:102900002D78017921F08004A30003F1804303F5C1
:10291000B8431A6849B20029B4BF02F0300202F489
:102920004052A5421DD94488DCB9D2B1827AC2B1E5
:102930001A680029B5BF22F4E04222F4804222F056
:10294000400222F07002B5BF92B292B282F0100241
:1029500082F480521A60064B1B689B6998470020DE
:1029600038BD0220FCE700BF302B0020C805002046
:102970002C2B002008B5064B1A68537A43F020032D
:102980005372044B1B68DB699847002008BD00BFE9
:10299000302B00202C2B002010B5054B1C68628AC0
:1029A00018B98B889B1A238210BD08681044FBE776
:1029B000302B002008B50B4B002093F82C1000F0B2
:1029C000B1FA094B1B68187A082806D14FF48052D7
:1029D000064B1A801022064B1A80A0F109035842B8
:1029E000584108BD98050020302B0020FC2A00200B
:1029F000FE2A002073B5964C964E216832680B7AF9
:102A0000092B16D0944B92B213445B001B885B00D9
:102A100003F1804303F5C0431A780A70597822689D
:102A200051709988226851801989226891809B8908
:102A3000D380012223681A72DA885D78002A64D173
:102A40001A7812F07F024DD1092D03D1FFF7B0FEA5
:102A500040BB16E0052D20D193F90220002A07DAA9
:102A600008232268137202B0BDE87040FFF7A2BFCE
:102A7000DA78002AF4D19A88002AF1D19B7A002BC7
:102A8000EED13268754B92B2134400225B001A609B
:102A90003022734B1A800623E3E7032D14D19A7872
:102AA000012A08D06F4B28461B685B6998470328AA
:102AB00028D10923D5E79A88002AF3D15B7A9A06B0
:102AC000F0D5FFF757FFC3E7012DEBD19A78012A24
:102AD000E8D19A88002AE5D15B7A9B06E2D5FFF718
:102AE000A9FEB5E7012A04D10B2DDBD1FFF77CFE4F
:102AF000AEE7022AD6D1012DF1D0032DD2D1FFF7B6
:102B0000FBFEA5E70028ABD1BBE7062D12D11A7852
:102B100055065AD1DB78534A012B126802D1D3698A
:102B2000DBB952E0022B01D1136AF9E7032B4CD138
:102B3000536AF5E7002D54D15988002945D15A68C8
:102B400022F0FF02B2F5003F3FD11A7812F07F0267
:102B500016D19B88002B38D1434B0025226828468C
:102B600055829361984728464FF6FF7123681A8A69
:102B70008A4233D0022801D0002A55D108222EE003
:102B8000012A0AD1374A1879126892699047E0B948
:102B900023689B7A002BDFD117E0022A15D11A791E
:102BA00002F00F018B00100603F180432F4803F55C
:102BB000B8431B6800784CBF03F0300303F4405364
:102BC000884202D912F0700FE4D0264B22681B68AD
:102BD00050781B6998470328C6D1236809221A72C6
:102BE00041E7082D04D11B785B06EED1204BB4E7FA
:102BF0000A2DEAD11A7802F07F02012AE5D19A7AE9
:102C0000002AE2D059880029DFD15A6822F0FF0259
:102C1000B2F5803FD9D1134A18791268926990476A
:102C20000028D2D1134B98E793F90010002936DA27
:102C3000D9880C4C01910198246882421CD9019AD0
:102C40001A8294F82C209A82FFF75CFD0BE700BFF4
:102C5000302B0020505C0040043000200230002067
:102C6000FE2A0020082B00207D260008C805002031
:102C700035260008592600088A42E2D294F82C0032
:102C8000824203D20021094A1170DAE792FBF0F187
:102C900000FB1122002AD4D1044A0121F4E70322C7
:102CA0001A724FF44052024B1A80DCE6F0110020F9
:102CB000FC2A0020F8B52A4E3468237A032B01D071
:102CC000052B44D1A369B3B1258AA5B1A28A954247
:102CD00028BF154628469847238A07465B1B238250
:102CE000638A00202B44638200F000F92A460146E3
:102CF000384600F09FF8238A53B100214FF4405228
:102D0000184B08461A8000F0FFF83022164B1A8044
:102D1000228AA18A3368914209D803221A72336841
:102D20001B7A32681372BDE8F840FFF743BE0AB160
:102D30000522F3E7062119720C4B19680C4B89B276
:102D40000B445B001A603022074B1A80E7E7072B21
:102D500003D1084B1B68DB6898470823E1E700BFF5
:102D6000302B0020FC2A0020FE2A0020505C00406E
:102D700002300020082B0020002210B50C4B1C78DC
:102D8000A24204D30B4B40F08000186010BD02F14A
:102D9000805303F5B8539B00196821F4E04121F0FA
:102DA00070010904090C114319600132E8E700BF02
:102DB000C80500204C5C004010B5134C23681A7AFB
:102DC000022A01D0042A09D1FFF79CFC23681B7A50
:102DD00022681372BDE81040FFF7ECBD062A10D13F
:102DE0005A78052A09D11A78520606D19878FFF741
:102DF000C3FF064B1B681B6A9847054B1B689B6803
:102E000098470823E4E700BF302B00202C2B00203C
:102E1000082B0020704701F10051013201F54051AB
:102E20005210490002B9704730F8023B013A21F8CC
:102E3000043BF7E7002310B501F10051013201F521
:102E40004051521049009A4200D110BD51F8234020
:102E500020F813400133F6E7800000F1804000F5D0
:102E6000B8400368CA0623F4E04323F040039BB252
:102E700048BF83F010038A0648BF83F02003036035
:102E80007047800000F1804000F5B84003685B04A3
:102E900009D5036823F4E04323F070031B041B0CE3
:102EA00043F4804303607047800000F1804000F5E8
:102EB000B84003685B0609D5036823F4E04323F0B8
:102EC00070031B041B0C43F04003036070470000B9
:102ED000054B1B689BB203EBC00000F1005000F5EE
:102EE0004050400000887047505C0040044B1B6815
:102EF0009BB203EBC000034B03445B001888704790
:102F0000505C004004300020044B1B689BB203EB74
:102F1000C000034B03445B0019607047505C0040E5
:102F2000023000200D4B0E4A1B683E299BB203EB7A
:102F3000C00002444FEA42020AD94B09C80604BF46
:102F400003F1FF339BB29B0243F4004313607047CD
:102F50004B08C90748BF01339B02F7E7505C0040AC
:102F60000630002013B504468DF8071001220DF13C
:102F700007012046FEF797FE0028F7D002B010BDEB
:102F800038B505464C1E14F9011F01B938BDC9B248
:102F90002846FFF7E7FFF6E708B5134B03221C6846
:102FA00001212046FDF7DEFF002301211A46B2F57C
:102FB000007F0CD072B1B3F5007F01D100230A4429
:102FC0009A420CD90225206805610133EFE74FF0E2
:102FD000FF31F0E7B3F5007F4FF00101EED020683C
:102FE0004FF40035F0E700BF2498020808B5034B02
:102FF0000BB100F083F862B6FFF7CEFFFD3000089A
:10300000F8B5144B06460D4617460BB300F096F87C
:1030100004461149FFF7B4FF39462046FFF7B0FFD9
:103020000E492046FFF7ACFF31462046FFF7A8FFC8
:103030000B492046FFF7A4FF29462046FEF779FEFC
:103040000A212046FFF78EFF0D212046FFF78AFF59
:10305000FFF7CCFF3D310008119C0208279C0208B5
:10306000289C020808B5044B23B100F067F8034917
:10307000FFF786FFFFF7BAFF3D3100082B9C0208DF
:10308000FDF714B908B500F0B1FC00F06BFDFCE7EA
:103090001EF08EB9322870B50E4612D8094B03EBDC
:1030A00000104568447B05B124B9074A2F21074821
:1030B000FFF7A6FF2A6804F180433432013B42F84F
:1030C000236070BDB0930208509C0208629C020805
:1030D00038B50C460546072104EB042400F050F8EF
:1030E000A1B22846BDE83840FFF7D4BF00220368EC
:1030F0005B0103F18443C3F8002170474FF0FF33B5
:1031000010B50A4C0A48C4F88030C4F88430FEF781
:1031100043FA0848FDF7E2FC0748FEF7B1FE4FF41A
:10312000002323604FF48013236010BD00E100E012
:10313000F9150008ED300008711C000810B5094BA6
:10314000094C18680B220221FDF70CFF2068FEF7DE
:103150005FFD20684FF416520021FEF769FE2068DB
:1031600010BD00BF2098020888020020034A13689F
:1031700023F0E06343F000731360704704000140E4
:10318000322838B542D8082927D8DFE801F02D3099
:1031900005171A1D05202300002404221C4B0001E2
:1031A0001D18297B1858FDF7DDFE686870B3697B30
:1031B00004B3BDE838400122FEF7ECBA00242246F1
:1031C000ECE700240922E9E700240822E6E70124CD
:1031D0000B22E3E701240F22E0E70E4A4C21BDE871
:1031E00038400D48FFF70CBF00240322D6E7002427
:1031F0000722D3E702684B1E02F1404220329B00B7
:1032000003EBC2039B0003F184431C6038BD00BF85
:10321000B0930208029F0208C29C020808B501216F
:103220001048FDF7EDF902210F48FDF7E9F90321F8
:103230000E48FDF7E5F904210D48FDF7E1F90521F8
:103240000C48FDF7DDF906210B48FDF7D9F90721F8
:103250000A48FDF7D5F9BDE8084008210848FDF700
:10326000CFB900BFF4110020F8110020FC1100209C
:103270000012002004120020081200200C1200206E
:103280001012002032280DD8074B000119181B58C6
:10329000097B1B689A6801238B40134214BF0120ED
:1032A0000020704700207047B0930208322810B504
:1032B0000ED8084B00011C181B58B1FA81F11A688E
:1032C0000123207B49098340090103FA01F11161BF
:1032D00010BD00BFB09302080A4A0B4B11689B68EF
:1032E00000BF00BF12688A42F6D14820C3F58C3374
:1032F00003F5A073B3FBF0F34FF47A7000FB0230D8
:10330000704700BFF82A002010E000E038B50446FE
:10331000FFF7E2FF05465CB1FDF747FBFFF7DCFF77
:10332000401BB0F57A7FF6D3013C05F57A75F5D1EF
:1033300038BD28B10C234343013B18460138FDD862
:10334000704700000449054BCA6822F4E062120489
:10335000120C1343CB60704700ED00E00003FA0548
:10336000704701207047FFF7D1BF000013B5104C24
:10337000204612F0B4FB2046042112F04AFB2046FE
:1033800002220C4912F048FB002302220A49009352
:103390002046A02312F0A6FB204612F099FB2046FF
:1033A00012F088FB204602B0BDE8104012F089BB45
:1033B0001C120020EB0500201612002024280AD041
:1033C000252807D10123054A32F81330044AC3F3F4
:1033D0008903138070470023F5E700BF1612002011
:1033E00014120020024B0348196812F010BB00BFF2
:1033F0001C0000201C12002010B50B4C032294F876
:103400004C10206CFDF7AEFD0122236C196894F876
:103410004C3002FA03F31B040B61236C94F84C103C
:103420001B688A401A6110BDB0930208002301385E
:10343000C0B2052888BF1A4630B498BF0C4A8AB07B
:1034400098BF125C0B4C019201228DF811308DF85F
:103450001020029301ADCDE908330FCD0FC40FCD7D
:103460000FC42B68044823600AB030BC11F0B5BA11
:10347000389D020850120020042A002070B5114D1A
:1034800092B009AC0FCD0FC40FCD0FC42B680BAD9C
:1034900023606C460FCD0FC40B4E09AB95E80700B7
:1034A00084E807000CCB3046042111F0E8FAFF2134
:1034B000304611F021FB0446304611F000FB204657
:1034C00012B070BD50120020042A00202DE9F041F6
:1034D000124D92B009AC074688460FCD0FC40FCDF0
:1034E0000FC42B680BAD23606C460FCD0FC40C4E80
:1034F00009AB95E8070084E807000CCB30460421AF
:1035000011F0BDFA43463A460021304611F0B2FBB5
:10351000304612B0BDE8F04111F0D1BA501200208F
:10352000042A0020F0B5114D93B009AC07460FCD29
:103530000FC40FCD0FC42B680BAD23606C460FCDAD
:103540000FC40B4E09AB95E8070084E807000CCBCD
:103550003046042111F093FA3946304611F016FC3A
:10356000304613B0BDE8F04011F0A9BA5012002067
:10357000042A00202DE9F041154D92B009AC804697
:103580000F460FCD0FC40FCD0FC42B680BAD2360BA
:103590006C460FCD0FC40F4E09AB95E8070084E8C9
:1035A00007000CCB3046042111F069FA4146304641
:1035B00011F0ECFB01234FF400723946304611F054
:1035C000D9FB304612B0BDE8F04111F078BA00BF27
:1035D00050120020042A002000230121074A084835
:1035E000C2E907331060117353735360054AC2E98F
:1035F00007331060117353735360704750120020EB
:1036000000093D002C120020022838B505462CD0B8
:10361000052829D10020244C23685B0103F1844351
:1036200018601123226850629362204B4FF6FF709E
:10363000B3FBF1F1814228BF0146D06251632046BD
:1036400001211B4AFEF70CF801213220FDF7DEFDB7
:10365000012223685B0103F18443C3F880222368BD
:103660005B0103F184431A6038BD0020114C2368CC
:103670005B0103F18443186040F2E7332268506233
:1036800093620D4B4FF6FF70B3FBF1F1814228BFFF
:103690000146D062516320460121084AFDF7E0FF50
:1036A00029461C20D2E700BF1802002000093D0077
:1036B000B10D0108AC01002040190100ED1D010809
:1036C00002280CD005280CD1074B1B685B0103F1C5
:1036D0008443D3F88401003018BF01207047034BA6
:1036E000F3E70020704700BF18020020AC01002063
:1036F000013807289ABF024B53F82000002070477A
:10370000409D0208FDF77ABD70470368C9B21B6887
:103710001847000037B50546002409490122214415
:103720000DF107001EF06CF99DF90730AB4202D194
:10373000012003B030BD0134162CEED10020F8E793
:10374000B09E020808B500F055FABDE808400148EF
:1037500000F03EBA9A9D020808B50CF0DFF80CF0B4
:103760004BF9FE200BF082FABDE808400BF05CBA82
:10377000104BD3F8802093F88C101068012202FAC5
:1037800001F10161D3F81011086893F81C1102FAD5
:1037900001F10161D3F82012086893F82C1202FAA3
:1037A00001F10161D3F8D01293F8DC3209689A4034
:1037B0000A617047B0930208054BD3F8D02293F802
:1037C000DC124FF4803312688B401361704700BFE6
:1037D000B093020830B4154A154CD2F8803092F8F4
:1037E0008C101868012303FA01F1090401612178A2
:1037F00021F001002070D2F81001056892F81C0138
:1038000003FA00F00004286121F003002070D2F8D0
:10381000200292F82C22006893401B04036121F0DF
:103820000701217030BCFFF7C7BF00BFB09302088B
:103830005717002008B540F2E933013B08D000BF1C
:1038400000BF00BF42F62F22013A00BFFCD1F4E7CF
:1038500072B640F2E933013B08D000BF00BF00BFA1
:1038600041F29312013A00BFFCD1F4E70EF068F97F
:10387000FFF748FFFCE70000044608B50EF060F9CA
:1038800000F0B8F9054800F0A3F90548002C18BF6E
:1038900020460AF0B1FBFFF7CDFF00BFB29D020842
:1038A000A99D020870B5384B05461B78032B01D83B
:1038B00003F0A4FD354B364A1B6814689BB13549AB
:1038C00009680B44E31A002B0DDB00F093F9324B2F
:1038D0003248196800F094F90A213148FFF715FFC2
:1038E0000020FFF7C9FF2F4B1B6843B12E49087812
:1038F0002E49097888420CD01268264B1A602C4D4C
:103900002B68E31A002B03DB64340BF09FFF2C6061
:1039100070BD284A002D33D11E4909680B44E31AB3
:10392000002B2DDB1378002BE9D101231370224AE1
:10393000224DD2F88010086892F88C1003FA01F139
:1039400009040161297821F001002870D2F81001E2
:10395000066892F81C0103FA00F00004306121F0BF
:1039600003002870D2F8200292F82C2200689340BD
:103970001B0421F0070103612970FFF71DFFBEE75B
:1039800000231370BBE700BFCE1400207C12002080
:10399000F82A0020A4120020B4120020609D020822
:1039A00034100020F0050020151D0020161D0020F9
:1039B0007412002078120020B093020857170020DC
:1039C00008B50AF063F902F0CDF90020FFF76AFFAD
:1039D0000DF07CFF0AF0C8FB034B1B781BB9BDE858
:1039E00008400EF0C3BC08BD8012002037B5FFF7B9
:1039F000A9FCFFF7BBFB4FF4E1314648FCF7EEFDB5
:103A0000454B46481B6800F0E3F800F0EDF8FFF77F
:103A1000A8FCC507044602D5414800F0D9F8A00724
:103A200002D5404800F0D4F8610702D53E4800F0C6
:103A3000CFF8220702D53D4800F0CAF8A30602D508
:103A40003B4800F0C5F8FFF78BFC3A4800F0C0F89F
:103A500020213048FFF759FE374800F0B9F80A2115
:103A60002C48FFF752FE00F0BFF8344800F0B0F8E1
:103A7000334800F0ADF8334800F0AAF800F0B4F88D
:103A8000314800F0A5F800F0AFF80020FCF7C2FCC8
:103A90000DF10701091A2D4800F0BEF84FF4A86196
:103AA0002B482C4C00F0B8F82B4D0A211948FFF791
:103AB0002CFE03F07FF90AF03DF80AF0A9FA04F0B1
:103AC00013FF0AF079FC00200AF01AFD296820682B
:103AD00012F034FD69682060606812F02FFDA9685B
:103AE0006060A06812F02AFDA0600BF09DF81B48F2
:103AF0000DF088FD0AF0D6FB0AF00AFF0DF0ECF994
:103B000000F044FEFFF700FE154800F0E7FC03B0AC
:103B100030BD00BF34100020F82A00209BBC0208F2
:103B2000D29D0208DB9D0208EC9D0208FE9D020862
:103B30000F9E0208209E0208279E0208359E02085A
:103B4000459E0208509E0208739E02088A9E020843
:103B5000999E02086417002084170020B01E0020E0
:103B60009812002008B510F051FD124B1B789B06EF
:103B700010D510F047F803F027F9FFF7EDFD0AF034
:103B800069FB0DF0DDFF002108460DF091FB0022DE
:103B9000094B1A70094B1B78032B01D803F02EFC3C
:103BA00003F088FA0AF0AAFFFFF70AFF044800F0C2
:103BB000D9FCD8E7E4220020F4050020CE14002030
:103BC0009812002001480FF06DBE00BF791200204E
:103BD00010B5044614F9011B19B10248FFF795FD11
:103BE000F8E710BD341000200148FFF7F1BF00BF17
:103BF000CD9E02080148FFF7EBBF00BFC69E02083A
:103C000010B50C46FFF7E4FF2146BDE8104001481F
:103C1000FCF772BD3410002010B50C46FFF7D8FF3A
:103C20002146BDE810400A220148FCF7CBBD00BF89
:103C30003410002010B50C46FFF7CAFF2146BDE83E
:103C400010400A220148FCF7D0BD00BF341000200C
:103C500013B50C46FFF7BCFF204612F0DFF8022335
:103C60000246009302480B46FCF79AFE02B010BDD4
:103C70003410002010B50C46FFF7AAFF2146BDE81E
:103C800010400A220148FCF7C7BD00BF34100020D5
:103C9000034A044B002814BF10461846FFF798BF8C
:103CA0004EA202085AA1020810B50446322C06D9C9
:103CB0003220323CFFF72AFB0DF008FEF6E72046E3
:103CC000FFF724FBBDE810400DF000BE642358430D
:103CD000FF237F3090FBF3F0642814BF20233123AF
:103CE0000928C1B2C8BF0A2010B5C8BFB1FBF0F4A3
:103CF0000B4AD370CABFB4FBF0F3202300FB13437D
:103D00004FF00A00C4BF30335BB21371B1FBF0F364
:103D100000FB13133033537125239371014810BDF9
:103D20008312002086120020632881BF6423B0FB29
:103D3000F3F330335BB298BF2023092888BF0A21F0
:103D400010B588BFB0FBF1F40A4A13718ABFB4FB07
:103D5000F1F3202301FB13434FF00A0184BF3033FA
:103D60005BB25371B0FBF1F301FB13003030907183
:103D7000014810BD8312002087120020002810B5D2
:103D800026DB632827DD64230A2190FBF3F292FBF4
:103D9000F1F301FB132330335BB20928C4BF0A21BE
:103DA00090FBF1F40D4A1371CABF94FBF1F3202389
:103DB00001FB13434FF00A01C4BF30335BB25371B0
:103DC00090FBF1F301FB130030309071044810BDFB
:103DD00040422D23E1E72023DFE700BF83120020CC
:103DE00087120020002810B502462F4B19DA12F175
:103DF000630FC0F1000046DA2D22DA7064220A2136
:103E000090FBF2F494FBF1F201FB124290FBF1F40F
:103E100030321A7194FBF1F201FB124230325A71C6
:103E20001EE0B0F57A7F2CDB4FF47A710A2290FB0A
:103E3000F1F494FBF2F102FB11413031D9706421AD
:103E400090FBF1F494FBF2F102FB114190FBF2F4D0
:103E50003031197194FBF2F102FB114230325A7188
:103E60000A2190FBF1F201FB1200303098710F48EB
:103E700010BD2022C1E7002AACBF20222D225A719A
:103E8000EEE76328F5DC20210928D9701971F2DDED
:103E9000002AACBF0A462D221A710A2290FBF2F2C8
:103EA00030325A71DCE700BF8312002086120020F6
:103EB00038B504682549204612F048FC0021054623
:103EC000204612F0E1FD00283BD12149284612F09E
:103ED00035FB204912F0EEFC12F0FEFD002832DB2B
:103EE00042F210720A2190FBF2F393FBF1F201FB14
:103EF0001232303252B218490A234A704FF47A72A1
:103F000090FBF2F494FBF3F203FB124230328A701E
:103F1000642290FBF2F494FBF3F203FB1242303282
:103F2000CA702E220A7190FBF3F292FBF3F403FBAA
:103F3000142403FB1203303430334C718B71481C52
:103F400038BD0649C2E740422D22D4E700007A443A
:103F50000000A04000002041831200200000A0C00B
:103F600038B5056804462F49284612F097FD20B958
:103F70002D49284612F09CFD20B12046BDE838406E
:103F8000FFF796BF2949284612F0E0FB00210446BE
:103F9000284612F079FD00283CD12549204612F030
:103FA000CDFA244912F086FC12F096FD0021044659
:103FB000284612F07DFD20B11E49284612F064FD0E
:103FC00068BB002C28DB4FF47A730A2194FBF3F2D0
:103FD00092FBF1F301FB132330335BB216480A2244
:103FE0008370642394FBF3F191FBF2F302FB131350
:103FF0003033C3702E23037194FBF2F393FBF2F181
:1040000002FB113102FB13433031303341718371B4
:10401000023038BD0949C1E764422D23DEE7202381
:10402000DCE700BF000020C10000C84200007A4465
:104030000000A04000002041831200200000A0C02A
:1040400038B504682049204612F080FB002105465F
:10405000204612F019FDA0BB1C49284612F06EFA4A
:104060001B4912F027FC12F037FD0028B4BF2D23A6
:104070002B234FF47A71174AB8BF404290FBF1F4FA
:1040800053700A2394FBF3F103FB1141303191701B
:10409000642190FBF1F494FBF3F103FB1141303107
:1040A000D17090FBF3F191FBF3F403FB1414303463
:1040B00014712E2403FB1103303354719371501C7F
:1040C00038BD0549C9E700BF0000C8420000A04054
:1040D00000002041831200200000A0C070B50568D8
:1040E0000C462846204912F031FB0021064628469E
:1040F00012F0CAFC98BB1D49304612F01FFA1C4949
:1041000012F0D8FB12F0E8FC00282AD001DA2D24A6
:1041100040424FF47A71174A0A23547090FBF1F42D
:1041200094FBF3F103FB1141303191702E21D170DA
:10413000642190FBF1F494FBF3F103FB1141303166
:10414000117190FBF3F191FBF3F403FB141403FBE7
:1041500011033034303354719371501C70BD0649D3
:10416000CAE72024D5E700BF00401C460000A0405D
:1041700000002041831200200000A0C010B5046898
:104180000021204612F080FC002859D02E4904F16D
:10419000004012F0DBFA2D4912F0D0F92A4912F052
:1041A00089FB12F099FC42F20F739842C1BF42F2B0
:1041B00010730A2190FBF3F292FBF1F3D4BF20239A
:1041C00001FB1323224AC4BF30335BB2B0F57A7FC0
:1041D0009370A1BF4FF47A730A2490FBF3F191FB23
:1041E000F4F3B1BF202304FB131330335BB2632815
:1041F000D370C1BF64230A2490FBF3F191FBF4F365
:10420000C3BF04FB131330335BB220230928C4BFA0
:104210000A2190FBF1F41371CABF94FBF1F3202340
:1042200001FB13434FF00A01C4BF30335BB253713B
:1042300090FBF1F301FB130030309071054810BD85
:1042400001492046A5E700BF000020410000A04032
:10425000831200208512002038B5046825492046C5
:1042600012F074FA00210546204612F00DFC0028D9
:104270003DD12149284612F061F9204912F01AFB7C
:1042800012F02AFC011EB4BF2D232B2342F2107220
:104290001B48B8BF494291FBF2F403700A2394FB18
:1042A000F3F203FB1242303242704FF47A7291FB08
:1042B000F2F494FBF3F203FB124230328270642278
:1042C00091FBF2F494FBF3F203FB12423032C27022
:1042D0002E22027191FBF3F292FBF3F403FB142400
:1042E00003FB1213303430334471837138BD0549F8
:1042F000C0E700BF00007A440000A0400000204159
:10430000831200200000A0C010B5046800212046E0
:1043100012F0BAFB002852D02A4904F1004012F0F2
:1043200015FA294912F00AF9284912F0C3FA12F0D5
:10433000D3FB42F20F712023254A884213700ADD15
:1043400042F210730A2490FBF3F191FBF4F304FBA7
:10435000131330335BB2B0F57A7F5370A1BF4FF4C3
:104360007A730A2490FBF3F191FBF4F3B1BF20239D
:1043700004FB131330335BB263289370C1BF642313
:104380000A2490FBF3F191FBF4F3D4BF202304FB48
:1043900013134FF00A04C4BF30335BB2D37090FBE9
:1043A000F4F393FBF4F104FB1131303111712E2140
:1043B00004FB1300303090715171054810BD014964
:1043C0002046ACE70000C8420000A04000002041A9
:1043D0008312002038B504683449204612F0B6F93B
:1043E00000210546204612F04FFB00284FD03049EF
:1043F000284612F0A3F82F4912F05CFA12F06CFB79
:104400000028B4BF2D2220222B4BB8BF40421A7087
:1044100042F20F729042C1BF42F210720A2490FB26
:10442000F2F191FBF4F2D1BF202204FB12123032E0
:1044300052B2B0F57A7F5A70A1BF4FF47A720A2453
:1044400090FBF2F191FBF4F2B1BF202204FB1212B7
:10445000303252B29A7064220A2190FBF2F494FB3B
:10446000F1F201FB124290FBF1F43032DA7094FB6E
:10447000F1F201FB140001FB1242D2B248B12E212D
:104480003032303019715A7198710B4838BD0B4970
:10449000AEE732B12E21303219715A7120229A7151
:1044A000F3E720225A711A71F8E700BF00007A443E
:1044B0000000A0C000002041831200200000A040A6
:1044C000014B1878704700BFF5050020024A1378A9
:1044D00083F0010313707047F505002037B51E4BBC
:1044E0001B78BBB3FF2400254FF4FA70FFF7DCFB09
:1044F00001A8ADF804408DF8065000F0E5F84FF43F
:10450000FA70FFF7D1FB4FF47F4301A8ADF80430F8
:104510008DF8065000F0D8F84FF4FA70FFF7C4FB9E
:1045200001A8ADF804508DF8064000F0CDF84FF426
:10453000FA70FFF7B9FB4FF6FF7301A8ADF804302E
:104540008DF8064000F0C0F8044802F0C1FC0448B1
:1045500002F0BEFC03B030BDF5050020FA9E020853
:10456000049F0208F0B5464B85B01B78002B7DD028
:10457000444B454F1D68454B1B691B689B68444B6A
:1045800018681B7901908DF808300023CDF80930A8
:104590008DF80D303B68EB1A002B2FDB3D4B3E4E68
:1045A0001B78C3F3C003D9B201B93370347814BB9C
:1045B000002961D02246214638480FF055FD01A858
:1045C0000FF0BEFB20460FF0EDFB012122463348E1
:1045D0000FF04AFD3248334B82681A600EF0E0FB60
:1045E0004D28214644D1304809F022FB0123337085
:1045F00000200FF0D7FB05F57A733B602B4E336834
:10460000EB1A002B32DB2A4C2A4B2B4FE360A360C2
:10461000636023600AF01EFC39682848FFF718FB26
:104620000A212748FFF771F821682448FFF710FB9B
:104630000A212348FFF769F80023E360A360636061
:1046400023600AF007FC39681C48FFF701FB0A21C8
:104650001B48FFF75AF821681848FFF7F9FA05F5E3
:104660007A650A211648FFF750F8356005B0F0BDAD
:10467000144809F0DDFABBE7124809F0D9FABAE7A5
:10468000F5050020F82A00208C120020B0930208C3
:10469000D39E0208E422002090120020DD9E020832
:1046A000C422002010230020E69E0208941200205D
:1046B000741700200000404064170020F79E020895
:1046C00034100020EE9E020838B52D4C0546D4F873
:1046D0000431017833B31020FEF7FAFCD4F86431CA
:1046E000697873B31620FEF7F3FCD4F87431A97817
:1046F000002B35D01720FEF7EBFC2B786A7813449B
:10470000AA781344022BCCBF012200221D4B1A7041
:1047100035DD1D48854232D02946BDE838400322A8
:104720001DF06EB9D4F80031B1FA81F11A68012395
:1047300094F80C0149098340090103FA01F1116160
:10474000CCE7D4F86031B1FA81F11A68012394F80A
:104750006C0149098340090103FA01F11161C4E7C1
:10476000D4F87031B1FA81F11A68012394F87C0110
:1047700049098340090103FA01F11161BDE738BD20
:10478000B09302089F1200209C12002010B5274C05
:10479000D4F80431B3B107211020FEF7F1FCD4F8AE
:1047A000643103B307211620FEF7EAFCD4F8743114
:1047B00053B307211720FEF7E3FCBDE810401C4867
:1047C000FFF782BF032294F80C11D4F80001FCF724
:1047D000C9FBD4F8003194F80C111A684FF48033F7
:1047E0008B401361DBE7032294F86C11D4F860016D
:1047F000FCF7B8FBD4F8603194F86C111A684FF4E8
:1048000080338B401361D1E7032294F87C11D4F8F4
:104810007001FCF7A7FBD4F8703194F87C111A688A
:104820004FF480338B401361C7E700BFB093020899
:104830009912002007B5084B1B7853B1002301A83B
:10484000ADF804308DF80630FFF73EFF03B05DF899
:1048500004FB0248F8E700BF9F1200209C120020D2
:104860008021054AFF235170002113709170034A83
:104870001370537093707047991200209C1200209F
:104880002DE9F341D0F800800E684046176812F019
:1048900023F90546384612F01FF9314604464046D2
:1048A00012F010F900BB3946304612F00BF9E8B9A6
:1048B000304612F011F9FF26621B401BD31780FB14
:1048C000060112F04FF90A4BC0B21A78824208D0A2
:1048D0001870C0438DF8060001A8ADF80460FFF71A
:1048E000F3FE02B0BDE8F0812846E4E72046E2E7A7
:1048F000A01200202DE9F341D0F800800E68404658
:10490000176812F0E9F80546384612F0E5F8314626
:104910000446404612F0D6F810BB3946304612F035
:10492000D1F8F8B9304612F0D7F8FF26621B401BC9
:10493000D31780FB060112F015F90B4BC0B21A78A1
:1049400082420AD0187000238DF8040001A88DF867
:1049500005308DF80660FFF7B7FE02B0BDE8F081C4
:104960002846E2E72046E0E7A01200204138C3B223
:10497000192B2DD8174A1068D84010F0010028D004
:10498000154AD25C12B3154B19688B188A56A2F1DE
:104990003001C9B2092906D92E2A08D15A78303AED
:1049A000092A88BF00230E4A0120136070472D2A70
:1049B00001D02B2A0AD193F90110A1F13002D2B211
:1049C000092AF0D92E2901D19A78E8E70023EAE7ED
:1049D00000207047D8120020BA120020B412002024
:1049E000DC12002008B5FFF7C1FF20B1024B1868A8
:1049F000003018BF012008BDDC120020034B1868EE
:104A000018B10A2200211FF0EDB87047DC12002017
:104A10002DE9F74306464F20FFF7E4FF002800F09A
:104A200088804A4B1B6843B9494B1B7803F0070346
:104A3000072B06D103B0BDE8F083FFF7DFFF0028A6
:104A40006CDA0AF0D9FF0AF095F9012009F07AFF33
:104A50005820FFF78BFF04465920FFF787FF0546D4
:104A60005A20FFF783FF80461EB9AC4204D184422E
:104A700002D101242546A0461022364936481CF0B2
:104A8000BFFF5220FFF7AEFF00285CD02F4B186805
:104A900050B30246914612F9017B37F020014ED007
:104AA000452F01D0652FF5D1002189F80010186835
:104AB0001EF0B8FF064689F800700021304611F05C
:104AC000D9FF88B904B9BDB1234F224BBE6031462E
:104AD000986811F0D9FF38B1002302A941F8043DCC
:104AE00007F108000AF03AF914B100200AF0B0FA10
:104AF00015B101200AF0ACFAB8F1000F02D0022083
:104B00000AF0A6FA0AF090F809F0D6FE0AF046F983
:104B10000322124B1A700AF057F88BE7FFF76EFF6B
:104B2000FF2881DCFFF76AFF10F0FF0F7FF47CAFF6
:104B300087E74F20FFF71AFF002882D074E71EF0A6
:104B400071FF0646B9E7064EBCE700BFDC12002045
:104B5000561700206417002074170020100600204C
:104B60000000A04038B50D4B1868A8B102461546A4
:104B700012F9014B34F020010AD0452C01D0652CEC
:104B8000F5D10021297018681EF04CFF2C7038BD3B
:104B9000BDE838401EF046BF0020F8E7DC120020D8
:104BA00070B500F0FDFD051E26DB4420FFF7DEFE9C
:104BB000D8B1FFF7D7FF002106464FF0010411F0EE
:104BC00059FF08B14FF000040C4B00211C70304617
:104BD00011F050FF48B9FFF7C5FF0021044611F05E
:104BE00049FF074B28B943F82540BDE870400AF05B
:104BF00057BE044A1A60F8E770BD00BFB912002022
:104C0000001D00200000404010B500F0C9FD002844
:104C100013DB0024094B1857FFF7A8FE30B1FFF74C
:104C2000A1FF11F07FFF064B43F824000134042C50
:104C3000F0D1BDE810400BF0D1BC10BD0D9F0208B3
:104C40005C1D002010B500F0ABFD00280EDB002439
:104C5000074B1857FFF78AFE28B1FFF783FF054B74
:104C600003EB840358620134042CF1D110BD00BF62
:104C70000D9F02085C1D002008B5214B214A1B68CE
:104C80001A423CD04220FFF771FE40B11E4B18681B
:104C900018B10A2200211FF061F81C4B1861532043
:104CA000FFF764FE18B1FFF75DFF184B186454203E
:104CB000FFF75CFE18B1FFF755FF144B58645820FE
:104CC000FFF754FE18B1FFF74DFF114B1860592044
:104CD000FFF74CFE18B1FFF745FF0D4B58605A2007
:104CE000FFF744FE18B1FFF73DFF094B98604520E0
:104CF000FFF73CFE18B1FFF735FF054BD86008BD44
:104D0000D812002012008C03DC1200205C1D002051
:104D10003C1D002010B51D4B1B6813F4682F12D1E9
:104D20001B4C1C48616BFEF793FFA16B1A48FEF702
:104D30008FFFE16B1948FEF78BFFBDE810400A2199
:104D40001748FBF7F7BB5320FFF74CFE20B1FFF7E6
:104D500009FF0F4B5863D8635020FFF743FE18B18B
:104D6000FFF700FF0A4B58635220FFF73BFE18B1D4
:104D7000FFF7F8FE064B98635420FFF733FE18B197
:104D8000FFF7F0FE024BD86310BD00BFD812002021
:104D90005C1D0020119F0208219F0208249F020829
:104DA0003410002008B5194B1B685B0304D5184B61
:104DB0009A7C184B0AB91A6008BD17490968881807
:104DC0008A56A2F13001C9B2092905D92E2A0BD180
:104DD0004278303A092A0BD80A22002118601EF0C6
:104DE00001FF0E4B1880E7E72D2A03D02B2A01D0B4
:104DF0000022E0E790F90110A1F13002D2B2092AB5
:104E0000EAD92E29F4D18278E3E700BFD812002036
:104E1000BA120020DC120020B41200201806002074
:104E200038B500F0BDFC041E47DB2D4B2D4D1B6833
:104E300013F4802F04D02C4B9A7C2C4BCAB91A60E7
:104E4000FEF7D2FE45212A48FEF75FFC04F130014F
:104E50002748FEF75AFC35F914102648FEF7DCFE09
:104E600025212348FEF751FC0A212148FEF74DFC7D
:104E700023E02149096888188A56A2F13001C9B295
:104E8000092905D92E2A19D14278303A092A19D888
:104E90000A22002118601EF0A5FE00B225F81400B9
:104EA00011F000FC154911F051FC154B53F824107A
:104EB00011F04CFC134B43F8240038BD2D2A03D0CD
:104EC0002B2A01D00022BAE790F90110A1F130029B
:104ED000D2B2092ADCD92E29F4D18278D5E700BFD5
:104EE000D812002044060020BA120020DC12002054
:104EF00034100020279F0208B41200200AD7233C58
:104F00001C1D00204806002010B54520FFF72EFD8F
:104F1000002837D15020FFF729FD264C10B1FFF7AC
:104F200021FEE0604920FFF721FD28B1FFF71AFEBE
:104F3000214911F00BFC20614420FFF717FD28B137
:104F4000FFF710FE1C4911F0B5FC6061FEF74CFE46
:104F5000E1681A48FEF77CFE2069174911F0AAFCA7
:104F600001461748FEF774FE6069134911F0EEFB25
:104F700001461448FEF76CFEBDE810400A211248B5
:104F8000FBF7D8BA114B1B68002BC3D0FFF736FDD7
:104F90000028BFDBFFF732FDFF2804DCFFF72EFD02
:104FA00010F0FF0FB6D0FEF725FEBDE81040084810
:104FB000FEF70EBE341E00200AD7233E2F9F0208A4
:104FC000339F0208379F020834100020DC120020B3
:104FD0003B9F020810B5C0B1FEF706FE0D4C0E480F
:104FE0006169FEF735FEA1690C48FEF731FEE16903
:104FF0000B48FEF72DFE216A0A48FEF729FEBDE8A0
:1050000010400A210848FBF795BA20210648FBF713
:1050100091FAE3E75C1D00204D9F020842B60208AA
:1050200049B60208A2BE0208341000202DE9F04162
:1050300000F0B6FB011E4ADB264B274A1B681A42CA
:1050400004D1BDE8F0410120FFF7C4BF0025234B88
:105050005857FFF78BFC68B3214B1B6853B3032DE4
:10506000204C2ED1FFF77EFD1F49074611F00CFDA5
:10507000F8B13946206A11F01DFCDFF87080064651
:105080000146D8F80C0011F061FB3146C8F80C005D
:10509000206B11F05BFBDFF858802063D8F80C0020
:1050A00011F0FCFA314611F051FB11F03BFDC8F84C
:1050B0000C0027620135042DC9D1BDE8F0410BF089
:1050C000B1BAFFF74FFD04EB85046061F2E7BDE87C
:1050D000F08100BFD812002010008003549F020806
:1050E000DC1200205C1D00200000A0413C1D0020BF
:1050F0002C1D00200023024A1370024A13707047CF
:1051000081120020F40500200020FEF7B5BBFEF759
:1051100023BB000070B55320FFF728FC204D28B1B9
:105120005320FFF723FC20BB00202870FEF75CFD16
:105130001C48FEF74DFD2B786BB3002423462A78DC
:10514000E240D2070CD55E1CF6B21BB12C211648EA
:10515000FBF7F0F9154B53F82400FEF739FD334601
:105160000134052CEBD1BDE870400A210E48FBF755
:10517000E1B90F4B1B68002BD6D0FFF73FFC00288E
:10518000D2DBFFF73BFCFF2803DCFFF737FCC0B2A4
:10519000CBE7FF20C9E70748FEF71AFDE3E700BFAA
:1051A00082120020589F0208341000208C9F0208B1
:1051B000DC1200205F9F0208012009F09FBB002045
:1051C00009F09CBB08B50021034808F031FDBDE89B
:1051D0000840FEF7CDBA00BFA09F020838B55320A3
:1051E000FFF7C4FBF0B1384B1868D8B1024615463A
:1051F00012F9014B34F0200111D0452C01D0652C5F
:10520000F5D10021297018681EF00CFC2C702F4974
:1052100011F09CFA11F086FC2D4B186038BD1EF081
:1052200001FCF4E75820FFF7A1FB78B95920FFF7FC
:105230009DFB58B95A20FFF799FB38B94520FFF775
:1052400095FB18B9BDE838400AF0B0BB0AF0D4FBB2
:105250005820FFF78BFB70B11E4BD3F8802093F8DA
:105260008C104FF4803312688B4013611A4A137804
:1052700023F0010313705920FFF778FB70B1154B31
:10528000D3F8102193F81C114FF4803312688B402F
:105290001361114A137823F0020313705A20FFF7A9
:1052A00065FB0028BAD00B4BD3F8202293F82C12C0
:1052B0004FF4803312688B401361074A137823F050
:1052C00004031370AAE700BFDC12002000007A4438
:1052D000F0050020B09302085717002038B5FEF7FC
:1052E00083FC4248FEF774FC414B424C1B6813F4AC
:1052F000802F1CD0404B997C404B11B91960012084
:1053000014E03F4A106842184156A1F13000C0B283
:10531000092805D92E294BD15178303909294BD884
:105320001A60FFF76BFB002854DA00202070354D1F
:105330002078354CFEF7ACFC3448FEF749FC296870
:10534000206811F0FBF801463148FEF781FC6968DE
:10535000A06811F0F3F801462E48FEF779FCA96821
:10536000206911F0EBF801462B48FEF771FC2B4841
:10537000FEF72EFC2968606811F0E0F80146244829
:10538000FEF766FC6968E06811F0D8F8014621482C
:10539000FEF75EFCA968606911F0D0F801461E486E
:1053A000FEF756FCBDE838400A211D48FBF7C2B89D
:1053B0002D2904D02B2902D000221A609FE792F9F0
:1053C0000100A0F13001C9B20929A9D92E28F3D1D1
:1053D0009178A2E7FFF712FBFF2890DCFFF70EFBA6
:1053E000C0B2003018BF0120A0E700BFA99F02088B
:1053F000D812002034060020BA120020DC1200204F
:10540000B4120020A01700201C060020B99F02083B
:1054100069B8020842B6020849B60208C19F0208EC
:105420003410002010B50C46FFF7A0FA38B1054B38
:10543000186820B10A2200211EF0D4FB04B22046D5
:1054400010BD00BFDC12002038B55020FFF78EFAE7
:1054500090B300215020FFF7E5FF4FF0FF310546E4
:105460005320FFF7DFFF431C022B044624D868B209
:10547000002821DBFEF74EF918B1BDE83840FEF7F1
:1054800061B9EDB20AF0B8FA02212846FDF778FEBC
:10549000621C0AD0631E5C425C412846FDF7F2FEA6
:1054A000A04209D0FEF78CFAF7E72846FDF7EAFE9E
:1054B000B0FA80F46409F0E738BD0AF09DBA08B587
:1054C000FFF79CFA002807DBFFF798FAFF2805DCB6
:1054D000FFF794FAC0B208BD0020FCE7FF20FAE70E
:1054E00070B55320FFF77EFAA0B3FFF7E8FF05463B
:1054F0005020FFF777FA68B3FFF780FA03040446F9
:1055000028D446B24920FFF76DFA68B1124B1B68E8
:105510007BB1FFF7D4FF60B93046FEF7FBF840B12E
:10552000BDE87040FEF70EB94920FFF71FFA0028CA
:10553000F2D0E4B200212046FDF722FE29462046A3
:10554000FDF7B4FE29462046FDF7C2FD282E04BF14
:10555000024B1D7070BD00BFDC120020801E0020B9
:1055600008B50CF0EDFA08F075FE0AF01FFA0021FC
:1055700008460BF09DFE4FF47A70FEF795FBBDE8F0
:1055800008400021014808F053BB00BFC99F020832
:1055900038B5244B1B685B030CD5234B9A7C234BFB
:1055A0004AB900201A60224911F0D0F811F0BAFA75
:1055B000204B186038BD2049096888188A56A2F126
:1055C0003001C9B2092905D92E2A16D14278303ABC
:1055D000092A16D802461860154612F9014B34F014
:1055E00020011BD0452C01D0652CF5D1002129705C
:1055F00018681EF017FA2C70D5E72D2A03D02B2A35
:1056000001D00022CDE790F90110A1F13002D2B211
:10561000092ADFD92E29F4D18278D8E71EF002FAC0
:10562000C1E700BFD8120020BA120020DC1200200F
:1056300000007A447C120020B4120020012208B538
:10564000114B53201A700022104B1A70FFF78EF97D
:10565000A0B10F4B1B688BB1FFF7D0F9002803DA1C
:10566000BDE8084001F06ABDFFF7C8F9FF2804DC77
:10567000FFF7C4F910F0FF0FF2D008BD5320FFF779
:1056800075F90028ECD0F8E7ED050020F6160020AB
:10569000DC120020002200210DF06AB808F082BE62
:1056A00008B508F089FEBDE80840002008F028BFD2
:1056B00008F082BE10B55320FFF758F90446A8B190
:1056C0000E4B1B6893B1FFF799F9002813DBFFF726
:1056D00095F9FF2805DCFFF791F9C0B2041C18BF4B
:1056E00001242046BDE8104008F00ABF5320FFF710
:1056F0003DF90124F5E70024F3E700BFDC120020A8
:1057000008B55820FFF76EF988B1FFF777F901B2B5
:1057100000200BF099FB5A20FFF764F968B1FFF7FE
:105720006DF9BDE8084001B201200BF08DBB592096
:10573000FFF758F90028E8D1EDE708BD37B552204A
:10574000FFF714F920B1154B1B6803B3FFF7B7FE41
:1057500005465520FFF70AF920B1104B1B68C3B16D
:10576000FFF7ADFE04464220FFF700F920B10B4BD6
:105770001B6883B1FFF7A3FE8DF8060001A88DF822
:1057800004508DF80540FEF79FFF03B030BDFF25A4
:10579000DFE7FF24E7E7FF20EEE700BFDC12002091
:1057A00010B55420FFF71EF948B3FFF727F900287A
:1057B00021DBFFF723F9FF281FDCFFF71FF9C0B239
:1057C00044B2002C15DDFEF70FFA4D210D48FDF710
:1057D0009CFF0D4B0A2219680A48FAF7F3FF21468D
:1057E0000A48FEF719FA0A210648FDF78EFF4FF026
:1057F000FF34204610BD0020E2E7FF20E0E704462A
:10580000F7E700BF34100020D41200201EA00208C9
:1058100070B500241C4BA5001857FFF7E3F81B4E8A
:1058200058B3FFF79FF91A4A0346A25C12B9194A06
:105830001278DAB1184A1846515910F07FFE034623
:1058400073510134042CE5D14620FFF7CBF860B149
:10585000FFF788F9002111F035F930B1FFF782F92F
:105860000E4911F027F80E4B186070BD032CE7D0DD
:105870000C4B595910F060FEE1E7074B53F8243008
:1058800046F82430DDE700BFD99F020874170020D6
:10589000A81200209C17002064170020000070420E
:1058A00014060020A017002038B5054C25680544D3
:1058B00023685B1B002B02DAFEF782F8F8E738BD9D
:1058C000F82A0020012210B5CF4BD04C93F90030BC
:1058D00022704D2B3AD0542B00F01D82472B17D14C
:1058E000CB4B1868042824D00BDC002810DB904236
:1058F00019DC00F04FFE00232370BDE8104001F0DA
:10590000C1BB5A281CD007DC1528F4D01C2813D0A2
:10591000C04801F03BFAEEE75B2815D05C28F7D1D0
:1059200000F05EFAE7E7831E5842584100F0F0FFAE
:10593000E1E701F0D5F8DEE70020FFF769F8DAE7E4
:105940000022B54B1A70D6E7B34BFBE7B04B1B6890
:10595000712B00F0848100F386802A2B00F0678190
:105960003BDC182B00F041811EDC122B00F09181F2
:1059700009DC002BCCDB012B40F32E81112BC7D18E
:10598000FFF720FCB7E7152B00F0298104DC142B6E
:10599000BED101F03DFDAEE7162B00F02381172BA1
:1059A000B6D101F049FDA6E71C2B00F0278107DCEA
:1059B0001A2B00F0208140F31B8101F0BDFD9AE716
:1059C0001E2B00F02B81C0F21C811F2B00F02C81BC
:1059D000202B9DD101F014FE8DE75C2B00F05C8143
:1059E0001CDC512B00F04C810ADC4C2B00F0228196
:1059F0004D2B00F022814B2B8AD101F0D9FE7AE7A2
:105A0000532B00F04381C0F23E81542B00F04181C2
:105A1000552B7FF47DAFFFF7BBFD6CE76C2B00F0DF
:105A2000188112DC692B00F0208105DC682B7FF4E3
:105A30006FAF01F0C3FE5EE76A2B00F01E816B2B97
:105A40007FF466AF01F078FF55E76E2B00F0FB8026
:105A5000C0F2F6806F2B00F0F980702B7FF458AF06
:105A6000FFF752FB47E7D32B00F037814ADC912B3D
:105A700000F027811CDC762B00F017810ADC732BE9
:105A800000F01081C0F20B81752B7FF441AF00F064
:105A9000BBFC30E7782B00F00E81C0F20981792B36
:105AA00000F00C818C2B7FF433AF01F051FF22E723
:105AB000C92B00F0098112DC9B2B00F0DB8005DC98
:105AC000962B7FF425AFFFF739FE14E7BE2B00F0CD
:105AD000C980C82B7FF41CAFFFF762F80BE7CC2B13
