:020000040800F2
:10000000182300200D630008AD040008AF040008A9
:10001000B1040008B3040008B504000800000000A3
:10002000000000000000000000000000B70400080D
:10003000B904000800000000BB040008BD0400086B
:100040002763000827630008276300082763000868
:100050002763000827630008276300082763000858
:100060002763000827630008276300082763000848
:100070002763000827630008276300082763000838
:100080002763000827630008276300082763000828
:100090002763000827630008276300082763000818
:1000A0002763000827630008276300082763000808
:1000B00027630008276300082763000827630008F8
:1000C00027630008276300082763000827630008E8
:1000D00027630008AD2A000827630008276300088B
:1000E00027630008276300082763000827630008C8
:1000F00027630008276300082763000827630008B8
:1001000027630008276300082763000827630008A7
:100110002763000827630008276300082763000897
:100120002763000827630008276300082763000887
:1001300000F002F800F05CF80AA090E8000C82449D
:100140008344AAF10107DA4501D100F051F8AFF27A
:10015000090EBAE80F0013F0010F18BFFB1A43F0A5
:1001600001031847C8630000E86300000A444FF029
:10017000000C10F8013B13F0070408BF10F8014B06
:100180001D1108BF10F8015B641E05D010F8016B4B
:10019000641E01F8016BF9D113F0080F1EBF10F8AF
:1001A000014BAD1C0C1B09D16D1E58BF01F801CBD2
:1001B000FAD505E014F8016B01F8016B6D1EF9D555
:1001C0009142D6D37047000000230024002500266A
:1001D000103A28BF78C1FBD8520728BF30C148BFAA
:1001E0000B607047002070471FB51FBD10B510BDD4
:1001F00006F060F91146FFF7F7FF00F01FF806F070
:100200007EF903B4FFF7F2FF03BC02F0F9FB000034
:1002100030BF72B662B680F308887047EFF309808A
:10022000704780F309887047EFF30880704780F3C8
:100230000888704740BA7047C0BA704770B502F07E
:1002400023FB4FF4A06004F009FE4FF4E13002F00C
:10025000E1FB02F08BFB04F0E0FD04F05FFC04F036
:10026000C7FC4FF47A76304602F03CFB32A006F031
:100270006FF837A1002004F07CFD04F0AFF904F022
:10028000BDF9384D002841F28834304611D002F0D3
:1002900029FB35A006F05CF83CA1002004F069FDC4
:1002A000204602F01FFB00F03BFB00281BD03DA1C5
:1002B0001AE002F017FB3FA006F04AF846A1002022
:1002C00004F057FD204602F00DFB284600F0F8F838
:1002D00047A1002004F04DFD204602F003FB48A09A
:1002E00006F036F8F8E74AA1002004F042FD00F0DD
:1002F00098FA88B14BA006F02BF857A1002004F023
:1003000038FD59A1002004F034FD204602F0EAFA3D
:10031000284600F0D5F803E058A1002004F029FD9C
:1003200059A1002004F025FD00F0DCF85BA10020BD
:1003300004F01FFD002070BD476F696E6720746F69
:1003400020626F6F74202E2E2E200D0A00000000F8
:10035000476F696E6720746F20626F6F742E2E2E48
:100360000000000000800008476F696E6720746F0E
:10037000206C6F6164206E6577206669726D7761AD
:100380007265202E2E2E200D0A0000006C6F616415
:10039000206E6577206669726D776172652E2E2EEC
:1003A00000000000466C61736820496E6974206F1C
:1003B0006B000000426F6F74696E672066726F6D2C
:1003C000206F6C64206669726D77617265202E2ED5
:1003D0002E200D0A000000006C6F6164206F6C64B9
:1003E000206669726D776172652E2E2E0000000006
:1003F000426F6F74206661696C2E2E2E0000000023
:10040000426F6F74206661696C2E2E2E0D0A0000FB
:10041000466C61736820496E6974206572726F72F0
:100420000000000046415420696E697420666169CD
:100430006C202C20626F6F74696E672066726F6D1E
:10044000206F6C64206669726D77617265202E2E54
:100450002E200D0A0000000046415420696E697488
:10046000206661696C200000626F6F74696E67209E
:1004700066726F6D206F6C642E2E2E0046415420E4
:10048000496E6974206F6B006C6F61642066726FD7
:100490006D207364636172642E2E2E00757064612A
:1004A0007465206572726F72000000007047FEE78D
:1004B000FEE7FEE7FEE770477047704770470000B1
:1004C00010B50168584A1140B1F1005F09D1416887
:1004D000564C21600068FFF79EFE2068BDE8104082
:1004E000004710BDF8B552A005F032FF58A100201A
:1004F00004F03FFC01225BA15E4801F087FA5E4DEB
:1005000041F2883670B15DA005F022FF63A10020A2
:1005100004F02FFC304602F0E5F92846FFF7D0FF43
:100520000020F8BD63A005F013FF68A1002004F0CF
:1005300020FC4FF4967002F0D5F94FF400772C466A
:100540006B463A4666494B4801F001FB68B102230D
:1005500018222921072004F0C7FB62A005F0F8FE4D
:1005600066A1002004F005FC24E00098082821D3AF
:1005700067A1002004F0FDFB0EE05949204600F081
:10058000F7F90028CDD100986B4604443A46544907
:10059000384801F0DCFA68B9009A002AEDD15FA171
:1005A000002004F0E6FB304602F09CF9314801F0EF
:1005B0009BFC08B10120F8BD5BA15DA001F0BBFF71
:1005C00030B15FA005F0C4FE62A1002004F0D1FBB1
:1005D00064A005F0BDFE6BA1002004F0CAFB30460C
:1005E00002F080F92846FFF76BFF4FF4FA642046CB
:1005F00002F078F969A005F0ABFE6CA1002004F0D0
:10060000B8FBF4E770B504464FF00060844200D8B0
:100610008000211A04F056FCD4E90005FFF707FE1C
:10062000A847012070BD00000000FE2F0000002040
:10063000426F6F74204669726D77617265206368DE
:1006400065636B696E672E2E2E200D0A0000000078
:10065000426F6F7420636865636B696E672E2E2E20
:1006600020000000303A2F6669726D776172652E46
:1006700062696E006C0A002000800008426F6F748F
:10068000696E672066726F6D206F6C642066697298
:100690006D776172652E2E2E0D0A00006C6F6164FD
:1006A000206F6C64206669726D776172652E2E2EE4
:1006B000000000004C6F6164696E67206669726DAE
:1006C00077617265202E2E2E0D0A00004C6F61643A
:1006D000696E67206669726D776172652E2E2E00D5
:1006E000900C00206669726D776172652072656199
:1006F00064206661696C200D0A0000006669726DF5
:10070000776172652072656164206661696C2000A2
:10071000757064617465202E2E2E00007570646102
:100720007465206F6B0000006F6C642E62696E0050
:100730006669726D776172652E62696E00000000F5
:100740004261642072656E616D65202E2E2E0D0A49
:10075000000000004261642072656E616D652E2E9E
:100760002E000000426F6F74696E672066726F6DB5
:10077000206E6577206669726D776172652E2E2E08
:100780000D0A00006C6F6164206E657720666972E7
:100790006D776172652E2E2E00000000426F6F741F
:1007A000206661696C2E2E2E0D0A0000426F6F7458
:1007B000206661696C2E2E2E0000000008B50A220A
:1007C00028A12C4801F022F9D8B96B460D222AA1A4
:1007D000284801F072FAA0B9264801F085FB80B9DB
:1007E000012220A1234801F011F950B96B460D22D6
:1007F0002549204801F0ABF918B91E4801F074FBF7
:1008000008B1012008BD20491BA005F0E1FD18B189
:100810001EA005F09DFDF4E71FA005F099FD002046
:1008200008BD10B51FA005F093FD24A1002004F021
:10083000A0FA002000F0DEF820B124A005F088FD29
:1008400028A109E02B49002001F0D3F8002807D0A7
:1008500029A005F07DFD2DA1002004F08AFA0120D9
:1008600010BD0000303A2F68656C6C6F2E74787480
:1008700000000000C010002048656C6C6F20576FAE
:10088000726C640A00000000E412002066617420AB
:100890006661696C0D0A000066617420676F6F64A1
:1008A0000D0A0000496E697469616C697A696E6746
:1008B000206469736B2E2E2E0D0A0000496E697438
:1008C000206469736B2E2E2E00000000496E69743F
:1008D00069616C697A65206469736B206661696C13
:1008E0000D0A0000496E6974206469736B206661AB
:1008F000696C0000900E00204D6F756E742073645B
:1009000063617264206661696C0D0A004D6F756EDB
:100910007420736463617264206661696C00000016
:1009200010B504F0F0FB002010BD70B504460E4673
:10093000400504D1204604F021FC042811D1C4F361
:100940000A00251A264404E0284604F017FC04286F
:1009500007D105F50065AE42F6D805E02068401CD9
:1009600001D0012070BD241DA642F7D8002070BD23
:100970002DE9F0410D46164607461146FFF7D5FF13
:10098000B0B9002409E000BF55F8241007EB84003B
:1009900004F093FC04280BD1641CB4EB960FF3D342
:1009A000002009E057F8201055F82020914202D08D
:1009B0000120BDE8F081401CB0EB960FF2D300207F
:1009C000F7E710B54FF400642146084802F0A2F89A
:1009D000042806D1224605490548FFF7C9FF042827
:1009E00001D0012010BD002010BD0000F412002035
:1009F0000000070810B530A005F0AAFC35A10020C2
:100A000004F0B7F903F032FF002807D003F002FE2C
:100A1000FF2003F0FDFD03F000FE012010BD0020CB
:100A2000704770B514460D4680B97BB11A46214611
:100A3000284603F0C5FF002807D003F0EBFDFF2098
:100A400003F0E6FD03F0E9FD012070BD042070BD58
:100A500070B514460D4648B943B11A46214628469A
:100A600003F0ECFF002800D0012070BD042070BD11
:100A700010B51446E8B939B1012917D002290FD0B1
:100A8000032910D0042010BD164C0020C4F890019A
:100A900003F0EAFD00B101200121C4F8901110BD5E
:100AA0004FF4007000E00820108002E003F0A7FE81
:100AB0002060002010BD0000496E697469616C6996
:100AC0007A696E6720736463617264202E2E2E0D26
:100AD0000A000000496E69742073646361726420C7
:100AE0002E2E2E00000021424FF00F3070472DE9CE
:100AF000F041C56A0F460446BD422BD0217904F16E
:100B00003008D9B1607801232A464146FFF7A0FF9B
:100B1000E0B900202071A169206A0844A8420DD9DB
:100B2000E67809E0A0690123054460782A46414639
:100B3000FFF78EFF761EF6B2012EF3D857B160781C
:100B400001233A464146FFF76CFF10B10120BDE892
:100B5000F081E7620020FAE72DE9F0410446002128
:100B6000FFF7C5FF050050D12078032846D1A07AB1
:100B7000F0B3002604F130004FF40072314607460E
:100B8000E66201F03CFE552084F82E02AA2084F88B
:100B90002F02522084F8300084F83100612084F85C
:100BA0003200412184F83310722284F8142284F830
:100BB000152284F8161284F81702206984F81802A6
:100BC000010A84F81912010C84F81A12000E84F834
:100BD0001B02E06884F81C02010A84F81D12010C53
:100BE000000E84F81E1284F81F026078012300E0D2
:100BF00004E039466269FFF72BFFA6720022607895
:100C00001146FFF735FF00B1012528469FE72DE982
:100C1000F0410C460546022902D3E869A04201D8FA
:100C2000012094E728782F6A012804D0022824D0D4
:100C3000032833D12CE004EB540607EB5621284659
:100C4000FFF755FF50BBC6F308002844761C90F808
:100C5000308007EB56212846FFF749FFF0B9C6F36D
:100C60000800284490F8301048EA0120E10701D03C
:100C700000096CE7C0F30B0069E707EB1421284675
:100C8000FFF735FF50B9E0B205EB4000008E5EE79C
:100C900007EBD4112846FFF72AFF10B14FF0FF30C1
:100CA00055E74FF4FE7000EA8400284490F83010B5
:100CB000D0F8310041EA002020F0704047E72DE9EC
:100CC000F04716460C460546022902D3E869A042C1
:100CD00002D80220BDE8F08729782F6A06F0FF09C4
:100CE0004FF0010A01290AD0C6F30728022937D09C
:100CF000032944D05FF0020085F804A0EAE704EB82
:100D0000540807EB58212846FFF7F1FE0028F3D1DD
:100D1000C8F3080028443030E10703D0017869F3B4
:100D20001F1100E03146017008F1010885F804A0A8
:100D300007EB58212846FFF7DAFE0028DCD1C8F37C
:100D4000080129443031E20702D0C6F3071205E05A
:100D50000A78C6F3032302F0F0021A430A70CBE7C5
:100D600007EB14212846FFF7C2FE0028C4D1E1B2E8
:100D700005EB410181F8309081F83180BCE707EB49
:100D8000D4112846FFF7B3FE0028B5D14FF4FE7109
:100D900001EA84012944320C01F8309F81F8018076
:100DA0008A70320ECA70A7E72DE9F0410E46074659
:100DB000022918D3F869B04215D900254FF001086F
:100DC0001DE031463846FFF722FF04001AD0012CFF
:100DD00009D0601C09D0002231463846FFF76FFF6A
:100DE00005000FD103E002250CE001250AE0386977
:100DF000411C03D0401C386187F80A802646F869F8
:100E0000B042DED82846A2E62DE9F041C7695FEA84
:100E10000108064607D041463046FFF7F8FE022893
:100E200007D2012093E6F5680DB1BD4204D3012538
:100E300002E0B842F6D345462C46641CBC4202D3BD
:100E40000224022D0AD321463046FFF7E0FE38B1D6
:100E5000411CE7D00128E5D0AC42EED1002076E677
:100E60006FF0704221463046FFF729FF4FF0FF3503
:100E700040B9B8F1000007D0014622463046FFF7DE
:100E80001EFF08B1284662E6F4603069411C03D0B9
:100E9000401E30610120B072204658E670B50D4604
:100EA000C1808168044601291ED02068C2698A4237
:100EB0001AD921B90278032A04D1416A11B1807884
:100EC000060117E0E1600189A9420DD9406A17E0E7
:100ED0002068FFF79CFE0146401C07D0022903D37F
:100EE0002068C069884203D8022070BD012070BD0F
:100EF000A81B85B2B542EBD2E160206801F09BFCF3
:100F000000EB1510206105F00F013022206802EB84
:100F1000411108446061002070BD2DE9F041044694
:100F2000C0880F46401C0604360C2DD0206958B3EB
:100F300031075DD1401C2061E168206829B18278C9
:100F4000521E12EA161F04D052E00089B0421BD98B
:100F50004EE0FFF75CFE0546012819D9681C32D027
:100F60002068C169A9423DD877B1E168FFF74CFF1D
:100F700005000BD0012D0BD0681C24D00021206867
:100F8000FFF7B5FDF8B905E00420E0E50720DEE550
:100F90000220DCE520684FF400720021303001F0BF
:100FA0002EFC2946206801F046FC216800274FF0FE
:100FB0000108C8620FE000BF80F8048000212068AB
:100FC000FFF795FD08B10120C1E52068C16A491C01
:100FD0007F1CFFB2C16220688178B942ECD8C16A37
:100FE000C91BC162E5602946206801F024FC20612C
:100FF000E68006F00F013022206802EB4111084420
:1010000060610020A3E57CB516461C4605460B2210
:1010100001F0EDFB052C09D9600800EBC43136F86E
:10102000020B084484B230880028F5D107210A2237
:101030004FEA0D00B4FBF2F302FB1343B4FBF2F4EE
:1010400030334354491E002CF4D17E2242540022F6
:101050004C1E0AE0A3F181061E2E02D9E03B1C2B98
:1010600002D8A24206D0521C521C8A4202DAAB5C61
:10107000202BEFD1082902DA435C491C00E0202331
:10108000AB54521C082AF5DB7CBD2DE9FC5F0446FD
:101090000021FFF703FF002868D1FF208146009060
:1010A000A069C07A00F00100019021692068FFF773
:1010B0001EFD060059D16569287850B1E97AE52806
:1010C00001F03F0103D00A0705D50F2909D0FF2001
:1010D00044E0042649E00F2903D0B9F1000F4DD1B7
:1010E00046E0E169B9B3420606D56A7B009200F09A
:1010F000BF00E2888146228448452DD16A7B009852
:10110000824229D1019818B328788A4600F0BF009E
:10111000401EA84600EB8001DFF870B601EBC00569
:10112000002700BF1BF8071001EB0800008801F042
:101130000DFD0646FF2D0FDA3AF815006D1C01F083
:1011400005FDB04208D17F1C0D2F01DA002EE9D138
:10115000A9F1010001E002E0FF20C0B281460021B8
:101160002046FFF7DAFE06009FD03046BDE8FC9F20
:10117000284601F06CFB0099884202D04FF6FF70C0
:101180002084019818B1B9F1000FEED09FE70B222F
:101190002846A16901F03BFB0028E6D097E72DE93E
:1011A000F041FF240546274604264FF000085BE087
:1011B0002868FFF79CFC06005AD16869017861B184
:1011C000C27AE52902F03F0205D02E2903D0130789
:1011D00005D50F2A07D0FF2437E0042648E00F2A60
:1011E00001D07CBB38E04A0605D5477B01F0BF0142
:1011F000EA880C462A84A14225D1417BB94222D1FA
:101200000178DFF888C501F03F01491E01EB81023A
:1012100002EBC101EE690022FF2914DA1CF802304A
:1012200003441B882BB126F81130491C521C0D2A8F
:10123000F2DB0078400603D5FF2904DA26F8118096
:10124000641E01E00CE0FF24E4B200212846FFF711
:1012500064FE060008D00BE001F0F9FAB84209D0AC
:101260004FF6FF70288405E029690029A0D10EB14E
:10127000C5F8108030466AE42DE9FF5F04460C2271
:10128000D4E906763946684601F0B1FA9DF80B00BC
:10129000C00719D00020F8720125E0612B463246C4
:1012A00069463846FFF7AFFE2046FFF7EEFE18B955
:1012B0006D1CADB2642DF1D3642D0BD004280AD17E
:1012C0009DF80B00F872E6619DF80B00800711D5C0
:1012D000002005E0072004B0BDE8F09F401C80B26C
:1012E00036F810100029F9D10D211930B0FBF1F0BA
:1012F00086B200E0012600212046FFF7CFFD00283E
:10130000E9D10027B84621692068FFF7F0FB050006
:101310000BD160690078E52808D038B10027012199
:101320002046FFF7FAFD0500EDD077E00FB9B4F8DD
:1013300006807F1CBFB2B742F1D1012E55D941467C
:101340002046FFF7ABFD050068D1A06901F07FFAE8
:10135000761E1FFA86FB039021692068FFF7C7FB02
:1013600005005BD16169D4F81C90039848730F2085
:10137000C8720020087388760BF0FF0AC876AAF1BD
:10138000010000EB800202EBC00500234FF6FF7E58
:10139000FE4E4A1C01E0604503D039F81500F446C2
:1013A0006D1CF75CC85516F80380070A08F8027030
:1013B00000B960465B1C0D2BEDDB704502D039F89F
:1013C000150008B94AF0400A81F800A02168012000
:1013D000087100212046FFF7A0FD05001ED1ABF1EA
:1013E000010080B25FEA000BB6D121692068FFF7E7
:1013F0007EFB050012D1666920220021304601F0F3
:10140000FEF90B223046A16901F0F1F9A069C07A1A
:1014100000F01800307321680120087128465AE74F
:101420002DE9F041018C0446C588A1F57F40FF38C5
:1014300000D129462046FFF731FD002816D1E526C8
:10144000012721692068FFF752FB60B961690E70BE
:1014500021680F71E188A94208D200212046FFF7D8
:101460005CFD0028EDD0042800D1022004E42DE921
:10147000F84F00240F68C669884682462546785D85
:101480006D1C202828D32F2826D05C2824D0FF2CA0
:1014900043DAA0F1810181461E2903D9A9F1E000B8
:1014A0001C280CD8785D6D1CA0F140013F2902D3A7
:1014B00040397D2931D200EB09201FFA80F94846D6
:1014C000B9F1800F04D20146B1A001F0ACF920BB04
:1014D00026F81490641CD2E77A19C8F80020202856
:1014E00001D2042517E0002515E000BF06EB4400FB
:1014F00030F8020C20280DD02E280BD06CB1002023
:1015000026F814000B222021DAF8180001F077F9F0
:10151000002706E0641E002CE8D10620BDE8F88F05
:101520007F1C36F817002028FAD02E28F8D01FB1DB
:1015300045F0030500E0641E2CB106EB440030F8D2
:10154000020C2E28F7D1002081464FF0080B0090A6
:1015500036F8170007F101075FEA000824D0B8F158
:10156000200F04D0B8F12E0F04D1A74202D045F0CD
:101570000305EDE70098584501DAA7421AD1BBF1FF
:101580000B0F0FD0A74201D045F003050CDC4FF044
:10159000080000904FEA896027464FF00B0B4FEA96
:1015A0001069D5E745F00305DAF818000178E52958
:1015B00049D04AE04046B8F1800F07D301F0C6FA9F
:1015C000002101F0C5FA804645F00205B8F1FF0F91
:1015D00013D90099ABF10100814204DB45F003050A
:1015E000CDF800B0B4E7DAF8182000984FEA1821D7
:1015F00011540098401C00901CE0B8F1000F04D07A
:10160000014666A001F00FF920B14FF05F0845F0E8
:1016100003050FE0A8F14100192802D849F002099A
:1016200008E0A8F16100192804D8413049F0010907
:101630001FFA80F8DAF81820009902F80180009863
:10164000401C009084E705210170BBF1080F03D115
:101650004FEA89604FEA1069C9F38100032803D07B
:101660006FEA0901890701D145F00205A90709D4EC
:1016700009F00301012901D145F01005012801D12C
:1016800045F00805DAF81800C572002046E72DE994
:10169000F0410E4601F109040169C1B3416900231B
:1016A0000D7BCA5C202A0FD0052A00D1E5222F0726
:1016B00005D5A2F14107192F01D82032D2B25B1C07
:1016C00004F8012B082BECDB0A7A202A13D02E22F7
:1016D00004F8012B0823CA5C202A0CD0EF0605D59C
:1016E000A2F14107192F01D82032D2B25B1C04F8B5
:1016F000012B0B2BEFDBCA7A32720A7FD1F81D3037
:1017000042EA032232600A8BB280C98AF1804FF02C
:10171000000884F80080B469002C20D001690025FD
:10172000D9B1028CA2F57F41FF3916D0C76910E00C
:10173000002101F00DFA40B1FF2802D9010A6155DC
:101740006D1CF169491EA94201DC002505E06055C8
:101750006D1C37F8020B0028EAD104F8058014E468
:1017600073B50446019801782F2901D05C2901D175
:10177000401C01900025A56001980078202811D216
:1017800000212046FFF78AFB65617CBD1C650008CF
:10179000222A3A3C3E3F7C7F000000002B2C3B5B22
:1017A0003D5D000001A92046FFF761FE0028ECD155
:1017B0002046FFF76AFCA169C97A01F0040128B14B
:1017C0000428E2D10029E0D10520DEE70029DCD1A0
:1017D0006069C17AC906F7D5818A408B61F31F40E1
:1017E000A060DFE710B504460A464078012304F103
:1017F0003001FFF716F908B1032010BDB4F82E022E
:10180000A0F52A41553901D0022010BD0322F74925
:1018100004F1660000F0FBFF0028F6D00322F34934
:1018200004F1820000F0F3FF28B994F85800000694
:1018300001D4002010BD012010BD2DE9F0410B4660
:10184000016816460A78303A092A07D84C783A2CAB
:1018500004D1891C01600AB10B200CE5E44804683E
:101860001C6084B1207820B16078FFF7D8F8C107F8
:101870000BD00025257028466570FFF7BBF8C1071F
:1018800008D00320F7E40C20F5E40EB1400704D49F
:101890000020F0E41EB1400701D50A20EBE400214E
:1018A0000F462046FFF79EFF01280CD104F5F77084
:1018B000017999B1017AD0F8090041EA0027394647
:1018C0002046FFF78FFF032801D038B901E001203F
:1018D000D1E4B4F83B00B0F5007F01D00D20CAE49C
:1018E000B4F8461029B994F85400D4F8551040EAD9
:1018F0000121A16194F84000E070B4F83EC0484373
:101900000CEB0703236294F83D60A670B4F8412005
:101910002281B4F8431029B994F85010D4F851E05A
:1019200041EA0E21A1EB0C01091AA1EB1211B1FB46
:10193000F6F1891C012640F6F77CE161614500D390
:1019400002264FF6F77C614501D303260EE0032EF5
:101950000CD0191800EB12101844C4E909104FF00C
:10196000FF3020612571032E07D038E094F85C1019
:10197000D4F85DC041EA0C21ECE7A572B4F8600030
:101980000123C2196261607804F13001FFF749F860
:1019900028BBB4F82E02A0F52A4155391FD194F87E
:1019A0003000D4F8311040EA01209249884216D123
:1019B00094F81402D4F8151240EA01208E498842A6
:1019C0000DD194F81C02D4F81D1240EA0120E06009
:1019D00094F81802D4F8191240EA01202061844AD0
:1019E0002670121FE56211882846491C1180E1808B
:1019F00041E408B10B2070477D4A0023106800B114
:101A0000037001B10B700020116070472DE9F7479A
:101A1000ADF5117D4FF00008064602F01F05C0F835
:101A200000800BAC05F01E02694692A8FFF705FF87
:101A300000281CD18DA8CDE9060468469299FFF7CD
:101A40008FFE15F01C0F56D04FF0010960B104282D
:101A50000DD16846FFF710FC002808D145F00805B5
:101A6000059C280739D455E0680704D508200DF5F2
:101A7000147DBDE8F087059CE4B3E07A10F0110F07
:101A800046D1280746D5A08A678B84F8148084F84D
:101A9000158084F81A8084F81B8084F81C8084F8F0
:101AA0001D8084F81E8084F81F80009960F31F4712
:101AB00081F804900098D0F82CA047B139460098DE
:101AC000FFF772F90028D2D100987F1EC7605146F7
:101AD0000098FFF70CF80028C9D184F80B800F207C
:101AE000A073E07320746074009945F0200581F8BC
:101AF00004900FE00CE00028B9D1059C14B1E07A05
:101B0000C10601D50420B2E7A90703D5C00701D05B
:101B10000720ACE70098C06AF06105983062B571A3
:101B2000A18A608B61F31F403061207FD4F81D10C3
:101B300040EA0120C6E90280FF21F171C6F8188051
:101B4000009830600098C088B08000208FE72DE9B1
:101B5000F05F4FF000090F46C3F8009004468188FB
:101B600098461546006800F07FFE002803D1A07952
:101B7000010602D50220BDE8F09FC00708D0D4E9D5
:101B80000210401A04F1240A854200D905468FE06C
:101B90000720F0E7A168C80572D12068E279837850
:101BA0009A420AD309B36169FFF731F8012827D9AE
:101BB000411C5AD0606184F807906169206800F088
:101BC0003AFEE8B1E1796E0A01EB000B31D02268F0
:101BD0008B199078834200D9461A5078F3B25A464E
:101BE0003946FEF71EFFE0BB0FE007E0186500086E
:101BF0000800002052526141727241612069D5E7AC
:101C0000A07940F08000A071B4E7A07940060BD520
:101C1000A169A1EB0B00B04206D207EB40204FF4C4
:101C20000072514600F0E3FDE0793044E071760245
:101C300034E0A07940060BD5206801235146407856
:101C4000A269FEF705FF60B9A07920F04000A071FD
:101C5000A16959450FD0206801235A464078514662
:101C600000E002E0FEF7DDFE28B1A07940F0800040
:101C7000A07101207FE7C4F818B0E079401CE07142
:101C80002089C0F30800C0F50076AE4200D92E4688
:101C9000011932463846243100F0A9FDA0683744C6
:101CA0003044A060D8F800008119AD1BC8F80010BE
:101CB000002D7FF46FAF00205DE72DE9F05F4FF05E
:101CC00000090F46C3F800900446818898461646DE
:101CD000006800F0C9FD002803D1A079010601D5F4
:101CE000022048E7800701D4072044E7E16804F1B7
:101CF000240A8A198A4278D39AE0A068C1057BD168
:101D00002268E37991788B420DD3C0B110466169A6
:101D1000FFF77AF8002868D0012835D0411C5ED042
:101D2000606184F80790A079400615D520680123EA
:101D300051464078A269FEF78BFEE8BB08E02069B7
:101D40000028E9D100211046FFF75EF82061E1E7A5
:101D5000A07920F04000A0716169206800F06BFD5F
:101D600090B1E179750A01EB000B29D020684B197D
:101D70008278934200D9551AEBB240785A463946D8
:101D8000FEF766FEC0B904E0A07940F08000A071C3
:101D9000A6E7A169A1EB0B00A8420AD207EB4021FC
:101DA0004FF40072504600F022FDA07920F0400070
:101DB000A071E079284400E011E0E0716D022DE0AF
:101DC000A169594513D0D4E9020188420FD2206895
:101DD00001235A4640785146FEF723FE38B1A079D8
:101DE00040F08000A0710120C5E624E004E0C4F8C2
:101DF00018B0E079401CE0712089C0F30800C0F5FC
:101E00000075B54200D9354620442A46394624306B
:101E100000F0EDFCA07940F04000A071A0682F44D4
:101E20002844A060D8F800004119761BC8F80010BB
:101E3000002E7FF462AFD4E90201884200D9E0604D
:101E4000A07940F02000A071002094E610B504466F
:101E50008188006800F008FD00280ED1A1798A066B
:101E60000BD548060ED52068012304F124014078E3
:101E7000A269FEF7EDFD08B1012010BDA07920F0A8
:101E80004000A071E1692068FEF731FE0028F4D11E
:101E9000206AC17A41F02001C172217B0177A189BA
:101EA000090A4177E168090C8177E168090EC17779
:101EB000217C8176218A090AC1762169090C017584
:101EC0002169090E41750F218175C1750176417631
:101ED000A07920F02000A0712168012008712068FD
:101EE000BDE81040FEF738BE10B50446FFF7AEFF60
:101EF000002801D10021216010BD2DE9F0410D46DF
:101F000004468188006800F0AFFC5FEA000803D156
:101F1000A179080601D5022021E4E068A84202D296
:101F2000890700D405460027A068FF21A760E1715A
:101F3000FDB1226891784E0268B1691E401EB1FB66
:101F4000F6F1B0FBF6F3994205D3711E8843A06009
:101F50002D1A61690CE0216949B900211046FEF78C
:101F600053FF0146012843D0481C52D021616161D2
:101F7000D1B92AE0A0798007206805D5FEF744FF93
:101F8000010004D1354611E0FEF741FE0146481C30
:101F90003FD001292CD92068C069884228D96161C5
:101FA000A068AD1B3044A060B542E3D8A0682844C7
:101FB000A060680AE071E80507D0206800F03BFCEB
:101FC000B0B1E1790F18491CE1712089C00527D013
:101FD000A269BA4224D0A07904F1240140060D463A
:101FE0000FD5206801234078FEF732FD88B904E060
:101FF000A07940F08000A0718DE7A07920F040002A
:10200000A071206801233A4640782946FEF709FD71
:1020100028B1A07940F08000A07101201DE4A761E3
:10202000D4E90201884204D9E060A07940F02000A0
:10203000A071404611E433B5ADF5037D0446014679
:102040006D46002284A8FFF7F8FB00281BD180A86A
:10205000C4E9060520468499FFF782FB80B96069D0
:1020600038B1C17AC9060DD5818A408B61F31F4012
:10207000A06020680021C088A0802046FEF70EFFE7
:10208000042800D105200DF5057D30BD70B50E4644
:10209000ADF5047D044681886D46006800F0E4FBE0
:1020A000002817D180A8C4E90605B6B12046FFF77D
:1020B00076F80025042815D000280BD1314620469B
:1020C000FFF7E5FA00212046FEF727FF042801D19B
:1020D000002025610DF5047D70BD00212046FEF72E
:1020E000DDFEF7E72561E9E773B5ADF50E7D0E4638
:1020F00009AD002269468EA8FFF79FFB040010D1AE
:102100008AA8CDE9060568468E99FFF729FB0400E9
:1021100007D1059820B131466846FFF7B8FA00E0CC
:10212000062420460DF5107D70BD2DE9F7431446B9
:102130008946002221466846FFF77FFB00281CD114
:102140002068C7690169BA1E914202D8C9F8001017
:1021500049E090F800800025B8F1010F01D0066A2F
:1021600017E0022631462068FEF751FD411C03D0DE
:10217000012804D028B105E00120BDE8FE8302203B
:10218000FBE76D1C2068761CC0698642EAD320E01C
:1021900051B93146761C2068FEF7A9FC0028ECD125
:1021A00020684FF400713030B8F1020F06D0027889
:1021B000D0F8013052EA032206D006E0028802B9C4
:1021C0006D1C801C891E02E06D1C001D091F7F1EF6
:1021D000DED12068B8F1030F056102D1216801202A
:1021E0008872C9F800500020C7E770B5044681889E
:1021F000006800F039FB050003D1A179080601D57C
:10220000022070BD880701D4072070BDD4E9020206
:10221000824230D941F02001E060A17150B1616982
:102220002068FEF7F4FC0646401C0BD0012E0BD0B4
:1022300065B11CE021692068FEF7B6FD0546002067
:10224000206113E0012512E0022510E02068C16939
:10225000B14210D96FF070426169FEF730FD0500A0
:1022600005D131462068FEF79FFD05461DB1A079D6
:1022700040F08000A071284670BD11B5ADF5157D08
:1022800009AC0122694695A8FFF7D7FA00280FD1BB
:1022900092A8CDE9060468469599FFF761FA0028EF
:1022A00006D1059818B1C17ACA0730D103E00620DB
:1022B0000DF5167D10BD828A448BC80662F31F445B
:1022C00015D5022C01D20220F2E72422694689A802
:1022D00000F08DFA002189A88B94FEF7DFFD00281D
:1022E000E6D189A8FEF75BFF88B10428E0D16846F3
:1022F000FFF796F80028DBD12CB121460098FEF7B5
:1023000053FD0028D4D10098FEF726FCD0E7072023
:10231000CEE72DE9F14FADF50E7D09AC01226946FE
:102320008EA8FFF78AFA002856D18AA8CDE90604BC
:1023300068468E99FFF714FAF0B304284CD10021B7
:102340000098FEF761FD05004AD0012D4AD0681CB7
:102350004AD000210098FEF7CAFB00283CD129464C
:10236000009800F068FA009C804630344FF4007208
:102370000021204600F043FA0B222021204600F0E5
:102380003EFA2E2727701020E0720F20A075E0750E
:1023900020766076E8B28990A076C5F3072B84F8A2
:1023A0001BB0C5F3074A84F814A04FEA15694FF033
:1023B0000F3684F8159000E00DE02022214604F14C
:1023C000200000F014FA84F821700099029809782E
:1023D00003290BD00FE008200DF50F7DBDE8F08F2D
:1023E0000720F9E70220F7E70120F5E70099496A9D
:1023F000814200D1002084F83A00010A84F83B10A1
:10240000010C000E84F8341084F83500002715E024
:1024100000990120C1F82C80009908F10108087189
:1024200000210098FEF763FB0028D5D14FF400721D
:102430000021204600F0E3F97F1CFFB2009880786D
:10244000B842E5D86846FEF717FF040004D02946D5
:102450000098FEF7A9FC18E005981021C172867556
:10246000310AC175310C0176310E41768999817638
:1024700080F81BB080F814A080F815900099012016
:1024800008710098FEF768FB04462046A4E777B57C
:10249000ADF50D7D15460C466E46012280A98DA82E
:1024A000FFF7CBF9002817D189A8CDE9860680A8C7
:1024B0008D99FFF755F900280ED1859868B105F080
:1024C0002701C27A0C408A431443C47280990120C8
:1024D00008718098FEF740FB24E6062022E633B51B
:1024E000ADF50D7D0C466D46012280A98DA8FFF744
:1024F000A4F900281AD189A8CDE9860580A88D996C
:10250000FFF72EF9002811D1859890B1A179817536
:10251000E188090AC17521790176A188090A417605
:102520008099012008718098FEF716FB0DF50F7D4C
:1025300030BD0620FAE733B5ADF51D7D0C46694682
:102540009AA8CDE99601012290A99DA8FFF775F9F7
:10255000002849D19098819090A89D99FFF700F9A3
:10256000002841D19598E0B300F10B0115228AA80B
:1025700000F03DF9242290A981A800F038F9214605
:1025800081A8FFF7EDF868B304282DD181A8FEF7E4
:1025900073FE002828D1869C13220DF22A2104F113
:1025A0000D0000F024F99DF82802012540F02000DC
:1025B000E07290980571E07AC00631D5A18A608BEF
:1025C0000143819800F037F9010012D08198FEF79D
:1025D0008EFA81995031002806D148782E280AD0E9
:1025E0001EE000E003E004200DF51F7D30BD082053
:1025F000FAE70220F8E781980078032806D1819A4B
:102600008398526A904201D1002000E08398887636
:10261000020ACA76020C0A75000E48758198057187
:1026200090A8FEF7FDFE0028DED19098FEF794FA00
:10263000DAE72DE9F84300259046064604464F1E8A
:102640000DE06B46012221464046FFF780FA0098D4
:10265000012806D114F8010B6D1C0A2801D0BD42D7
:10266000EFDB0020207015B13046BDE8F883002074
:10267000FBE77CB50D0004460AD08DF804406B469C
:10268000012201A92846FFF718FB009808B120464F
:102690007CBD4FF0FF307CBD70B50E460446002572
:1026A00006E03146FFF7E5FF401C06D0641C6D1CB8
:1026B00020780028F5D1284670BD4FF0FF3070BD5E
:1026C0000FB42DE9FF47814600200EAC0546804639
:1026D0006E460D9F17F8012B0D97002A7FD0252AF3
:1026E00002D0494610462FE0002217F8011B13467E
:1026F0000D9730290DD117F8011B01220D9708E025
:1027000003EB83030D9F01EB4303303B17F8011BE1
:102710000D97A1F13007092FF2D96C2905D10D9F32
:1027200042F0020217F8011B0D97732908D06329A4
:1027300008D064290ED075290CD058290CD04EE051
:1027400001CC45E001CC4946FFF793FF411C42D044
:10275000012040E00A2700E01027900703D501CCB4
:10276000642903D007E001CC642904D1002802DAEF
:10277000404242F004020F218DF80F80B0FBF7FCBD
:1027800007FB1C0C0CF1300C0CF0FF0CBCF1390FEA
:1027900003D90CF1070C0CF0FF0CB0FBF7F0491E4D
:1027A00006F801C006D00028E8D1500702D52D2038
:1027B000491E7054C3F10F0006E0D30701D0302347
:1027C00000E02023491E735409B18142F5DC7018E2
:1027D0004946FFF761FF0544411C7FF47AAF411C75
:1027E00000D0284604B0BDE8F0075DF814FB03E014
:1027F00011F8013B00F8013B521EF9D27047C9B2F3
:1028000002E000BF00F8011B521EFBD2704710B55A
:102810000023521E05D310F8013B11F8014B1B1B7E
:10282000F7D0184610BD00E0401C02780AB18A4279
:10283000FAD1D0B27047C269891E921E8A4201D86D
:1028400000207047826A807801FB002070470146B3
:1028500000200B22430803EBC01011F8013B521E6D
:102860001844C0B2F6D1704710B520B1027812B149
:10287000C2888A4201D0092010BD4078FEF7CFF807
:10288000C007F9D0032010BD10B56FF0040002F0AE
:102890002AFB204820490068B0FBF1F0C1B21F4874
:1028A00001EB41020170C2EBC1114FF6FF7202EA67
:1028B000C101418010BD1949097848434FF0E0211A
:1028C000486100228A61086940F0010008610869D6
:1028D000C30701D0C003FAD5086920F001000861E0
:1028E0008A6170470D49498848434FF0E0214861AB
:1028F00000228A61086940F0010008610869C30785
:1029000001D0C003FAD5086920F0010008618A618E
:1029100070470000580A002000127A000C000020C6
:1029200070B506460024334D03E0641CE4B2C82CA5
:102930000FD80221284603F07EFA0028F5D0314650
:10294000284603F034FA002405E0641CE4B2C82CE5
:1029500001D9002070BD0121284603F06CFA00283F
:10296000F3D0284603F025FAC0B270BD38B5012176
:1029700041F2040003F02DF8E020ADF8000018202B
:102980008DF8030003201C4C8DF802006946204698
:1029900002F035FEE021204602F09FFE174800219C
:1029A0004FF482720180428081800222C280012223
:1029B00002815202428138228281C1810721018233
:1029C0000C4C0146204603F04DF90121204603F04E
:1029D000C6F9FF20FFF7A4FF38BD10B50749054C25
:1029E0008881204603F03EF92046BDE810400121D1
:1029F00003F0B5B90030014000080140F41A00208E
:102A0000704740490A885206FCD53E4AC1B2121DA1
:102A10001180704770B5054686B0012144F204006C
:102A200002F0D7FF4FF40070ADF8100003248DF8CA
:102A300012401820344E8DF8130004A9304602F0DD
:102A4000DEFD3015ADF8100004208DF8130004A948
:102A5000304602F0D4FD25208DF814008DF8154085
:102A60008DF8164001208DF8170005A802F0FBF93B
:102A70000020ADF80400ADF80600ADF80800ADF890
:102A80000C000C201F4CADF80A000095694620464A
:102A900003F02EFA012240F22551204603F0A5FA58
:102AA0000121204603F097FA06B070BD70B5154CB1
:102AB00040F22551204603F04FFB00280ED020465F
:102AC00003F0E3FAC2B2114801880B0406D44C04A7
:102AD0004FF0000306D50A2A01D0038070BD41F4EF
:102AE00000410DE00D2A09D0C1F30D04084D491C29
:102AF00089B22A550180C729EFD870BD41F48041C1
:102B0000018070BD00380140000801401000002025
:102B1000061B002008B1002205E00120704700BF1D
:102B200040F82220521CB2EB910FF9D300207047DD
:102B3000FEE702E000F8012B491C0A78002AF9D1CF
:102B400000210170704718467047FEE7002070476B
:102B50000020704708B531208DF8000000208DF866
:102B600001008DF8020001208DF80300684602F094
:102B70007AF908BD00B595B0FFF7ECFF4FF4A060FF
:102B800002F06CF900F0E2F92A2813D1684600F04F
:102B90002FFA2A280ED1BDF84C00000400F088FC62
:102BA0002A2807D1002000F03DFC2A2802D100206D
:102BB00000F072FC15B000BD10B5FF482A24416B2F
:102BC00011F0450FFBD0480702D50324042003E091
:102BD000C80705D00124204603F009F8204610BD9F
:102BE00040F2FF50F8E72DE9F84F01202A25ADF813
:102BF000000002F073FFB8B3DFF8C093D9F8040007
:102C000004286DD0EE4C4FF0C00A00260220C4F814
:102C100008A0C4E900604FF48068C4E90368204656
:102C200002F06DFFFFF7C8FF05462A281ED10020DD
:102C300002F081FFA4F128073860042002F07BFF36
:102C40007860082002F077FFB8600C2002F073FF74
:102C5000F860D9F804004F4650B1012808D0062882
:102C600006D0022804D014E0FFE72520BDE8F88F45
:102C70000320E4E80260402084E84101D048083C99
:102C800002F03DFF6946032001F068FC05462A2852
:102C9000ECD17868042823D0BDF80000B8600004A7
:102CA00020600920C4E9010AC4E90368C44802F0AD
:102CB00026FFFFF781FF05462A28D7D1002002F022
:102CC0003AFFBF4C383C2060042002F034FF6060C3
:102CD000082002F030FFA0600C2002F02CFFE06022
:102CE0002846C3E770B5B44905462A24486B10F05E
:102CF000450FFBD0410702D50324042003E0C007A1
:102D000004D00124204602F072FF59E002F00FFFC8
:102D1000A8422BD140F2FF5002F069FF002002F0E0
:102D20000AFFA84908424BD0002801DA1C2070BDD8
:102D3000410001D5092070BD810001D50A2070BD78
:102D4000C10001D50B2070BD010101D50C2070BD63
:102D5000410101D50D2070BDC10101D50E2070BD0E
:102D6000010201D50F2070BD410201D5102070BDB8
:102D7000810201D5112070BDC10201D5122070BDA4
:102D8000010301D5132070BD410301D5142070BD8E
:102D9000810301D5152070BDC10301D5162070BD7A
:102DA000010401D5172070BD410401D5182070BD64
:102DB000810401D5192070BD000701D51A2070BD0E
:102DC000204670BD2DE9F05F7D484FF000091838AE
:102DD000B2210175C0F80090C0F80490C0F80890C6
:102DE000C0F80C90C8464F46C0F8109002F04DFE57
:102DF000032002F06AFE012002F063FE704C4FF4E3
:102E00008065204627606760A760C4E9037502F00B
:102E100076FE42F2107A564601E0761E1BD08020E4
:102E200002F0DDFE0028F8D0AEB140F2FF5002F013
:102E3000DEFE4FF4D5702060211D0820402625615C
:102E400081E8C1005E4802F05AFE5B4A5046516B71
:102E50004FF0370B05E00320BDE8F09F5649496B62
:102E6000401E11F0450F11D008B1480711D50420BC
:102E700002F0BDFEA660C4E9007BC4E903755048BA
:102E800002F03DFE3720FFF72DFF0CE00028E5D1D2
:102E9000EDE7480602D5402002F0A9FE474801218F
:102EA0004FF080484160A660C4E9007BC4E9037527
:102EB000BA46434802F023FE3720FFF713FF0746C8
:102EC0002A2841D1A660C4E900ABC4E903A557464E
:102ED0003B4802F014FE3720FFF704FF2A28BBD13D
:102EE000394948EA01002060211D2920256181E837
:102EF000C100334802F003FE2F492A27486B10F027
:102F0000450FFBD0400704D50327042002F06FFED5
:102F10001AE040F2FF5002F06AFE002002F00BFEC1
:102F2000C10F09F1010903D14FF6FF718945C9D3DA
:102F30004FF6FF72914501D31B208DE710F0804FB3
:102F400002D01E4802214160384685E738B501218C
:102F5000302002F03EFD4FF4F850ADF800000320A1
:102F60008DF8020018208DF803006946174802F01A
:102F700046FB0420ADF800006946154802F03FFB0F
:102F80000121880202F01CFD0121022002F018FD3F
:102F900002F06EFDFFF716FF2A2821D1FFF723FE6E
:102FA00004462A281CD10649012018390022087538
:102FB0000A604A608A600DE000800140180000202D
:102FC000081C002008E0FFFD0000108000100140F8
:102FD00000140140CA6008460A6102F056FD20460E
:102FE00038BD10B52A24002002F06FFD204610BD28
:102FF0002DE9F047FA49DFF8EC834FF02A0C4D68D1
:1030000080F84E500989A0F84C10D8F800100A0E2C
:1030100093090370C2F38303437002F003028270CA
:103020000A0CC2700A0A02714171D8F80440210EDC
:103030000901C180C288C4F3074142EA1112C2806B
:1030400001F00F010172C4F30721CA094272C1F3F2
:1030500080128272C1F34012C272C1F30012027375
:103060004FF0000980F80D9042464FF0010A966833
:10307000330EC6F30742C6F3072725B1012D02D050
:10308000022D2BD03CE08907090D0161E1B20469F2
:1030900044EA81010161016941EA93110161C3F3CD
:1030A000C201017503F00701417551098175C2F331
:1030B0008201C1759107490F0176027E394642EAC5
:1030C000D11202760269037E521C9B1C047A9A403C
:1030D0000AFA04F35A43C0E9112311E0A106890A50
:1030E0000161016941EA0321016101691143016143
:1030F00002693946521CD20442644FF40072826461
:10310000C1F3801242768906490E00F81A1FF1B207
:1031100010F8022B42EAD11200F8022C01F07F01D4
:1031200000F8011CD8F80C20110ECB090370C1F374
:1031300041134370C1F3820383708907090FC17083
:10314000C378C2F3074143EA9113C370C1F340133C
:10315000037180F8059001F001018171C2F307212C
:10316000CB09C371C1F380130372C1F340134372DF
:10317000C1F300138372C1F38103C37201F0030131
:103180000173C2F346014173534680F80EA0954A7D
:10319000103211680C0E04740C0C24024482458A0F
:1031A000C1F30724254345820906416151684569F9
:1031B0000C0E45EA044444614569C1F3074445EAFD
:1031C000042444614569C1F3072425434561017620
:1031D00091680C0E44760C0C2406C461C569C1F3D9
:1031E000072445EA0444C461C469C9B244EA012120
:1031F000C161D168C46944EA1164C46190F8204097
:10320000C1F3074244EA121480F820401207120D5D
:103210004284448CC1F3072214434484C1F3460121
:1032200080F8241080F825306046BDE8F0872DE94D
:10323000FC5F6C4C0025383400954FF48068019594
:103240004027C4F81080C4E902750E464FF0080B01
:103250001021C4E900B1A946204602F050FC10201C
:10326000FFF740FD2A284DD15D48BA464F460089F8
:10327000000420603720C4E9010AC4E9039820460D
:1032800002F03DFC3720FFF72DFD2A283AD104F14A
:1032900014005549C0E9001B302181600221C0E9BA
:1032A00003170121416102F04DFC3320C4F808A04E
:1032B000C4E90070C4E90378204602F020FC332002
:1032C000FFF710FD04462A281CD1484F4FF4001A7E
:1032D000E94640F22A68786B10EA080F0AD1504696
:1032E00002F07DFC0028F6D002F04CFC49F82500E5
:1032F0006D1CF0E7082002F072FC28B1082002F0F3
:1033000076FC0420BDE8FC9F022002F068FC20B19E
:10331000022002F06CFC0220F4E7202002F05FFCA7
:1033200020B1202002F063FC0620EBE74FF400758B
:10333000284602F054FC20B1284602F058FC072031
:10334000E0E740F2FF5002F052FC009800BA7060D3
:10335000019800BA30602046D4E72DE9FC470025EB
:10336000804600952846019502F0E5FB800102D5D4
:103370000E20BDE8FC871A4F6946388980B2FFF7F6
:1033800056FF2A28F5D1174C3720383440260199AA
:103390004FF0060A4FF48069B8F1010F28D0C90335
:1033A0003ED53989C4F810900904C4E90010C4E975
:1033B0000265204602F0A3FB3720FFF793FC2A2882
:1033C000D7D1C4E9005AC4F8109000BFC4E902651F
:1033D0000448383002F093FB0620FFF783FCC8E76F
:1033E00018000020D01B0020FFFF0F0000800140CC
:1033F000490315D53989C4F810900904C4E90010AF
:10340000C4E90265FD4802F07AFB3720FFF76AFC49
:103410002A28AED10220C4F81090C4E9000AD5E7EA
:103420002520A6E72DE9F0410146F5482A26406807
:10343000032816D018B1012801D002282AD1B1F5ED
:10344000805F0ED0ED4C4FF4006800250127183C3A
:1034500041450FD10120FFF780FF06462A2803D0FF
:1034600018E02720BDE8F081277525606560C4E974
:1034700002580AE00020FFF770FF06462A2809D10B
:10348000277525606560A560E560DC482561183812
:1034900002F0FBFA3046E5E72A2130B1012804D0DA
:1034A000022802D0262108467047D54AD060FAE7A4
:1034B000D24910B50860072048604020886000208D
:1034C000C8604FF480600861084602F018FBBDE850
:1034D0001040072006E470B505468CB00C46C9487C
:1034E00001F0D1FDC84E0021304601F0A6FDC748CD
:1034F000CDE900050020A108CDE902018021CDE938
:103500000401890006918900CDE907108900CDE901
:1035100009106946304601F066FD0121304601F090
:103520008CFD0CB070BD2DE9F84F14460D00064619
:103530007ED0DFF8CC922A2089F800000027C9F855
:103540001870DFF8B882B24908F11408C9F8107091
:10355000C8E90017C8F80870C8F80C70C8F81070EF
:103560004046C8F8147002F0EDFA002002F0C4FAE8
:10357000002002F0E0FA800102D50E20BDE8F88FAD
:103580009F484FF4007B4068022853D0601EB0F57E
:10359000006F4DD2601E04424AD1204601F013F85C
:1035A000DFF85892009048461021C0E900414FF0E2
:1035B000400AC9E902A78901C9F8101002F09FFA70
:1035C0001020FFF78FFB2A28D8D19148C8E90004C2
:1035D00000980001C8F808000220C8E9030701208C
:1035E000C8F8140009F1140002F0ACFADFF81082F8
:1035F00048461121C8E90447C8F82450C0E90061D1
:10360000C9E902A74FF48061C9F8101002F077FAF7
:103610001120FFF767FB06462A28AFD1D8F80C0027
:103620004746022817D0012856D080B379E0FFE73B
:103630002620A3E75C46760AACE7484602F0CFFABC
:1036400078B1002402F09EFA45F82400641C082C8E
:10365000F8D3203505E06D4F4FF40049803F40F22C
:103660002A68786B10EA080FE7D0082002F0B7FA52
:1036700020B1082002F0BBFA04207FE7022002F00C
:10368000AEFA28B1022002F0B2FA022076E732E068
:10369000202002F0A4FA20B1202002F0A8FA06208F
:1036A0006CE75C46584602F09AFA48B1204602F0B0
:1036B0009EFA072062E700BF02F064FA01C501E04C
:1036C0004FF40014204602F08AFA0028F4D140F2A8
:1036D000FF5002F08CFA24E0012148F22A3002F077
:1036E00002FAB86910B938782A28FAD038782A2826
:1036F00017D0387842E7012140F22A3002F0F3F97E
:10370000012002F0F9F921462846FFF7E4FE6FF0A8
:103710007F44404D00E0641E284601F0A6FC10B135
:103720001CB130462AE7002CF5D1292026E72DE9E7
:10373000F84F1E4614460D00804647D0DFF8C09073
:103740002A2189F800100027C9F818702B48304941
:103750001430C9F81070C0E900178760C7600761AE
:10376000476102F0EFF9002002F0C6F9002002F0F4
:10377000E2F9800101D50E2000E7D9F80400022803
:1037800026D0601EB0F5006F20D2601E04421DD10D
:10379000204600F018FF009018484FF0400B102111
:1037A000C0F808B0C0E900418901C0E90371BA4618
:1037B00002F0A5F91020FFF795FA07462A28DBD179
:1037C000012E50D96643B6F1007F06D32620D5E6F8
:1037D0004FF400744FEA5828D7E74C4601210748B8
:1037E000C9F82450C4E904611430094AC0E900262C
:1037F000009AD1461201826002220DE0081C0020CE
:103800001800002000F000104404024080800140B5
:10381000FFFF0F0000200010C260C0E904A157465E
:1038200002F090F94146DFF858844FF4806A404630
:10383000C8F800101221C8F804104021C8E9021786
:10384000C8F810A002F05BF91220FFF74BFA074608
:103850002A2891D1E06840F22A32022813D00128A8
:103860006BD0002879D090E04FF4004002F0B7F917
:1038700050B1002602F086F945F82600761C082E85
:10388000F8D3203500E09346FE48406B10EA0B0F5A
:10389000EAD0082002F0A3F920B1082002F0A7F92D
:1038A00004206BE6022002F09AF920B1022002F017
:1038B0009EF9022062E6202002F091F920B120203A
:1038C00002F095F9062059E64FF40076304602F0F2
:1038D00086F948B1304602F08AF907204EE600BF6B
:1038E00002F050F901C501E04FF40016304602F035
:1038F00076F90028F4D14FF4807002F070F9B8B175
:10390000606818B1022801D0012811D140460C226C
:10391000C0E900924022C8E90229D948C8F810A09D
:1039200002F0EDF80C20FFF7DDF907462A28B8D1A0
:1039300040F2FF5002F05BF927E0012148F22A3003
:1039400002F0D1F8A06910B920782A28FAD020789E
:103950002A281AD0207811E6FFE70121104602F04C
:10396000C2F8012002F0C8F831462846FFF7B3FD3F
:10397000C54D284601F079FB0028FAD0A06900283F
:10398000E5D120782A28F9D0E1E73846F6E57CB57C
:1039900004460022BD48009201920089B849000403
:1039A0002A2508600D2048604020C1E9020200017C
:1039B0000861084602F0A3F8B248416B019111F08A
:1039C000450FFAD00198400702D50324042004E0F3
:1039D0000198C00705D00124204602F008F92046CE
:1039E0007CBD02F0A4F801900D2838D140F2FF50C0
:1039F00002F0FDF8002002F09EF80090C0F3432092
:103A00002070A349009808425DD00098002801DA90
:103A10001C207CBD400001D509207CBD00988000A1
:103A200001D50A207CBD0098C00001D50B207CBDCB
:103A30000098000101D50C207CBD0098400101D503
:103A40000D207CBD0098C00101D50E207CBD0098E2
:103A5000000201D50F207CBD0098400201D5102046
:103A60007CBD0098800201D511207CBD0098C00269
:103A700001D512207CBD0098000301D513207CBD28
:103A80000098400301D514207CBD0098800301D527
:103A900015207CBD0098C00301D516207CBD009880
:103AA000000401D517207CBD0098400401D51820E2
:103AB0007CBD0098800401D519207CBD00980007CA
:103AC00001D51A207CBD28467CBD70B505468CB05A
:103AD0000C46704801F0D7FA6F4E0021304601F0D5
:103AE000ACFA684880218030CDE9000510200290B2
:103AF000A00803900020CDE9040189000691890007
:103B0000CDE907108900CDE909106946304601F07A
:103B10006AFA0121304601F090FA02E52DE9FC5FD6
:103B20004FF0000714460D0080468DF800703E46A9
:103B300067D0DFF858912A2189F80010C9F8187069
:103B4000DFF83CB155490BF1140B5846C9F8107019
:103B5000C0E90017CBF80870CBF80C70CBF81070E8
:103B6000CBF8147001F0EEFF002001F0C5FF00203B
:103B700001F0E1FF800102D50E20BDE8FC9FD9F8DD
:103B8000040002283FD0601EB0F5006F39D2601EDD
:103B9000044236D1204600F016FDDFF8E4A0019083
:103BA00050461021C0E900414021CAE9021709012D
:103BB000CAF8101001F0A3FF1020FFF793F82A288D
:103BC000DBD13248D1460089010450464FF00D0A3E
:103BD000C0E9001A402181600021C1604FF480617A
:103BE0002748C9F8101001F08AFF0D20FFF77AF876
:103BF0002A28C2D1002001F09EFF284F4FF0000A72
:103C000020E02620B9E74FF400744FEA5828BEE7B9
:103C10001E487F1E00890104C9F800100D21C9F853
:103C200004104021C9E9021A09011548C9F8101009
:103C300001F065FF0D20FFF755F82A289DD10020DF
:103C400001F079FFC00502D4002FE1D141E03FB37C
:103C500048461821C0E900814021C0E9021A090143
:103C60000161D146064801F04AFF1820FFF73AF8F3
:103C70002A2882D1DFF81480084A4746584610E0C7
:103C8000081C0020008001400020001018000020C7
:103C900008E0FFFD00F0001044040240FFFF0F00A9
:103CA00017E0C8F82050C7E90449C0E90024019A88
:103CB00001211201C0E90229CBE90491F84801F081
:103CC00041FFF86802282DD0464601285AD0D8B3C3
:103CD00080E0292051E700BF4FF4804001F07FFFD2
:103CE000F8B1D8F81000801B20280FD281074FEAC6
:103CF000900700D07F1C002405E0286801F046FFF3
:103D0000641C2D1D361DBC4210D2F6E75FF0000486
:103D100055F8240001F03AFF641C082CF8D3203534
:103D2000203603E0DFF87C9340F21A6AD9F83400B9
:103D300010EA0A0FD0D0082001F051FF28B1082066
:103D400001F055FF042018E72BE0022001F047FFA7
:103D500020B1022001F04BFF02200EE7102001F0FD
:103D60003EFF20B1102001F042FF052005E74FF48F
:103D70000074204601F033FF60B3204601F037FFA6
:103D80000720FAE6012144F21A3001F0ACFEB069D6
:103D900010B930782A28FAD030782A281AD030780A
:103DA000EBE6012140F21A3001F09DFE2146284643
:103DB000FFF78BFE012001F09FFEBB4C204601F077
:103DC00054F90028FAD0B0690028E5D130782A28C3
:103DD000F9D0E1E740F2FF5001F009FF6846FFF734
:103DE000D6FD2A28AFD19DF800100729F6D0062964
:103DF000F4D0C2E62DE9FC5F81464FF00000984602
:103E000017460C008DF8000006465DD0A74D2A210C
:103E100029708246A861A249A54A2861C1E900200B
:103E20008860C86008614861084601F08BFE002088
:103E300001F062FE002001F07EFE800101D50E201F
:103E40009BE66868022841D0781EB0F5006F3BD22F
:103E5000781E074238D1384600F0B5FB01909048F3
:103E600010211438C0E900714021C0E9021A09018B
:103E7000016101F044FE1020FEF734FF2A28DFD153
:103E80008A48DFF81CA24FF4806B0089AAF1140A5B
:103E90000104CAF800100D21CAF804104021CAF824
:103EA00008100021CAE9031B504601F028FE0D202E
:103EB000FEF718FF2A28C3D1B8F1010F6ED908FB0D
:103EC00007F5B5F1007F06D3262056E64FF40077BC
:103ED0004FEA5929BCE7754F786818B1012801D01D
:103EE000022828D138890104CAF800103721CAF8FD
:103EF00004104021CAF8081000216948CAE9031BD0
:103F0000143801F0FCFD3720FEF7ECFE2A2897D18B
:103F100050461721C0E900814021CAF8081000214D
:103F20005F48CAE9031B143801F0E9FD1720FEF7CA
:103F3000D9FE2A2884D150461921C0E900914FF0BA
:103F400040090021CAE9029155484FF480611438B4
:103F5000CAF8101001F0D3FD1920FEF7C3FE2A287D
:103F6000B3D101223C624E48C7E904525049C0E92E
:103F7000001501994FF0000B0901C0E9021BC0E9CF
:103F800004B2B84601F0DEFDF86840F21A320228A9
:103F90002BD04646012874D0002871D0A3E000BF82
:103FA0004FF4804001F01BFEF8B1D8F81000801BE0
:103FB00020280BD35FF0000554F8250001F0E6FD42
:103FC0006D1C082DF8D3203420360EE081074FEA0F
:103FD000900700D07F1C002505E0206801F0D6FD89
:103FE000241D6D1C361DBD42F7D32E48406B40F298
:103FF0001A310842D4D0082001F0F1FD20B1082088
:1040000001F0F5FD0420B8E5022001F0E8FD20B143
:10401000022001F0ECFD0220AFE5102001F0DFFDF1
:1040200020B1102001F0E3FD0520A6E54FF4007457
:10403000204601F0D4FD20B1204601F0D8FD072034
:104040009BE54FF4807001F0CAFD98B3D8F80400E6
:1040500018B1012801D0022845D159460C228AE81E
:1040600006024FF480610E48CAE903B1143801F02A
:1040700046FD0C20FEF736FE2A28C4D133E000E0CE
:1040800019E0012144F21A3001F02DFDB06910B998
:1040900030782A28FAD030782A2824D030786CE575
:1040A0001C1C00200080014000200010180000208F
:1040B000FFFF0F0017E00121104601F014FD012061
:1040C00001F01AFD29462046FFF7FFFCFD4C204673
:1040D00000F0CBFF0028FAD0B0690028DBD130789F
:1040E0002A28F9D0D7E740F2FF5001F080FD68465A
:1040F000FFF74DFC2A2886D19DF800100729F6D03D
:104100000629F4D039E5F048406B10F4405000D057
:1041100001207047ED4810B500210C22C0E90012C3
:104120004022C0E902211101016101F0E8FCBDE873
:1041300010400C20FEF7D6BD2DE9FC478046E34831
:104140000026383801968DF8006040680F46000D53
:104150003546800602D42520BDE8FC87DA48406851
:10416000DB49C0B2801CB1FBF0F00190002001F0EF
:10417000E2FC800101D50E20EEE7D648D34C4FF08B
:10418000400A40684FF48069022805D038B1012800
:1041900005D0022803D021E04FEA58287F0A2020CA
:1041A000C4E90080C4F81090C4E902A5D046C7480D
:1041B00001F0A5FC2020FEF795FD2A28CCD1212076
:1041C000C4F81090C4E90070C4E90285BF4801F04A
:1041D00096FC2120FEF786FD2A28BDD12046262107
:1041E000C0E90051C4E902A5B848C4F8109001F034
:1041F00086FC2620FEF776FD2A28ADD100E0761C4D
:1042000001988642FBD36846FFF7C1FB2A28A3D159
:104210009DF800100729F6D00629F4D09CE770B568
:1042200004001CD0AB48A9490089000408600D2097
:104230004860402088600020C8604FF480600861BA
:10424000084601F05CFC0D20FEF74CFD05462A28CF
:1042500004D1002001F06FFC2060284670BD2620AC
:1042600070BD2DE9F0470446002001F064FC800198
:1042700002D50E20BDE8F087944D40261020E5E8D9
:10428000026000274FF4806885E8C0018F48083D30
:1042900001F035FC1020FEF725FD2A28EAD18D48D3
:1042A0000089000401C5372085E8C10187482D1F1A
:1042B00001F025FC3720FEF715FD2A28DAD18348C6
:1042C00085491430C0E90016602181600221C0E9EF
:1042D00003170121416101F035FC0D20E5E8027072
:1042E0007A4885E8C00101F00AFC0D20FEF7FAFCCF
:1042F00006462A28BED1744F4FF4004940F22A687E
:10430000786B10EA080F0ED1484601F068FC0028CF
:10431000F6D0002501F036FC44F825006D1C082D70
:10432000F8D32034ECE7082001F059FC20B1082034
:1043300001F05DFC04209DE7022001F050FC20B15B
:10434000022001F054FC022094E7202001F047FCF9
:1043500020B1202001F04BFC06208BE74FF40075C4
:10436000284601F03CFC48B1284601F040FC0720FB
:1043700080E700BF01F006FC01C401E04FF4001526
:10438000284601F02CFC0028F4D140F2FF5001F047
:104390002EFC0020B4F1400454F8201009BA44F86F
:1043A0002010401C1028F7D3304663E72DE9F04178
:1043B000484D0024E868012841D1C00301F01AFCEF
:1043C00060B100BF01F0DEFB696A41F82400641CA3
:1043D000082CF7D3686A203068622DE04FF48040E3
:1043E00001F008FC58B3E9692869411A202918D25C
:1043F000E969411A8907E969A0EB01004FEA9006D3
:104400000CD0761C0AE0286A006801F0BFFB286A1D
:10441000001D2862E869001DE861641CB442F2D303
:104420000DE0286A50F8240001F0B0FB641C082C51
:10443000F7D3286A20302862E8692030E8614FF419
:104440008076304601F0D6FB00244CF23A3848B36F
:10445000E86890B17703384601F0C1FB68B1E869BC
:104460002969884209D201F08DFB0146686A02C0C1
:104470006862E869001DE861EDE7686901280ED00F
:104480002A202870304601F0BDFB0021404601F093
:104490002AFB0120A861EC612878BDE8F081FFF7D4
:1044A00039FEEEE7022001F0A5FBB8B1022001F0D1
:1044B000A9FB0021404601F016FBEC6102202870A8
:1044C000EBE700000020001000800140081C0020E5
:1044D0004019010018000020FFFF0F00082001F024
:1044E00089FB50B1082001F08DFB0021404601F00E
:1044F000FAFAEC6104202870CFE7202001F07AFB63
:1045000050B1202001F07EFB0021404601F0EBFA83
:10451000EC6106202870C0E7102001F06BFB50B161
:10452000102001F06FFB0021404601F0DCFAEC6145
:1045300005202870B1E74FF40076304601F05AFBB1
:1045400050B1304601F05EFB0021404601F0CBFA4D
:10455000EC6107202870A0E72A209EE770B50C4682
:104560001D4906462A25486B10F0450FFBD0410730
:1045700002D50324042003E0C00705D0012420460F
:1045800001F035FB204670BD01F0D1FAB04212D1E6
:1045900040F2FF5001F02BFB002001F0CCFA10F4A8
:1045A000604F03D0810404D5132070BD000C20801F
:1045B00007E0410401D5102070BD000401D50F2093
:1045C00070BD284670BD002102E04008491CC9B2F8
:1045D0000128FAD1084670470080014008B5012142
:1045E000102001F0F6F90820ADF8000048208DF801
:1045F00003006946FE4801F002F808BD10B5082125
:10460000FB4801F056F808B1002010BD012010BD94
:10461000FEF786B93820FEF7E0B90020FEF7DDB9D5
:1046200038B50121042001F0D4F91020ADF80000C4
:104630008DF803000320EF4C8DF8020069462046F8
:1046400000F0DDFF1021204601F047F8FEF78EF95B
:10465000E9490120C1F8900138BDE7490120C1F8BE
:104660009001FF20FEF75CB970B500246FF07F4524
:10467000FF20FFF7CDFFFF2804D0641CAC42F7D326
:10468000012070BD002070BDDB4910B50020C1F8CD
:104690009001FFF7E9FF002802D0FFF7DEFF0120BD
:1046A00010BD70B505464FF6FF7401E0641EA4B25C
:1046B000FF20FFF7ADFFA84202D0002CF6D102E0A8
:1046C0000CB1002070BDFF2070BD70B504460D46D2
:1046D000FE20FFF7E6FF28B1012070BDFEF720F9AC
:1046E00004F8010B6D1EADB24FF0FF00F6D2FEF7DD
:1046F00017F9FF20FEF714F9002070BD70B50C46C5
:104700000546FFF7B1FF08B1012070BD2046FEF756
:1047100007F9FD2C18D000244FF40076285DFEF731
:10472000FFF8641CA4B2B442F8D3FF20FEF7F8F8F7
:10473000FF20FEF7F5F8FF20FFF76AFF00F01F00EB
:10474000052801D0022070BD002070BD70B515464F
:104750000C460646FFF781FFFFF796FF08B1FF20E2
:1047600070BD46F04000FEF7DBF8200EFEF7D8F8EB
:10477000C4F30740FEF7D4F8C4F30720FEF7D0F8DF
:10478000E0B2FEF7CDF82846FEF7CAF80C2E02D1AB
:10479000FF20FEF7C5F81F24FF20FFF739FF0106B1
:1047A000DED5641EE4B2F7D270BD70B505460122B5
:1047B00000210A20FFF7CAFF040004D11021284677
:1047C000FFF783FF0446FFF748FF0CB1012070BDDF
:1047D000002070BD70B50546012200210920FFF7B9
:1047E000B5FF040004D110212846FFF76EFF0446F0
:1047F000FFF733FF0CB1012070BD002070BD1FB565
:104800006846FFF7E7FF10B1002004B010BD9DF827
:1048100000100120B0EB911F09D19DF808209DF8F0
:10482000091000EB0220084400048009EDE79DF820
:1048300005009DF80A1000F00F0000EBD1109DF864
:1048400009109DF8072001F0030100EB41019DF8DC
:104850000800800900EB82009DF8062002F00302A8
:1048600000EB8220401CC91F8840CEE72DE9F843A9
:10487000FFF7D6FE3820FEF7B0F80024FF20FEF741
:104880004FF8641CA4B20A2CF8D3142400219522FA
:104890000846FFF75BFF0546012802D0641EA4B25C
:1048A000F4D2564E0027012D37707AD187224FF46B
:1048B000D5710820FFF74AFF4FF6FE7801281ED079
:1048C000012200213720FFF741FF0122002129208A
:1048D000FFF73CFF01284FD80220307044460122E8
:1048E00000213720FFF732FF012200212920FFF7A6
:1048F0002DFF05004DD0641EA4B2F0D249E0002483
:104900006F46FF20FFF784FE3855641CA4B2042CC8
:10491000F7D39DF80200012843D19DF80300AA288F
:104920003FD144464FF08048012200213720FFF755
:104930000DFF012241462920FFF708FF050002D0A4
:10494000641EA4B2F0D2B4B1012200213A20FFF7D4
:10495000FDFE80B90024FF20FFF75AFE3855641C85
:10496000A4B2042CF7D39DF80000400601D5062020
:1049700000E00420307014E0012030704446012231
:1049800000211046FFF7E2FE050002D0641EA4B22B
:10499000F5D22CB1012251021020FFF7D7FE00B151
:1049A0003770FFF75AFE0020FEF717F8307810B185
:1049B0000020BDE8F8830DB12846FAE7AA20F8E701
:1049C0002DE9F04106460D4815460078062800D02E
:1049D00049024FF40077012D4FF0010223D012203D
:1049E000FFF7B4FE39463046FFF76FFE044607E096
:1049F000001001400008014000002142400000205A
:104A00006D1E06F5007615F0FF0501D0002CE9D0EB
:104A1000012200210C20FFF799FE00BFFFF71DFEC9
:104A20002046BDE8F0811120FFF790FE0400F5D18B
:104A300039463046FFF749FE0446EFE770B50646B3
:104A40001D4815460C460078062800D04C02012D62
:104A500013D0012809D0012200213720FFF776FE6C
:104A6000012229461720FFF771FE01222146192055
:104A7000FFF76CFE04000AD01AE00122214618203C
:104A8000FFF764FE040013D1FE2130460DE0FC2147
:104A90003046FFF733FE6D1E06F5007615F0FF0574
:104AA00001D00028F3D0FD210020FFF727FE0446A7
:104AB000FFF7D3FD204670BD4000002070B5C04C0C
:104AC00005462021204600F00AFE4FF40041BD4873
:104AD00000F005FE2846FDF723FF0120FDF702FF49
:104AE0002046BDE87040202100F0F7BD70B5B44C01
:104AF00005462021204600F0F2FD4FF40041B14868
:104B000000F0EBFD2846FDF70BFF0120FDF7EAFE64
:104B10002046BDE87040202100F0DFBDF8B501213E
:104B20000D2000F056FF0121A74800F0F7FD3020CE
:104B3000ADF800001024A24E8DF8034003258DF837
:104B400002506946304600F05AFDE002ADF8000020
:104B50008DF803408DF8025069469A4800F04FFDE9
:104B6000FDF704FF0020FDF738FF1021304600F06C
:104B7000B6FD3220FDF7B6FE1021304600F0ADFD47
:104B80000120FDF7AFFEE220FFF798FF0120FDF7BF
:104B9000A9FEA020FFF792FFC820FFF78FFFA220F9
:104BA000FFF78CFF2F20FFF789FF2520FFF786FFF7
:104BB0008120FFF783FF1E20FFF780FF1020FFF703
:104BC0007DFF4020FFF77AFFAF20FFF777FFF8BDAA
:104BD00010B5AF300C46C0B2FFF770FFC4F303103E
:104BE0001030FFF76BFF04F00F00BDE8104065E7E1
:104BF00070B5002404F1B000C0B2FFF75FFF1020D1
:104C0000FFF75CFF0020FFF759FF00250020FFF7AA
:104C10006DFF6D1CEDB2842DF8D3641CE4B2092C39
:104C2000E8D370BD70B5064600240121601CFFF773
:104C3000CFFF00253078FFF759FF6D1CEDB2761CD1
:104C4000802DF7D3641CE4B2082CEED370BD2DE99F
:104C5000F041164688460746002438194146FFF7BA
:104C6000B7FF00253078FFF741FF6D1CEDB2761CD1
:104C7000102DF7D3641CE4B2022CEED3BDE8F08112
:104C80002DE9F0411646884607460024381941466A
:104C9000FFF79EFF00253078FFF728FF6D1CEDB26F
:104CA000761C082DF7D3641CE4B2022CEED3E5E7A2
:104CB00070B51546FFF78CFF00242878FFF716FF24
:104CC000641CE4B26D1C052CF7D370BD10B5012136
:104CD0000220FFF77DFF00240820FFF707FF641C78
:104CE000E4B2802CF8D310BD30B4062B19D2DFE823
:104CF00003F01803090E1316344B02EB820230BC8A
:104D00001A44D5E7324B30BC03EB0212B8E7314B03
:104D100030BC03EB42129AE730BC2F4882E730BC2C
:104D2000D4E730BC704770B5203AD2B2274B02EBC3
:104D30008202D518FFF74CFF00242878FFF7D6FE33
:104D4000641CE4B26D1C052CF7D370BD70B506462B
:104D500001EB410040061546040E06E021463046B0
:104D6000FFF7E1FFA41DE4B26D1C2A78002AF5D1FB
:104D700070BD70B500EB4000144C40000E4610F0C2
:104D8000FF05A4F1010402D02078401C2070207897
:104D9000082803D901202070FFF72AFF304601F0D0
:104DA000D7FA0EA001F0D4FA06E029462078FFF7E2
:104DB000BAFFAD1DEDB2761C3278002AF5D170BD78
:104DC000000C0140000801400002300042000020B9
:104DD0002202002022080020341C00200D0A0000BE
:104DE000401EFDD2704770B517210023194D0124D4
:104DF00020FA01F212F0010FC5F8804105D001221E
:104E0000521EFDD2C5F8803104E0C5F88031012280
:104E1000521EFDD2491EEBD570BD38B501210820C8
:104E200000F0D7FD0120ADF8000010208DF8030040
:104E30000320094C8DF802006946204600F0DFFB94
:104E40000121204600F049FC4FF47F00FFF7CBFF23
:104E500038BD000000802142000C01402849084371
:104E600028490860704770B50F23C4780178012283
:104E7000F4B1244C2468457804F4E064C4F5E0649B
:104E8000240AC4F10406E3408478B5401C402C4356
:104E900001F1E021230181F80034007800F01F01C6
:104EA0008A404009800000F1E020C0F8002170BD78
:104EB00001F01F0082404809800000F1E020C0F8A6
:104EC000802170BD104A114001430E48001F01604F
:104ED00070470C4A121D0029116801D0014300E0FF
:104EE0008143116070474FF0E0210428086903D026
:104EF00020F004000861704740F00400FAE7000069
:104F00000000FA050CED00E080FFFF1F01684FF67E
:104F1000FE72114001600021016041608160C1604A
:104F20006A496A4A0839904203D1486840F00F0044
:104F300006E0664A1432904204D1486840F0F0001E
:104F400048607047614A2832904203D1486840F473
:104F50007060F5E75D4A3C32904203D1486840F406
:104F60007040EDE7594A5032904203D1486840F40E
:104F70007020E5E7554A6432904203D1486840F416
:104F80007000DDE7514A7832904203D1486840F022
:104F90007060D5E74E4A111F904203D1086840F077
:104FA0000F0006E04A4A1432904204D1086840F0EB
:104FB000F00008607047464A2832904203D10868E2
:104FC00040F47060F5E7424A3C32904203D10868F1
:104FD00040F47040EDE73E4A50329042EAD1086812
:104FE00040F47020E5E730B5036847F6F07293436C
:104FF0000C6A8A682243D1E904452C4322438C6918
:105000002243CC6922434C6A22438C6A22431A43CE
:105010000260CA6842600A6882604968C16030BD47
:105020000021016041608160C16001614161816175
:10503000C16101624162816270470029016802D04A
:1050400041F0010102E04FF6FE721140016070472D
:10505000002A026801D00A4300E08A4302607047D8
:1050600041607047406880B2704701460020CA0026
:1050700002D5174A083A01E0144A083A12680A426F
:1050800000D001207047C10003D51149091F0860F5
:1050900070470E4908394860704701460020CA0031
:1050A00002D50B4A083A01E0084A083A12680A4257
:1050B00000D001207047C10003D50549091F0860D1
:1050C00070470249083948607047000008000240F4
:1050D00008040240FC4A116801F0380101431160E4
:1050E0007047F9490A6822F008020A600A68024318
:1050F0000A607047F4490A6822F010020A600A68E0
:1051000002430A607047F048F0494160F04941604D
:105110007047ED48ED494160ED4941607047EA480C
:10512000016941F0800101617047E748016941F080
:10513000800101617047E4490420CA68D20701D0A8
:1051400001207047CA68520701D502207047C9681C
:10515000C906FBD50320704700B50346FFF7EBFFF8
:1051600003E000BFFFF7E7FF5B1E012803D0002B21
:1051700000D1052000BD002BF4D1FAE770B505463B
:105180004FF430263046FFF7E7FF042811D1CE4C0C
:10519000206940F0020020616561206940F0400014
:1051A00020613046FFF7D8FF216941F6FD721140BA
:1051B000216170BD30B54FF430252846FFF7CCFF94
:1051C000042810D1C04C206940F0040020612069FF
:1051D00040F0400020612846FFF7BEFF216941F6FC
:1051E000FB721140216130BD00B50346FFF7A3FFFC
:1051F00003E000BFFFF79FFF5B1E012803D0002BD9
:1052000000D1052000BD002BF4D1FAE730B54FF4F2
:1052100030252846FFF7E8FF042810D1AA4C206962
:1052200040F004002061206940F0400020612846E1
:10523000FFF7DAFF216941F6FB721140216130BDB1
:10524000A1490020C969890700D50120704770B5C0
:10525000A525FFF7F5FF00B100254FF430263046B5
:10526000FFF77AFF042827D1974C9848A060984808
:10527000A060206940F020002061206940F04000DB
:1052800020613046FFF768FF41F6EF7604280ED123
:10529000206941F6DF7108402061206940F010006C
:1052A00020618C4805804FF40050FFF755FF05281A
:1052B00002D021693140216170BDF8B50646002059
:1052C0004FF4005C00900D466046FFF745FF042850
:1052D00016D17D4C206940F0010020613580604688
:1052E000FFF73AFF41F6FE77042806D1B61C280CDA
:1052F000009630806046FFF72FFF21693940216119
:10530000F8BDF0B506464FF400570D463846FFF796
:1053100023FF04280CD16C4C206940F0010020616F
:1053200035803846FFF718FF2169BA1E1140216108
:10533000F0BDF0B506464FF400570D463846FFF76E
:105340000BFF042813D1604C6048A0606048A06047
:10535000206940F01000206135803846FFF7FCFEE0
:10536000052804D0216941F6EF7211402161F0BD9A
:105370002DE9F041C04300F0FF0CC0F30727C0F354
:105380000746050E4FF400584046FFF7E5FE042897
:1053900037D14D4C4D49A1604D49A160216941F083
:1053A00010012161BCF1FF0F08D04A480830A0F875
:1053B00000C04046FFF7D0FE04281BD1FF2F07D0C6
:1053C00044480A3007804046FFF7C6FE042811D142
:1053D000FF2E07D03F480C3006804046FFF7BCFE4A
:1053E000042807D1FF2D07D03A480E3005804046EB
:1053F000FFF7B2FE052804D0216941F6EF72114093
:105400002161BDE8F08170B505464FF43026304685
:10541000FFF7A2FE042818D12B4C2C48A0602C4882
:10542000A060206940F020002061206940F0400029
:1054300020613046FFF790FE41F6DF71042805D069
:10544000052802D022690A40226170BD2069084007
:105450002061206940F0100020611E480DB100213C
:1054600000E0A52101803046FFF776FE0528ECD04C
:10547000216941F6EF721140216170BDF0B5124C07
:105480000746124816460D46A0601148A0604FF42A
:10549000005C6046FFF760FE042814D1206940F0EC
:1054A0001000206135430B493D43891C45F0F8004D
:1054B00008806046FFF750FE052804D0216941F6B8
:1054C000EF7211402161F0BD0020024023016745C9
:1054D000AB89EFCD00F8FF1F1C48C06980087047FA
:1054E0001A48006A7047194900200968890600D5E2
:1054F00001207047154A0029116901D0014300E0DD
:1055000081431161704701460020104A012903D0F0
:10551000D2680A4203D17047D169C907FBD0012084
:1055200070470A49C860704708490420CA68D20712
:1055300001D001207047CA68520701D50220704788
:10554000C968C906FBD5032070470000002002404F
:10555000914910B5884206D10121042000F04BFA90
:10556000002104203BE08D49884206D1012108201A
:1055700000F041FA0021082031E08949884206D133
:105580000121102000F037FA0021102027E0854982
:10559000884206D10121202000F02DFA0021202090
:1055A0001DE08149884206D10121402000F023FA04
:1055B0000021402013E07D49884206D1012180204E
:1055C00000F019FA0021802009E0794988420AD1C7
:1055D00084150121204600F00EFA00212046BDE886
:1055E000104000F008BA10BD10B50121084600F0C7
:1055F00002FA0021BDE81040012000F0FCB9F0B52E
:10560000CA78002502F00F03D20601D58A78134329
:105610000A784FF00F0E12F0FF0F4FF001021DD06D
:10562000D0F800400F8802FA05F63740B74211D192
:105630004FEA850C0EFA0CF724EA070703FA0CF47C
:105640003C43CF78282F02D0482F02D002E0466199
:1056500000E006616D1C082DE4D304600C88FF2C6B
:105660001ED944685FF0000606F1080702FA07F544
:105670000F882F40AF420FD14FEA860C0EFA0CF77D
:10568000BC4303FA0CF73C43CF78282F00D1456187
:10569000CF78482F00D10561761C082EE4D34460F2
:1056A000F0BD4FF6FF710180022181700421C170AD
:1056B00070470246002092680A4200D001207047DD
:1056C000806880B2704702460020D2680A4200D04B
:1056D00001207047C06880B2704701617047416126
:1056E00070470AB10161704741617047C1607047FE
:1056F00041F4803282618161826181698069704791
:105700002C4B10B51A684FF68074224042EA001004
:105710000843186010BD2849C8617047F0B5254C92
:10572000002801DAE36900E06368420D120185B2E6
:10573000C0F301579540C0F30346032F05D0C202C2
:105740000AD50322B240934307E023F070626368F6
:1057500023F07063636002E0AB4343F0706201B119
:105760002A43002801DAE261F0BD6260F0BD10B5A5
:105770008A0721F003040F49130F21440F228C687C
:105780009A4094438C608A68984002438A6010BDB6
:105790000949C1F8DC00704700080140000C0140D5
:1057A000001001400014014000180140001C01409D
:1057B000002001400000014000002042A448016890
:1057C00041F0010101604168A24A11404160016855
:1057D000A14A11400160016821F480210160416803
:1057E00021F4FE0141604FF41F0181607047984928
:1057F0000A6822F480320A600A6822F480220A6071
:10580000B0F5803F07D0B0F5802F03D1086840F491
:10581000A02008607047086840F48030F9E702462D
:10582000002053098A49012B0AD0022B0AD0496A69
:1058300002F01F02012393400B4200D00120704769
:105840000968F5E7096AF3E718B500204FF4A0648A
:1058500000903120FFF7E3FF0099491C0091A1421D
:1058600001D00028F5D03120FFF7D9FF002800D063
:10587000012018BD76490A6822F0F80242EAC00009
:1058800008607047754908607047714A536808435B
:1058900023F47C13184350607047704908667047C2
:1058A0006B4A516821F00301014351607047684819
:1058B000406800F00C007047654A516821F0F00123
:1058C000014351607047624A516821F4E06101432D
:1058D000516070475E494A6822F4605242EAC00053
:1058E000486070475A4A0029517A01D0014300E0CC
:1058F0008143517270475949C1F8D8007047544AE2
:10590000516821F4404101435160704750490022E1
:1059100081F8202081F82020012802D0042802D11B
:10592000052081F8200070474D49086070474849BC
:105930000A6A02430A62704749494439086070475D
:1059400030B543494A6812F00C03464A03D0042B91
:1059500001D0082B21D002604A680F23424C03EA91
:105960001212A35C0268DA4042604B68072505EA20
:105970001323E35C22FA03F383604B6805EAD32325
:10598000E35CDA40C2604968032303EA9131231FD4
:10599000595CB2FBF1F1016130BD4A684B6802F419
:1059A00070124FF0020413F4803F04EB924202D0D5
:1059B0004B689B0301D52D4B00E02A4B5A43CAE7A5
:1059C000234A0029516901D0014300E0814351611C
:1059D00070471F4A0029916901D0014300E08143CB
:1059E000916170471A4A0029D16901D0014300E052
:1059F0008143D1617047164A0029D16801D0014323
:105A000000E08143D1607047114A0029116901D03B
:105A1000014300E08143116170471149403908603A
:105A200070470E49C86470470949C87170470848F3
:105A3000416A41F0807141627047054A0146002089
:105A400092680A4200D0012070470149887270476D
:105A5000001002400000FFF8FFFFF6FE0000424287
:105A60008004424200127A00460A002000093D00EC
:105A700066480021016041608160C16041628162CD
:105A8000C162634A8263C163704730B55F4B5A6835
:105A900047F6FF618A43017D8468C56821434468F5
:105AA0002C43214304680069214301431143596099
:105AB00030BD00210175016041608160C1600161FC
:105AC00070475449C1F8A000704750490A6822F055
:105AD00003020A600A6802430A6070474B48006884
